:020000040800F2
:1000000000500020414C0008314B00083D4B0008D7
:10001000434B0008494B00084F4B0008000000000C
:10002000000000000000000000000000554B000828
:10003000614B0008000000006D4B0008794B000880
:10004000894C0008894C0008894C0008894C00083C
:10005000894C0008894C0008894C0008894C00082C
:10006000894C0008894C0008894C0008894C00081C
:10007000894C0008894C0008894C0008894B00080D
:10008000894C0008894C0008894C0008894C0008FC
:10009000894C0008894C0008894C0008894C0008EC
:1000A000894C0008894C0008894C0008894C0008DC
:1000B000A94B0008894C0008894C0008894C0008AD
:1000C000894C0008894C0008894C0008894C0008BC
:1000D000894C0008BD4B0008894C0008894C000879
:1000E000C94B0008894C0008894C0008000000003A
:1000F0000000000000000000000000000000000000
:0C01000000000000000000005FF808F1A3
:10010C0010B5054C237833B9044B13B10448AFF345
:10011C0000800123237010BDDC01002000000000D2
:10012C00D056000808B5034B1BB103490348AFF385
:10013C00008008BD00000000E0010020D05600083F
:10014C00034613F8012B002AFBD1181A013870470B
:10015C0080B500AF084A084B1B6843F010031360CE
:10016C00032000F03FF9002000F008F804F0A4FB95
:10017C000023184680BD00BF0020024080B582B02D
:10018C0000AF7860124B1A68124B1B7819464FF46B
:10019C007A73B3FBF1F3B2FBF3F3184600F057F9A3
:1001AC000346002B01D001230EE07B680F2B0AD8ED
:1001BC00002279684FF0FF3000F01FF9064A7B6887
:1001CC001360002300E0012318460837BD4680BDAC
:1001DC0008000020040000200000002080B400AFC4
:1001EC00054B1B781A46054B1B681344034A1360D6
:1001FC0000BFBD4680BC7047040000201C020020DC
:10020C0080B400AF024B1B681846BD4680BC7047DB
:10021C001C02002080B584B000AF7860FFF7F0FFBF
:10022C00B8607B68FB60FB68B3F1FF3F05D0094BFE
:10023C001B781A46FB681344FB6000BFFFF7E0FF16
:10024C000246BB68D21AFB689A42F7D300BF10373C
:10025C00BD4680BD0400002080B485B000AF78603E
:10026C007B6803F00703FB600C4BDB68BB60BA6870
:10027C004FF6FF031340BB60FB681A02BB681343C5
:10028C0043F0BF6343F40033BB60044ABB68D360E4
:10029C0000BF1437BD4680BC704700BF00ED00E0C6
:1002AC0080B400AF044BDB681B0A03F0070318464D
:1002BC00BD4680BC704700BF00ED00E080B483B049
:1002CC0000AF0346FB71084997F907305B09FA79CF
:1002DC0002F01F02012000FA02F241F8232000BFB5
:1002EC000C37BD4680BC704700E100E080B483B0A1
:1002FC0000AF03463960FB7197F90730002B0BDA1E
:10030C000D49FB7903F00F03043B3A68D2B212019A
:10031C00D2B20B441A7609E0084997F907303A68CB
:10032C00D2B21201D2B20B4483F8002300BF0C37B7
:10033C00BD4680BC704700BF00ED00E000E100E06E
:10034C0080B489B000AFF860B9607A60FB6803F0E4
:10035C000703FB61FB69C3F10703042B28BF0423CC
:10036C00BB61FB690433062B02D9FB69033B00E03C
:10037C0000237B610122BB6902FA03F35A1EBB689E
:10038C001A407B699A4001217B6901FA03F3591EDB
:10039C007B680B40134318462437BD4680BC70471E
:1003AC0080B582B000AF78607B68013BB3F1807F91
:1003BC0001D301230FE00A4A7B68013B53600F21F4
:1003CC004FF0FF30FFF792FF054B00229A60044B71
:1003DC0007221A60002318460837BD4680BD00BFAF
:1003EC0010E000E080B582B000AF78607868FFF76D
:1003FC0033FF00BF0837BD4680BD80B586B000AF67
:10040C000346B9607A60FB7300237B61FFF748FFFA
:10041C0078617A68B9687869FFF792FF024697F9B4
:10042C000F3011461846FFF761FF00BF1837BD4665
:10043C0080BD80B582B000AF0346FB7197F90730E1
:10044C001846FFF73BFF00BF0837BD4680BD80B59F
:10045C0082B000AF78607868FFF7A2FF03461846B9
:10046C000837BD4680BD000080B483B000AF786013
:10047C007B68042B06D1094A084B1B6843F0040324
:10048C00136005E0054A054B1B6823F00403136059
:10049C0000BF0C37BD4680BC704700BF10E000E0C9
:1004AC0080B500AF00F002F800BF80BD80B400AF93
:1004BC0000BFBD4680BC704780B485B000AF78608B
:1004CC000023FB607B68002B01D101234FE07B688C
:1004DC001B681A46284B1344284AA2FB03231B090A
:1004EC009A007B681A647B68254ADA637B6802226F
:1004FC0083F821207B681B681B68FB60FB6823F476
:10050C007F5323F03003FB607B685A687B689B68E1
:10051C001A437B68DB681A437B681B691A437B6848
:10052C005B691A437B689B691A437B68DB691343DD
:10053C00FA681343FB607B681B68FA681A607B6877
:10054C0000229A627B680022DA627B6800221A63BE
:10055C007B6800225A637B6800229A637B680122C5
:10056C0083F821207B68002283F820200023184682
:10057C001437BD4680BC7047F8FFFDBFCDCCCCCC4A
:10058C000000024080B586B000AFF860B9607A60B8
:10059C003B600023FB75FB6893F82030012B01D1E5
:1005AC0002234AE0FB68012283F82020FB6893F8C1
:1005BC002130012B3AD1FB68022283F82120FB6801
:1005CC0000229A63FB681B68FA681268126822F0B2
:1005DC0001021A603B687A68B968F86800F044F95F
:1005EC00FB68DB6A002B08D0FB681B68FA68126892
:1005FC00126842F00E021A600FE0FB681B68FA6882
:10060C001268126822F004021A60FB681B68FA6810
:10061C001268126842F00A021A60FB681B68FA68DA
:10062C001268126842F001021A6005E0FB680022B1
:10063C0083F820200223FB75FB7D18461837BD4636
:10064C0080BD000080B584B000AF78607B68DB6B48
:10065C001B68FB607B681B681B68BB607B681B6C42
:10066C0004229A40FB681340002B55D0BB6803F062
:10067C000403002B50D07B681B681B6803F020031D
:10068C00002B07D17B681B687A681268126822F00D
:10069C0004021A606D4A7B681B6819466C4B9942C0
:1006AC002ED07B681B6819466A4B994226D07B6812
:1006BC001B681946684B99421DD07B681B6819460C
:1006CC00664B994214D07B681B681946644B99425F
:1006DC000BD07B681B681946624B994202D14FF4D0
:1006EC0080030EE04FF080630BE04FF4802308E0B2
:1006FC004FF4804305E04FF4806302E0402300E0B8
:10070C00042353607B68DB6A002B00F09A807B68C3
:10071C00DB6A7868984794E07B681B6C02229A40ED
:10072C00FB681340002B5CD0BB6803F00203002B6A
:10073C0057D07B681B681B6803F02003002B0BD180
:10074C007B681B687A681268126822F00A021A60C9
:10075C007B68012283F821203C4A7B681B68194680
:10076C003B4B99422ED07B681B681946394B9942FA
:10077C0026D07B681B681946374B99421DD07B6885
:10078C001B681946354B994214D07B681B68194677
:10079C00334B99420BD07B681B681946314B9942FD
:1007AC0002D14FF400130EE04FF000730BE04FF446
:1007BC00003308E04FF4005305E04FF4007302E0FF
:1007CC00202300E0022353607B68002283F8202062
:1007DC007B689B6A002B34D07B689B6A786898474F
:1007EC002FE07B681B6C08229A40FB681340002B9F
:1007FC0028D0BB6803F00803002B23D07B681B6850
:10080C007A681268126822F00E021A607B68DB6B41
:10081C007A68126C012101FA02F25A607B6801229B
:10082C009A637B68012283F821207B68002283F87D
:10083C0020207B681B6B002B04D07B681B6B7868BB
:10084C00984700BF00BF1037BD4680BD0000024076
:10085C00080002401C0002403000024044000240EC
:10086C00580002406C00024080B485B000AFF860C4
:10087C00B9607A603B60FB68DB6BFA68126C012133
:10088C0001FA02F25A60FB681B683A685A60FB680E
:10089C005B68102B08D1FB681B687A689A60FB6850
:1008AC001B68BA68DA6007E0FB681B68BA689A6074
:1008BC00FB681B687A68DA6000BF1437BD4680BCE1
:1008CC007047000080B48BB000AF786039600023B3
:1008DC00FB610023BB6100237B6100233B6200238F
:1008EC003B6100237B6227E101227B6A02FA03F35E
:1008FC00FB613B681A68FB691340BB61BA69FB6911
:10090C009A4240F016813B685B68122B34D0122B54
:10091C000DD8022B2BD0022B04D8002B31D0012B5D
:10092C001CD048E0032B43D0112B1BD043E0874A4B
:10093C00934226D0854A934206D8854A934220D0CA
:10094C00844A93421DD036E0834A934219D0834A9D
:10095C00934216D0824A934213D02CE03B68DB685A
:10096C003B6228E03B68DB6804333B6223E03B6876
:10097C00DB6808333B621EE03B68DB680C333B6290
:10098C0019E03B689B68002B02D104233B6212E008
:10099C003B689B68012B05D108233B627B68FA6995
:1009AC001A6108E008233B627B68FA695A6102E02D
:1009BC0000233B6200BFBB69FF2B01D87B6801E0C1
:1009CC007B680433FB60BB69FF2B02D87B6A9B00FE
:1009DC0002E07B6A083B9B003B61FB681A680F21B5
:1009EC003B6901FA03F3DB431A40396A3B6901FAAC
:1009FC0003F31A43FB681A603B685B6803F080538F
:100A0C00002B00F09680574A564B9B6943F001032C
:100A1C009361544B9B6903F00103BB60BB68524A62
:100A2C007B6A9B08023352F823307B617B6A03F0AC
:100A3C0003039B000F2202FA03F3DB437A69134092
:100A4C007B617B68494A934213D07B68484A934246
:100A5C000DD07B68474A934207D07B68464A934245
:100A6C0001D1032306E0042304E0022302E0012366
:100A7C0000E000237A6A02F00302920093407A6944
:100A8C0013437B6138497B6A9B0802337A6941F8CE
:100A9C0023203B685B6803F48033002B06D0374976
:100AAC00364B1A68BB6913430B6006E03349334B72
:100ABC001A68BB69DB4313400B603B685B6803F44B
:100ACC000033002B06D02D492C4B5A68BB691343BD
:100ADC004B6006E02949294B5A68BB69DB4313403C
:100AEC004B603B685B6803F48013002B06D02349F2
:100AFC00224B9A68BB6913438B6006E01F491F4B5E
:100B0C009A68BB69DB4313408B603B685B6803F4FA
:100B1C000013002B06D01949184BDA68BB69134334
:100B2C00CB6006E01549154BDA68BB69DB43134013
:100B3C00CB607B6A01337B627B6A0F2B7FF6D4AE72
:100B4C0000BF2C37BD4680BC704700BF0000211091
:100B5C0000001110000012100000311000003210C3
:100B6C00000022100010024000000140000801406B
:100B7C00000C014000100140001401400004014031
:100B8C0080B483B000AF78600B467B8013467B70DB
:100B9C007B78002B03D07A887B681A6103E07B8812
:100BAC001A047B681A6100BF0C37BD4680BC7047C5
:100BBC0080B483B000AF78600B467B807B68DA68CA
:100BCC007B885A407B68DA6000BF0C37BD4680BC1E
:100BDC007047000080B582B000AF0346FB80084B25
:100BEC005A69FB881340002B06D0054AFB885361D9
:100BFC00FB88184603F0DAFD00BF0837BD4680BD00
:100C0C000004014080B584B000AF78607B68002B95
:100C1C0001D101232BE07B681B684CF6CC421A6097
:100C2C007B681B6845F255521A607B681B687A68B2
:100C3C0052685A607B681B687A6892689A60FFF702
:100C4C00DFFAF86008E0FFF7DBFA0246FB68D31A1C
:100C5C00302B01D903230AE07B681B68DB68002B6F
:100C6C00F1D17B681B684AF6AA221A600023184649
:100C7C001037BD4680BD80B483B000AF78607B6810
:100C8C001B684AF6AA221A60002318460C37BD4688
:100C9C0080BC704780B586B000AF786000233B61A4
:100CAC007B681B6803F00103002B00F08780924BDC
:100CBC005B6803F00C03042B0CD08F4B5B6803F0C8
:100CCC000C03082B12D18C4B5B6803F48033B3F507
:100CDC00803F0BD1884B1B6803F40033002B6CD086
:100CEC007B685B68002B68D101232DE27B685B6815
:100CFC00B3F5803F06D1804A7F4B1B6843F48033A9
:100D0C0013602EE07B685B68002B0CD17A4A7A4B1F
:100D1C001B6823F480331360774A774B1B6823F4EA
:100D2C00802313601DE07B685B68B3F5A02F0CD1AA
:100D3C00714A714B1B6843F4802313606E4A6E4BEF
:100D4C001B6843F4803313600BE06B4A6A4B1B68DF
:100D5C0023F480331360684A674B1B6823F48023A9
:100D6C0013607B685B68002B13D0FFF749FA38617E
:100D7C0008E0FFF745FA02463B69D31A642B01D908
:100D8C000323E1E15C4B1B6803F40033002BF0D030
:100D9C0014E0FFF735FA386108E0FFF731FA024644
:100DAC003B69D31A642B01D90323CDE1524B1B6849
:100DBC0003F40033002BF0D100E000BF7B681B680C
:100DCC0003F00203002B63D04B4B5B6803F00C0366
:100DDC00002B0BD0484B5B6803F00C03082B1CD189
:100DEC00454B5B6803F48033002B16D1424B1B68D8
:100DFC0003F00203002B05D07B681B69012B01D08B
:100E0C000123A1E13C493C4B1B6823F0F8027B68B1
:100E1C005B69DB0013430B603AE07B681B69002BBA
:100E2C0020D0364B01221A60FFF7EAF9386108E04E
:100E3C00FFF7E6F902463B69D31A022B01D90323CB
:100E4C0082E12D4B1B6803F00203002BF0D02A49E2
:100E5C00294B1B6823F0F8027B685B69DB001343AA
:100E6C000B6015E0254B00221A60FFF7C9F93861B9
:100E7C0008E0FFF7C5F902463B69D31A022B01D9EA
:100E8C00032361E11C4B1B6803F00203002BF0D120
:100E9C007B681B6803F00803002B39D07B689B69C7
:100EAC00002B19D0164B01221A60FFF7A9F93861F3
:100EBC0008E0FFF7A5F902463B69D31A022B01D9CA
:100ECC00032341E10C4B5B6A03F00203002BF0D0CF
:100EDC00012000F0CBFA1BE0094B00221A60FFF74F
:100EEC008FF938610EE0FFF78BF902463B69D31A94
:100EFC00022B07D9032327E10010024000004242D5
:100F0C0080044242924B5B6A03F00203002BEAD14D
:100F1C007B681B6803F00403002B00F0A680002301
:100F2C00FB758B4BDB6903F08053002B0DD1884A8A
:100F3C00874BDB6943F08053D361854BDB6903F04E
:100F4C008053FB60FB680123FB75824B1B6803F429
:100F5C008073002B18D17F4A7E4B1B6843F480733F
:100F6C001360FFF74DF9386108E0FFF749F90246C5
:100F7C003B69D31A642B01D90323E5E0754B1B683D
:100F8C0003F48073002BF0D07B68DB68012B06D157
:100F9C006F4A6F4B1B6A43F0010313622DE07B68B1
:100FAC00DB68002B0CD16A4A694B1B6A23F00103E6
:100FBC001362674A664B1B6A23F0040313621CE03E
:100FCC007B68DB68052B0CD1614A614B1B6A43F0D3
:100FDC00040313625E4A5E4B1B6A43F00103136207
:100FEC000BE05B4A5A4B1B6A23F001031362584A0D
:100FFC00574B1B6A23F0040313627B68DB68002BDE
:10100C0015D0FFF7FDF838610AE0FFF7F9F8024652
:10101C003B69D31A41F28832934201D9032393E0FE
:10102C004B4B1B6A03F00203002BEED014E0FFF7CE
:10103C00E7F838610AE0FFF7E3F802463B69D31A98
:10104C0041F28832934201D903237DE0404B1B6A65
:10105C0003F00203002BEED1FB7D012B05D13C4AA2
:10106C003B4BDB6923F08053D3617B68DB69002B3E
:10107C0069D0374B5B6803F00C03082B61D07B689D
:10108C00DB69022B46D1344B00221A60FFF7B8F80B
:10109C00386108E0FFF7B4F802463B69D31A022B1B
:1010AC0001D9032350E02A4B1B6803F00073002B7B
:1010BC00F0D17B681B6AB3F5803F08D12449244BDF
:1010CC005B6823F400327B689B6813434B602048B9
:1010DC001F4B5B6823F474127B68196A7B685B6A2C
:1010EC000B43134343601C4B01221A60FFF788F833
:1010FC00386108E0FFF784F802463B69D31A022BEB
:10110C0001D9032320E0124B1B6803F00073002B62
:10111C00F0D018E0104B00221A60FFF771F838611C
:10112C0008E0FFF76DF802463B69D31A022B01D990
:10113C00032309E0064B1B6803F00073002BF0D16E
:10114C0001E0012300E0002318461837BD4680BD9E
:10115C0000100240007000406000424280B584B034
:10116C0000AF786039600023FB60724B1B6803F0A2
:10117C0007023B689A4210D26E496E4B1B6823F0F3
:10118C0007023B6813430B606A4B1B6803F00702B2
:10119C003B689A4201D00123C8E07B681B6803F0CE
:1011AC000203002B08D06449634B5B6823F0F00208
:1011BC007B689B6813434B607B681B6803F00103DF
:1011CC00002B6AD07B685B68012B07D15A4B1B68DC
:1011DC0003F40033002B15D10123A7E07B685B6877
:1011EC00022B07D1544B1B6803F00073002B09D161
:1011FC0001239BE0504B1B6803F00203002B01D131
:10120C00012393E04C494C4B5B6823F003027B6851
:10121C005B6813434B60FEF7F3FFF8607B685B6819
:10122C00012B12D10AE0FEF7EBFF0246FB68D31A42
:10123C0041F28832934201D9032377E03E4B5B683D
:10124C0003F00C03042BEED127E07B685B68022BC8
:10125C001DD10AE0FEF7D4FF0246FB68D31A41F217
:10126C008832934201D9032360E0334B5B6803F06F
:10127C000C03082BEED110E0FEF7C2FF0246FB6810
:10128C00D31A41F28832934201D903234EE02A4B00
:10129C005B6803F00C03002BEED1264B1B6803F0AC
:1012AC0007023B689A4210D92249224B1B6823F053
:1012BC0007023B6813430B601E4B1B6803F00702CD
:1012CC003B689A4201D0012330E07B681B6803F035
:1012DC000403002B08D01849174B5B6823F4E06219
:1012EC007B68DB6813434B607B681B6803F0080367
:1012FC00002B09D01049104B5B6823F460527B68BB
:10130C001B69DB0013434B6000F01CF801460A4BD1
:10131C005B681B0903F00F03084AD35C21FA03F343
:10132C00074A13600020FEF729FF002318461037E8
:10133C00BD4680BD002002400010024098620008AB
:10134C000800002090B48AB000AF2A4B3C1D0FCB94
:10135C0084E80F00284B1B883B800023FB61002393
:10136C00BB6100237B6200237B6100233B62234B28
:10137C005B68FB61FB6903F00C03042B02D0082BA8
:10138C0003D02DE01E4B3B622DE0FB699B0C03F060
:10139C000F0307F12802134413F8243C7B61FB690B
:1013AC0003F48033002B13D0144B5B685B0C03F0FD
:1013BC00010307F12802134413F8283CBB617B6935
:1013CC000F4A02FB03F2BB69B2FBF3F37B6204E04E
:1013DC007B690C4A02FB03F37B627B6A3B6202E093
:1013EC00074B3B6200BF3B6A18462837BD4690BC92
:1013FC00704700BFE8560008F8560008001002407D
:10140C0000127A0000093D0080B400AF024B1B684B
:10141C001846BD4680BC70470800002080B500AF60
:10142C00FFF7F2FF0146054B5B681B0A03F007034D
:10143C00034AD35C21FA03F3184680BD0010024026
:10144C00A862000880B500AFFFF7DEFF0146054B30
:10145C005B68DB0A03F00703034AD35C21FA03F34E
:10146C00184680BD00100240A862000880B485B008
:10147C0000AF78600A4B1B680A4AA2FB03235B0A85
:10148C007A6802FB03F3FB6000BFFB685A1EFA602C
:10149C00002BF9D100BF1437BD4680BC704700BF8C
:1014AC0008000020D34D621080B582B000AF786088
:1014BC007B68002B01D101231DE07B6893F83D3044
:1014CC00DBB2002B06D17B68002283F83C207868C5
:1014DC0003F050FA7B68022283F83D207B681A687F
:1014EC007B6804331946104600F068FB7B680122C8
:1014FC0083F83D20002318460837BD4680BD80B4D4
:10150C0083B000AF78607B68022283F83D207B6853
:10151C001B687A681268126842F001021A607B68D4
:10152C00012283F83D20002318460C37BD4680BCB1
:10153C00704780B483B000AF78607B681B687A68B2
:10154C001268D26842F00102DA607B681B687A6824
:10155C001268126842F001021A60002318460C3718
:10156C00BD4680BC704780B582B000AF78607B68A8
:10157C00002B01D101231DE07B6893F83D30DBB2D9
:10158C00002B06D17B68002283F83C20786800F0A1
:10159C0015F87B68022283F83D207B681A687B680B
:1015AC0004331946104600F009FB7B68012283F8CE
:1015BC003D20002318460837BD4680BD80B483B05B
:1015CC0000AF786000BF0C37BD4680BC7047000090
:1015DC0080B582B000AF786039607B681B680122EF
:1015EC003968184600F095FD7B681B680B4A9342DE
:1015FC0007D17B681B687A681268526C42F400420F
:10160C005A647B681B687A681268126842F001029F
:10161C001A60002318460837BD4680BD002C0140D7
:10162C0080B582B000AF78607B681B681B6903F0E3
:10163C000203022B22D17B681B68DB6803F00203D8
:10164C00022B1BD17B681B686FF002021A617B684E
:10165C0001221A777B681B689B6903F00303002B3C
:10166C0003D0786800F08EFA05E0786800F081FA13
:10167C00786800F090FA7B6800221A777B681B6808
:10168C001B6903F00403042B22D17B681B68DB6805
:10169C0003F00403042B1BD17B681B686FF004025E
:1016AC001A617B6802221A777B681B689B6903F4BA
:1016BC004073002B03D0786800F064FA05E078687A
:1016CC0000F057FA786800F066FA7B6800221A7707
:1016DC007B681B681B6903F00803082B22D17B680D
:1016EC001B68DB6803F00803082B1BD17B681B68A5
:1016FC006FF008021A617B6804221A777B681B68FA
:10170C00DB6903F00303002B03D0786800F03AFA8E
:10171C0005E0786800F02DFA786800F03CFA7B68F8
:10172C0000221A777B681B681B6903F01003102BCF
:10173C0022D17B681B68DB6803F01003102B1BD1D4
:10174C007B681B686FF010021A617B6808221A779D
:10175C007B681B68DB6903F44073002B03D078684B
:10176C0000F010FA05E0786800F003FA786800F0F1
:10177C0012FA7B6800221A777B681B681B6903F0DE
:10178C000103012B0ED17B681B68DB6803F001039E
:10179C00012B07D17B681B686FF001021A61786816
:1017AC0002F0F0FF7B681B681B6903F08003802B41
:1017BC000ED17B681B68DB6803F08003802B07D19C
:1017CC007B681B686FF080021A61786800F010FD6E
:1017DC007B681B681B6903F04003402B0ED17B68B0
:1017EC001B68DB6803F04003402B07D17B681B6848
:1017FC006FF040021A61786800F0D6F97B681B68BC
:10180C001B6903F02003202B0ED17B681B68DB685F
:10181C0003F02003202B07D17B681B686FF020029C
:10182C001A61786800F0DBFC00BF0837BD4680BD4C
:10183C0080B584B000AFF860B9607A60FB6893F84B
:10184C003C30012B01D10223B4E0FB68012283F868
:10185C003C20FB68022283F83D207B680C2B00F2B5
:10186C009F8001A252F823F0A9180008AD190008B6
:10187C00AD190008AD190008E9180008AD190008E9
:10188C00AD190008AD1900082B190008AD19000896
:10189C00AD190008AD1900086B190008FB681B682E
:1018AC00B968184600F0F0F9FB681B68FA68126812
:1018BC00926942F008029A61FB681B68FA68126828
:1018CC00926922F004029A61FB681B68FA6812683C
:1018DC009169BA6812690A439A6162E0FB681B68F5
:1018EC00B968184600F03CFAFB681B68FA68126885
:1018FC00926942F400629A61FB681B68FA6812688C
:10190C00926922F480629A61FB681B68FA6812681B
:10191C009169BA68126912020A439A6141E0FB6844
:10192C001B68B968184600F08BFAFB681B68FA68EC
:10193C001268D26942F00802DA61FB681B68FA6827
:10194C001268D26922F00402DA61FB681B68FA683B
:10195C001268D169BA6812690A43DA6121E0FB683E
:10196C001B68B968184600F0DBFAFB681B68FA685C
:10197C001268D26942F40062DA61FB681B68FA688B
:10198C001268D26922F48062DA61FB681B68FA681B
:10199C001268D169BA68126912020A43DA6100E06E
:1019AC0000BFFB68012283F83D20FB68002283F80E
:1019BC003C20002318461037BD4680BD80B584B04E
:1019CC0000AF786039600023FB607B6893F83C3093
:1019DC00012B01D10223C8E07B68012283F83C2053
:1019EC007B68022283F83D207B681B689B68FB6048
:1019FC00FB6823F07703FB60FB6823F47F43FB60F9
:101A0C007B681B68FA689A603B681B68402B77D030
:101A1C00402B0ED8102B00F08A80102B02D8002BF4
:101A2C007ED099E0202B00F08980302B00F08D8047
:101A3C0092E0702B16D0702B04D8502B40D0602B1A
:101A4C004ED089E0B3F5805F03D0B3F5005F24D0AE
:101A5C0082E07B681B687A681268926822F0070241
:101A6C009A6079E07B6818683B6899683B685A68AB
:101A7C003B68DB6800F02CFB7B681B689B68FB6099
:101A8C00FB6823F07703FB60FB6843F07703FB6094
:101A9C007B681B68FA689A605EE07B6818683B6834
:101AAC0099683B685A683B68DB6800F011FB7B68FF
:101ABC001B687A681268926842F480429A604BE024
:101ACC007B6818683B6859683B68DB681A4600F00D
:101ADC007BFA7B681B685021184600F0DAFA3BE071
:101AEC007B6818683B6859683B68DB681A4600F0ED
:101AFC009DFA7B681B686021184600F0CAFA2BE03F
:101B0C007B6818683B6859683B68DB681A4600F0CC
:101B1C005BFA7B681B684021184600F0BAFA1BE0A0
:101B2C007B681B680021184600F0B3FA14E07B6850
:101B3C001B681021184600F0ACFA0DE07B681B689E
:101B4C002021184600F0A5FA06E07B681B683021BE
:101B5C00184600F09EFA00BF7B68012283F83D20F6
:101B6C007B68002283F83C20002318461037BD46C2
:101B7C0080BD80B483B000AF786000BF0C37BD4629
:101B8C0080BC704780B483B000AF786000BF0C3766
:101B9C00BD4680BC704780B483B000AF786000BF96
:101BAC000C37BD4680BC704780B483B000AF786002
:101BBC0000BF0C37BD4680BC7047000080B485B0B8
:101BCC0000AF786039600023FB607B681B68FB60AA
:101BDC007B682A4A93420BD07B68B3F1804F07D0C5
:101BEC007B68274A934203D07B68264A934208D1EC
:101BFC00FB6823F07003FB603B685B68FA68134377
:101C0C00FB607B681D4A93420BD07B68B3F1804F1D
:101C1C0007D07B681A4A934203D07B68194A9342D7
:101C2C0008D1FB6823F44073FB603B68DB68FA68FF
:101C3C001343FB60FB6823F08003FB603B685B692C
:101C4C00FA681343FB607B68FA681A603B689A6811
:101C5C007B68DA623B681A687B689A627B68074A21
:101C6C00934203D13B681A697B681A637B68012233
:101C7C005A6100BF1437BD4680BC7047002C014030
:101C8C00000400400008004080B487B000AF7860CA
:101C9C0039600023FB6000237B6100233B617B6880
:101CAC001B6A23F001027B681A627B681B6A7B61EA
:101CBC007B685B683B617B689B69FB60FB6823F01E
:101CCC007003FB60FB6823F00303FB603B681B683D
:101CDC00FA681343FB607B6923F002037B613B686A
:101CEC009B687A6913437B617B681C4A93420CD1D5
:101CFC007B6923F008037B613B68DB687A691343DB
:101D0C007B617B6923F004037B617B68134A9342FC
:101D1C0011D13B6923F480733B613B6923F400735D
:101D2C003B613B685B693A6913433B613B689B6968
:101D3C003A6913433B617B683A695A607B68FA687D
:101D4C009A613B685A687B685A637B687A691A6245
:101D5C0000BF1C37BD4680BC704700BF002C014043
:101D6C0080B487B000AF786039600023FB6000233B
:101D7C007B6100233B617B681B6A23F010027B684C
:101D8C001A627B681B6A7B617B685B683B617B6862
:101D9C009B69FB60FB6823F4E043FB60FB6823F466
:101DAC004073FB603B681B681B02FA681343FB60C3
:101DBC007B6923F020037B613B689B681B017A697C
:101DCC0013437B617B681D4A93420DD17B6923F0E1
:101DDC0080037B613B68DB681B017A6913437B6181
:101DEC007B6923F040037B617B68144A934213D1D7
:101DFC003B6923F480633B613B6923F400633B61E3
:101E0C003B685B699B003A6913433B613B689B6988
:101E1C009B003A6913433B617B683A695A607B6863
:101E2C00FA689A613B685A687B689A637B687A693E
:101E3C001A6200BF1C37BD4680BC7047002C0140A5
:101E4C0080B487B000AF786039600023FB6000235A
:101E5C007B6100233B617B681B6A23F480727B6887
:101E6C001A627B681B6A7B617B685B683B617B6881
:101E7C00DB69FB60FB6823F07003FB60FB6823F0FD
:101E8C000303FB603B681B68FA681343FB607B69C8
:101E9C0023F400737B613B689B681B027A691343D4
:101EAC007B617B681D4A93420DD17B6923F40063EF
:101EBC007B613B68DB681B027A6913437B617B693E
:101ECC0023F480637B617B68144A934213D13B6992
:101EDC0023F480533B613B6923F400533B613B6823
:101EEC005B691B013A6913433B613B689B691B01AE
:101EFC003A6913433B617B683A695A607B68FA68BC
:101F0C00DA613B685A687B68DA637B687A691A62C3
:101F1C0000BF1C37BD4680BC704700BF002C014081
:101F2C0080B487B000AF7860396000233B61002338
:101F3C00FB6000237B617B681B6A23F480527B6807
:101F4C001A627B681B6AFB607B685B687B617B68E1
:101F5C00DB693B613B6923F4E0433B613B6923F460
:101F6C0040733B613B681B681B023A6913433B613E
:101F7C00FB6823F40053FB603B689B681B03FA6807
:101F8C001343FB607B680F4A934209D17B6923F4AE
:101F9C0080437B613B685B699B017A6913437B617E
:101FAC007B687A695A607B683A69DA613B685A687F
:101FBC007B681A647B68FA681A6200BF1C37BD46DE
:101FCC0080BC7047002C014080B487B000AFF86033
:101FDC00B9607A6000237B6100233B61FB681B6A5C
:101FEC003B61FB681B6A23F00102FB681A62FB6809
:101FFC009B697B617B6923F0F0037B617B681B0130
:10200C007A6913437B613B6923F00A033B613A69AC
:10201C00BB6813433B61FB687A699A61FB683A6958
:10202C001A6200BF1C37BD4680BC704780B487B0B5
:10203C0000AFF860B9607A6000237B6100233B61DC
:10204C00FB681B6A23F01002FB681A62FB689B6931
:10205C007B61FB681B6A3B617B6923F470437B618A
:10206C007B681B037A6913437B613B6923F0A003F4
:10207C003B61BB681B013A6913433B61FB687A699E
:10208C009A61FB683A691A6200BF1C37BD4680BC76
:10209C00704780B485B000AF78600B467B8000231E
:1020AC00FB607B689B68FB60FB6823F07003FB6044
:1020BC007B8843F007039BB21A46FB681343FB6013
:1020CC007B68FA689A6000BF1437BD4680BC7047C5
:1020DC0080B487B000AFF860B9607A603B600023D1
:1020EC007B61FB689B687B617B6923F47F437B612D
:1020FC003B681A027B681A43BB6813437A69134323
:10210C007B61FB687A699A6000BF1C37BD4680BC56
:10211C00704780B487B000AFF860B9607A60002374
:10212C007B610122BB6802FA03F37B61FB681A6ACC
:10213C007B69DB431A40FB681A62FB681A6A796890
:10214C00BB6801FA03F31A43FB681A6200BF1C3721
:10215C00BD4680BC704780B483B000AF78603960F6
:10216C007B6893F83C30012B01D1022332E07B6871
:10217C00012283F83C207B68022283F83D207B6897
:10218C001B687A681268526822F070025A607B6889
:10219C001B687A68126851683A6812680A435A6078
:1021AC007B681B687A681268926822F080029A60D9
:1021BC007B681B687A68126891683A6852680A43AF
:1021CC009A607B68012283F83D207B68002283F8AB
:1021DC003C20002318460C37BD4680BC704780B4A9
:1021EC0083B000AF786000BF0C37BD4680BC704731
:1021FC0080B483B000AF786000BF0C37BD4680BCA4
:10220C00704780B582B000AF78607B68002B01D13D
:10221C0001233FE07B6893F83930DBB2002B06D109
:10222C007B68002283F83820786802F039FC7B68E0
:10223C00242283F839207B681B687A681268D2687C
:10224C0022F40052DA60786800F028F87B681B688A
:10225C007A681268126922F490421A617B681B68D2
:10226C007A681268526922F02A025A617B681B68EC
:10227C007A681268D26842F40052DA607B680022F5
:10228C00DA637B68202283F839207B68202283F86C
:10229C003A20002318460837BD4680BDF0B585B0FE
:1022AC0000AF78600023FB607B681B687A6812685B
:1022BC00126922F440517A68D2680A431A617B6829
:1022CC009A687B681B691A437B685B691343FA68DD
:1022DC001343FB607B681A687B681B68DB6823F41C
:1022EC00B05323F00C03F9680B43D3607B681B6875
:1022FC007A681268526922F440717A6892690A43CA
:10230C005A617B681B686F4A93426BD17B681C686F
:10231C00FFF798F8024613469B0013449A001A44A0
:10232C007B685B689B00B2FBF3F3674AA2FB032359
:10233C005B091D01FFF786F8024613469B00134408
:10234C009A001A447B685B689B00B2FBF3F6FFF7BC
:10235C0079F8024613469B0013449A001A447B6892
:10236C005B689B00B2FBF3F3574AA2FB03235B09A8
:10237C00642202FB03F3F31A1B013233524AA2FB11
:10238C0003235B0903F0F0031D44FFF75BF80246DF
:10239C0013469B0013449A001A447B685B689B00AD
:1023AC00B2FBF3F6FFF74EF8024613469B001344BC
:1023BC009A001A447B685B689B00B2FBF3F3424AB9
:1023CC00A2FB03235B09642202FB03F3F31A1B0138
:1023DC0032333D4AA2FB03235B0903F00F032B446A
:1023EC00A3606AE07B681C68FFF718F80246134686
:1023FC009B0013449A001A447B685B689B00B2FBF9
:10240C00F3F3314AA2FB03235B091D01FFF706F826
:10241C00024613469B0013449A001A447B685B687F
:10242C009B00B2FBF3F6FEF7F9FF024613469B0046
:10243C0013449A001A447B685B689B00B2FBF3F36D
:10244C00214AA2FB03235B09642202FB03F3F31A68
:10245C001B0132331C4AA2FB03235B0903F0F0037C
:10246C001D44FEF7DBFF024613469B0013449A0003
:10247C001A447B685B689B00B2FBF3F6FEF7CEFF59
:10248C00024613469B0013449A001A447B685B680F
:10249C009B00B2FBF3F30C4AA2FB03235B096422FF
:1024AC0002FB03F3F31A1B013233074AA2FB03238B
:1024BC005B0903F00F032B44A36000BF1437BD4628
:1024CC00F0BD00BF003801401F85EB5180B500AF57
:1024DC00074B00221A7000F039F8054B01221A70D4
:1024EC0000F034F8024B00221A7000BF80BD00BF10
:1024FC00F801002080B400AF074B1B78DBB2002B37
:10250C0003D0054B00221A7002E0034B01221A7013
:10251C0000BFBD4680BC7047F801002080B483B07A
:10252C0000AF0346FB71074B1B78DBB21A46FB79F5
:10253C00120113441B02044A134418460C37BD46BF
:10254C0080BC7047F80100202002002080B485B0C8
:10255C0000AF0023FB731D4B1B78DBB2002B02D0AA
:10256C000023FB7301E00123FB730023BB6024E019
:10257C0000237B601BE0FA7B7B685B001448110135
:10258C00BA680A4412020244134400221A70FA7BFD
:10259C007B685B0001330E481101BA680A441202D1
:1025AC000244134480221A707B6801337B607B6881
:1025BC007F2BE0DDBB680133BB60BB680F2BD7DD25
:1025CC0000BF1437BD4680BC704700BFF801002027
:1025DC0020020020F0B484B000AF0346FB800B4611
:1025EC00BB801346FB700023FB730023BB730023DB
:1025FC007B733A4B1B78DBB2002B02D000237B732E
:10260C0001E001237B73B7F90630002B60DBB7F9CF
:10261C0006307F2B5CDCB7F90430002B58DBB7F9A4
:10262C0004301F2B54DCB7F904305A4203F00F036B
:10263C0002F00F0258BF53421BB27B81FB883B81D7
:10264C00B7F904300F2B01DD0823FB73FB7B002B48
:10265C0002D1FB78BB7302E0FB78DB00BB73797BA8
:10266C007A893B895B007D7B7C89388940001C4ED4
:10267C002D012C442402344420440478B87B20439C
:10268C00C4B2174809010A441202024413442246F8
:10269C001A70797B7A893B895B0001337D7B7C895D
:1026AC003889400001300E4E2D012C442402344454
:1026BC0020440478B87B2043C0B260F07F00C4B2E1
:1026CC00074809010A4412020244134422461A70B4
:1026DC0000BF1037BD46F0BC704700BFF8010020AA
:1026EC002002002090B58DB000AF0446084611467C
:1026FC001A462346FB800346BB800B46FB701346F1
:10270C00BB70FB78FB820023FB8512E0F98DFA8A03
:10271C0013469B0013441A46FB8D1344AA4A1344D8
:10272C001A7807F130030B4403F8242CFB8D01338A
:10273C00FB85FB8D042BE9D90023FB8567E0002387
:10274C00BB855EE0FB8D07F13002134413F8243C8B
:10275C001A46BB8D42FA03F303F00103002B4DD054
:10276C0000237B8544E000233B8538E097F840301C
:10277C009BB2BA8D02FB03F39AB2BB8813449AB294
:10278C003B8D1344BB8297F840309BB2FA8D02FB11
:10279C0003F39AB2FB8813449AB27B8D13447B8269
:1027AC007A8AB7F944309A4216DB7A8AB7F94830FC
:1027BC009A4211DCBA8AB7F94C309A420CDBBA8ACD
:1027CC00B7F950309A4207DCB7F91230B7F9141048
:1027DC00BA781846FFF7FEFE3B8D01333B8597F820
:1027EC0040309BB23A8D9A42C0D37B8D01337B85AE
:1027FC0097F840309BB27A8D9A42B4D3BB8D01339B
:10280C00BB85BB8D072B9DD9FB8D0133FB85FB8DC8
:10281C00042B94D997F84030012B40F24D820023C1
:10282C00FB8545E2FB8D012B03D0FB8D032B40F088
:10283C003C820023BB8534E2FB8D07F1300213444C
:10284C0013F8243C1A46BB8D42FA03F303F0010340
:10285C00002B00F02382FB8D013B07F13002134467
:10286C0013F8243C1A46BB8D42FA03F303F0010320
:10287C00002B40F00381FB8D013B07F13002134428
:10288C0013F8243C1A46BB8D013B42FA03F303F0C8
:10289C000103002B6FD0FB8D07F13002134413F8AA
:1028AC00243C1A46BB8D013B42FA03F303F00103AF
:1028BC00002B60D100237B6258E000237B854CE029
:1028CC0000233B8540E097F840309BB2BA8D02FB69
:1028DC0003F39AB2BB8813449AB23B8D13449AB259
:1028EC007B6A9BB2D31ABB8297F840309BB2FA8DAD
:1028FC0002FB03F39AB2FB8813449AB27B8D134408
:10290C009AB27B6A9BB2D31A7B827A8AB7F944302B
:10291C009A4216DB7A8AB7F948309A4211DCBA8AA5
:10292C00B7F94C309A420CDBBA8AB7F950309A425C
:10293C0007DCB7F91230B7F91410BA781846FFF75C
:10294C0049FE3B8D01333B8597F840309BB23A8D65
:10295C009A42B8D37B8D01337B8597F840309BB27C
:10296C007A8D9A42ACD37B6A01337B6297F8402014
:10297C007B6A9A42A1DCFB8D013B07F130021344C8
:10298C0013F8243C1A46BB8D013342FA03F303F0CF
:10299C000103002B72D0FB8D07F13002134413F8A6
:1029AC00243C1A46BB8D013342FA03F303F00103B6
:1029BC00002B63D100233B625BE000237B854FE05F
:1029CC0000233B8543E000BF5057000897F8403088
:1029DC009BB2BA8D02FB03F39AB2BB8813449AB232
:1029EC003B8D13449AB23B6A9BB21344BB8297F85B
:1029FC0040309BB2FA8D02FB03F39AB2FB8813446E
:102A0C009AB27B8D13449AB23B6A9BB2D31A7B82E7
:102A1C007A8AB7F944309A4216DB7A8AB7F9483089
:102A2C009A4211DCBA8AB7F94C309A420CDBBA8A5A
:102A3C00B7F950309A4207DCB7F91230B7F91410D5
:102A4C00BA781846FFF7C6FD3B8D01333B8597F8E6
:102A5C0040309BB23A8D9A42B8D37B8D01337B8543
:102A6C0097F840309BB27A8D9A42A9D33B6A0133D6
:102A7C003B6297F840203B6A9A429EDCFB8D013307
:102A8C0007F13002134413F8243C1A46BB8D42FA6A
:102A9C0003F303F00103002B40F00081FB8D0133A5
:102AAC0007F13002134413F8243C1A46BB8D013B4A
:102ABC0042FA03F303F00103002B6FD0FB8D07F1F7
:102ACC003002134413F8243C1A46BB8D013B42FAE6
:102ADC0003F303F00103002B60D10023FB6158E0EA
:102AEC0000237B854CE000233B8540E097F8403089
:102AFC009BB2BA8D02FB03F39AB2BB8813449AB211
:102B0C003B8D13449AB2FB699BB2D31ABB8297F8E4
:102B1C0040309BB2FA8D02FB03F39AB2FB8813444C
:102B2C009AB27B8D13449AB2FB699BB213447B829D
:102B3C007A8AB7F944309A4216DB7A8AB7F9483068
:102B4C009A4211DCBA8AB7F94C309A420CDBBA8A39
:102B5C00B7F950309A4207DCB7F91230B7F91410B4
:102B6C00BA781846FFF736FD3B8D01333B8597F855
:102B7C0040309BB23A8D9A42B8D37B8D01337B8522
:102B8C0097F840309BB27A8D9A42ACD3FB690133F3
:102B9C00FB6197F84020FB699A42A1DCFB8D013365
:102BAC0007F13002134413F8243C1A46BB8D013351
:102BBC0042FA03F303F00103002B6FD0FB8D07F1F6
:102BCC003002134413F8243C1A46BB8D013342FAED
:102BDC0003F303F00103002B60D10023BB6158E029
:102BEC0000237B854CE000233B8540E097F8403088
:102BFC009BB2BA8D02FB03F39AB2BB8813449AB210
:102C0C003B8D13449AB2BB699BB21344BB8297F8B9
:102C1C0040309BB2FA8D02FB03F39AB2FB8813444B
:102C2C009AB27B8D13449AB2BB699BB213447B82DC
:102C3C007A8AB7F944309A4216DB7A8AB7F9483067
:102C4C009A4211DCBA8AB7F94C309A420CDBBA8A38
:102C5C00B7F950309A4207DCB7F91230B7F91410B3
:102C6C00BA781846FFF7B6FC3B8D01333B8597F8D5
:102C7C0040309BB23A8D9A42B8D37B8D01337B8521
:102C8C0097F840309BB27A8D9A42ACD3BB69013332
:102C9C00BB6197F84020BB699A42A1DCBB8D013324
:102CAC00BB85BB8D072B7FF6C7ADFB8D0133FB8539
:102CBC00FB8D042B7FF6B6AD00BF3437BD4690BDFF
:102CCC0090B589B006AF0446084611461A4623460D
:102CDC00FB800346BB800B46FB701346BB70BC7875
:102CEC00FA78B7F90410B7F906001F2304930023F0
:102CFC0003937F230293002301933B7E009323468F
:102D0C00FFF7F0FC00BF0C37BD4690BD90B589B005
:102D1C0002AFBA601A460346FB810B46BB811346D1
:102D2C00FB800023FB8220E097F82C309BB2FA8AC0
:102D3C0002FB03F39BB21A46520013445B009AB297
:102D4C00FB8913449BB218B2FB8ABA6813441A78F5
:102D5C0097F82840B7F90C1097F82C3000932346BD
:102D6C00FFF7AEFFFB8A0133FB82FA8AFB889A429B
:102D7C00DAD300BF1C37BD4690BD90B58DB006AF01
:102D8C00BA601A460346FB810B46BB811346FB8097
:102D9C000023FB82FB88002B40D00023BB822CE05D
:102DAC0097F82C309BB2BA8A02FB03F39BB21A46FB
:102DBC00520013445B009AB2FB8913449BB218B2C5
:102DCC00BB8ABA6813441A7897F82840B7F90C10E4
:102DDC00B7F93C300493B7F938300393B7F9343072
:102DEC000293B7F93030019397F82C3000932346B7
:102DFC00FFF778FCBB8A0133BB82BA8AFB889A4204
:102E0C00CED397F82C309BB2FA8802FB03F39BB21B
:102E1C001A46520013445B009BB2FB82B7F9163082
:102E2C0018461C37BD4690BD90B589B000AF04461E
:102E3C00084611461A462346FB800346BB800B46C8
:102E4C00FB701346BB700023FB83FB787B82002353
:102E5C00BB614CE07A8A13469B0013449B001A46D4
:102E6C00BB695B001344254A13441B88FB83002376
:102E7C007B6136E0FB8B03F00103002B2BD0BB698D
:102E8C009AB2FB8813449BB23B827B699AB2BB8893
:102E9C0013449BB2FB81B7F91020B7F934309A4236
:102EAC0019DBB7F91020B7F938309A4213DAB7F9B1
:102EBC000E20B7F93C309A420DDBB7F90E20B7F96A
:102ECC0040309A4207DABA78B7F90E10B7F91030D9
:102EDC001846FFF77FFBFB8B5B08FB837B69013399
:102EEC007B617B690F2BC5DDBB690133BB61BB69A2
:102EFC00092BAFDD00BF2437BD4690BDD05900086B
:102F0C0090B589B006AF0446084611461A462346CA
:102F1C00FB800346BB800B46FB701346BB70BC7832
:102F2C00FA78B7F90410B7F90600202304930023AC
:102F3C00039380230293002301933B7E009323464B
:102F4C00FFF772FF00BF0C37BD4690BD90B589B03E
:102F5C0002AFBA601A460346FB810B46BB8113468F
:102F6C00FB800023FB8220E097F82C309BB2FA8A7E
:102F7C0002FB03F39BB21A46920013445B009AB215
:102F8C00FB8913449BB218B2FB8ABA6813441A78B3
:102F9C0097F82840B7F90C1097F82C30009323467B
:102FAC00FFF7AEFFFB8A0133FB82FA8AFB889A4259
:102FBC00DAD300BF1C37BD4690BD90B58DB006AFBF
:102FCC00BA601A460346FB810B46BB811346FB8055
:102FDC000023FB82FB88002B40D00023BB822CE01B
:102FEC0097F82C309BB2BA8A02FB03F39BB21A46B9
:102FFC00920013445B009AB2FB8913449BB218B243
:10300C00BB8ABA6813441A7897F82840B7F90C10A1
:10301C00B7F93C300493B7F938300393B7F934302F
:10302C000293B7F93030019397F82C300093234674
:10303C00FFF7FAFEBB8A0133BB82BA8AFB889A423D
:10304C00CED397F82C309BB2FA8802FB03F39BB2D9
:10305C001A46920013445B009BB2FB82B7F9163000
:10306C0018461C37BD4690BD80B590B002AFFDF739
:10307C006FF800F0B9F900F03BFB00F01BFB00F01F
:10308C0029FA00F077FA00F0E7FA00F003FA80482A
:10309C00FDF7F1FDFFF71AFA0020FFF73FFA0246A1
:1030AC007C4B1A607C4B1B687B4A1268D26842F4DA
:1030BC008072DA60794B7A4A9A627748FEF71FFA87
:1030CC007848FEF736FA00217648FEF781FA754B00
:1030DC001B684FF4C8525A63734B1B68724A1268D0
:1030EC00D26842F02002DA6000224FF400516F489F
:1030FC00FDF746FD6648FDF7BEFD3B1D6C4A92E8A8
:10310C00030083E803003B1D1846FDF719F803463E
:10311C0099B23A1D01230193012300930B46002120
:10312C000020FFF7F3FD3B1D624A6349184601F08E
:10313C00E3FD3B1D1846FDF703F8034699B23A1D13
:10314C0001230193012300930B4608210020FFF774
:10315C00DDFD3B1D594A5A49184601F0CDFD3B1D7A
:10316C001846FCF7EDFF034699B23A1D0123019373
:10317C00012300930B4610210020FFF7C7FD514B94
:10318C0001221A704FF4FA6001F064FB002387F8F7
:10319C0037300023FB7000233B630023FB620023CA
:1031AC00BB620023FB76002387F8273000233B62A9
:1031BC000023FB830023BB8300233B830023FB8280
:1031CC00FDF71EF80246404B1A603148FDF753FDDF
:1031DC0000F02EFF0346002B07D03B4B1B6842F23E
:1031EC00107213443B630023FB6297F83730002BBB
:1031FC0040F0D780344B1A683B6B9A422BD3FB6A56
:10320C00002B08D1FFF7A2F92E4B01221A704FF4B4
:10321C00FA7001F01FFB2C4B1A68FB6A9A42C0F043
:10322C00C080294B1B6841F288321344FB62102288
:10323C000021264801F057FD10220021244801F0FE
:10324C0052FD0023BB62002387F82730FB1C184675
:10325C0000F05EFEA5E01C4B1A68BB6A9A4249D38B
:10326C00194B1B6842F210721344BB62FB1C1846CC
:10327C0000F0F2FD0346FB76FB7E012B02D100230E
:10328C00BB6237E0FB7E002B24D100233B6331E093
:10329C0030220020FC010020C4260020042700203E
:1032AC00214700084827002060240020001001401E
:1032BC00FC560008045700080C5700081457000867
:1032CC001C570008FB010020080200204E2400209F
:1032DC00B2260020FB7E022B0CD1012387F827306D
:1032EC003C4B1B684FF47A7213443B620023FB8304
:1032FC000023BB8397F82730002B52D0354B1A682C
:10330C003B6A9A424DD3344B1B78DBB2002B48D12D
:10331C00304B1B6819333B623048FCF711FF0346F6
:10332C007B75FFF713F97B7D184600F093FAB7F91C
:10333C001E30184600F08EFBB7F91E30184600F010
:10334C00F9FB03463B83B7F918307F2B05DDB7F942
:10335C001E309BB201339BB2FB83B7F91C3018466D
:10336C0000F054FC0346FB82B7F916307F2B05DDC9
:10337C00B7F91C309BB201339BB2BB83B7F9183041
:10338C00802B0BDCB7F91630802B07DC002387F879
:10339C002730104B1B6803F57A73BB620E4B01226E
:1033AC001A700F4B1B78DBB2012B7FF409AFFFF7C0
:1033BC00CDF8094B01221A70012387F8373001220E
:1033CC004FF400510748FDF7DBFB054B00221A7048
:1033DC00F6E600BF08020020FB0100209A2D002019
:1033EC00040200200010014080B590B000AF09230A
:1033FC00BB614FF48033FB6100233B620123BB6252
:10340C0001233B6302237B634FF48033BB634FF494
:10341C00E013FB6307F118031846FDF73BFC03466A
:10342C00002B04D04FF4D171184801F03FFA0F2350
:10343C007B600223BB600023FB604FF480633B6125
:10344C0000237B613B1D02211846FDF787FE0346D6
:10345C00002B04D04FF4D8710C4801F027FAFDF77B
:10346C00D3FF02460A4BA3FB02239B091846FCF729
:10347C00EEFF0420FCF7F8FF002200214FF0FF3094
:10348C00FCF7BBFF00BF4037BD4680BD245700088A
:10349C00D34D621080B500AF0B4B0C4A1A600A4B2F
:1034AC0004225A60084B40F271229A600648FDF7DC
:1034BC00A9FB0346002B04D04FF4E471044801F03F
:1034CC00F5F900BF80BD00BF302200200030004065
:1034DC002457000880B586B000AF234B234A1A60EE
:1034EC00214B00225A60204B00229A601E4B0B226B
:1034FC00DA601D4B00221A611B4B00225A611A4BD9
:10350C0000229A611848FDF7CFFF0346002B04D028
:10351C0040F2DD11164801F0C9F94FF48053BB603D
:10352C0007F1080319461048FEF748FA0346002B2A
:10353C0004D040F2E3110E4801F0B8F900233B60CF
:10354C0000237B603B4619460748FEF704FE034602
:10355C00002B04D04FF4F571054801F0A7F900BF1A
:10356C001837BD4680BD00BFC4260020002C01408A
:10357C002457000880B58EB000AF354B4FF0804219
:10358C001A60334B00225A60314B00229A60304B48
:10359C0041F63F72DA602E4B00221A612C4B00224E
:1035AC009A612B48FDF780FF0346002B04D040F2B4
:1035BC00FF11284801F07AF94FF48053BB6207F1F0
:1035CC00280319462248FEF7F9F90346002B04D0CC
:1035DC0040F205211F4801F069F91D48FDF7C3FFB2
:1035EC000346002B04D040F20A211A4801F05EF980
:1035FC0020233B6200237B6207F120031946144809
:10360C00FEF7A9FD0346002B04D040F2112111480E
:10361C0001F04CF960237B604FF4FA53BB6000233C
:10362C00FB6004237B613B1D002219460848FEF712
:10363C00FFF80346002B04D040F21A21054801F094
:10364C0035F9034801F0FCF900BF3837BD4680BDA1
:10365C00482700202457000880B500AF124B134AAE
:10366C001A60114B4FF416425A600F4B00229A60AD
:10367C000D4B0022DA600C4B00221A610A4B04221B
:10368C005A61094B00229A61074B0022DA61064805
:10369C00FEF7B7FD0346002B04D040F22F2104485F
:1036AC0001F004F900BF80BD602400200038014007
:1036BC002457000880B582B000AF0C4A0B4B5B69F5
:1036CC0043F001035361094B5B6903F001037B6019
:1036DC007B68002200210F20FCF78FFE0F20FCF7E7
:1036EC00A8FE00BF0837BD4680BD00BF00100240D9
:1036FC0080B588B000AF524A514B9B6943F0100320
:10370C0093614F4B9B6903F01003FB60FB684C4AC1
:10371C004B4B9B6943F020039361494B9B6903F02E
:10372C002003BB60BB68464A454B9B6943F00403CE
:10373C009361434B9B6903F004037B607B68404AB5
:10374C003F4B9B6943F0080393613D4B9B6903F02E
:10375C0008033B603B6801224FF400513948FDF7E8
:10376C000FFA0022BF213848FDF70AFA00221F2168
:10377C003648FDF705FA4FF400533B6101237B619A
:10378C000023BB610323FB6107F1100319462D488D
:10379C00FDF798F84FF480433B612D4B7B6101237F
:1037AC00BB6107F1100319462648FDF78BF84FF45F
:1037BC0000433B6103237B6107F110031946214849
:1037CC00FDF780F8BF233B6101237B610023BB61C4
:1037DC000323FB6107F1100319461B48FDF772F830
:1037EC004FF4CA533B6103237B6107F11003194665
:1037FC001548FDF767F81F233B6101237B6100230C
:10380C00BB610323FB6107F1100319460F48FDF759
:10381C0059F84FF6E0733B6103237B6107F110030A
:10382C0019460A48FDF74EF8002200212820FCF723
:10383C00E4FD2820FCF7FDFD00BF2037BD4680BD10
:10384C00001002400010014000080140000C014033
:10385C000000211080B584B002AF0346FB71FB79E8
:10386C00012B0DD1784B93F81222042300930123E2
:10387C0002210020FFF724FA744B16221A80DFE095
:10388C00FB79022B0DD10323019301230093022317
:10389C006F4A04210020FFF739FA6C4B24221A805E
:1038AC00CEE0FB79032B21D1674B93F81222022334
:1038BC000093012300210020FFF702FA624B93F8DA
:1038CC00132202230093012300210C20FFF7F8F9A7
:1038DC005D4B93F814220223009301231021062040
:1038EC00FFF7EEF9594B1A221A80A9E0FB79042B49
:1038FC002BD1554B93F81222022300930123002164
:10390C000020FFF7DDF9504B93F8132202230093AC
:10391C00012300210C20FFF7D3F94B4B93F8142211
:10392C0002230093012300211820FFF7C9F9464B0D
:10393C0093F8152202230093012310210C20FFF78A
:10394C00BFF9424B26221A807AE0FB79052B35D140
:10395C003D4B93F8122202230093012300210020F7
:10396C00FFF7AEF9384B93F813220223009301238F
:10397C0000210C20FFF7A4F9334B93F814220223F7
:10398C000093012300211820FFF79AF92E4B93F88E
:10399C00152202230093012310210620FFF790F932
:1039AC00294B93F816220223009301231021122095
:1039BC00FFF786F9254B26221A8041E0FB79062B6E
:1039CC003ED1214B93F812220223009301230021B4
:1039DC000020FFF775F91C4B93F813220223009378
:1039EC00012300210C20FFF76BF9174B93F81422DD
:1039FC0002230093012300211820FFF761F9124BD9
:103A0C0093F8152202230093012310210020FFF7C5
:103A1C0057F90D4B93F81622022300930123102122
:103A2C000C20FFF74DF9084B93F817220223009353
:103A3C00012310211820FFF743F9044B26221A808A
:103A4C0000BF0837BD4680BD882B00200C0200202B
:103A5C009A2D002080B58AB006AF0346FB80314812
:103A6C00FCF76EFB0346FB732F4BB3F900309AB295
:103A7C00FB88D31A9BB2BB81FB7B002B49D02B4B11
:103A8C001B78002B22D1FB7B99B2274BB3F900306A
:103A9C00B7F90C00102205920022049280220392A6
:103AAC00029302230193012300930B461D4A00212C
:103ABC00FFF763F903469AB21B4BB3F900309BB284
:103ACC0013449BB21AB21A4B1A8027E0FB7B99B2B3
:103ADC00154BB3F90030B7F90C00102205920022F7
:103AEC0004928022039202930123019301230093F9
:103AFC000B460C4A0021FFF760FA03469AB20A4BB8
:103B0C00B3F900309BB213449BB21AB2084B1A8023
:103B1C0004E0054BB3F90020054B1A8000BF1037A9
:103B2C00BD4680BD892B00200C020020882B002074
:103B3C000E02002080B58AB006AF0346FB802F48EA
:103B4C00FCF7FEFA0346BB812D4BB3F900309AB259
:103B5C00FB88D31A9BB27B818023FB81BB89002B12
:103B6C0046D0284B1B78002B20D1274BB3F90030C3
:103B7C00B989B7F90A00102205920022049280221A
:103B8C000392029302230193012300930B461B4AD9
:103B9C000021FFF7F2F8BB891A46520013449B0030
:103BAC009AB27B8913449BB2FB8121E0164BB3F98B
:103BBC000030B989B7F90A0010220592002204924C
:103BCC0080220392029301230193012300930B465D
:103BDC000A4A0021FFF7F1F9BB891A4692001344F7
:103BEC005B009AB27B8913449BB202339BB2FB817C
:103BFC00B7F90E3018461037BD4680BD992B002002
:103C0C000E020020882B00200C02002080B58AB008
:103C1C0006AF0346FB800023FB8180237B81784821
:103C2C00FCF78EFA03463B81B7F90830002B40F3C2
:103C3C00E180744B1B78002B6CD1734BB3F90030C3
:103C4C009AB2FB88D31A9BB2FB816E4B93F811315D
:103C5C00002B1CD16D48FCF773FA034699B26A4BE2
:103C6C00B3F90030B7F90E0020220592102204920D
:103C7C0080220392029302230193012300930B46AB
:103C8C00624A1021FFF779F80346BB811BE06048BC
:103C9C00FCF756FA034699B25B4BB3F90030B7F90F
:103CAC000E0020220592102204928022039202938D
:103CBC0002230193012300930B46554A1021FFF771
:103CCC005CF80346BB81FA89BB8913449BB2FB8128
:103CDC004B48FCF735FA034699B24B4BB3F900301D
:103CEC00B7F90E0020220592102204928022039232
:103CFC00029302230193012300930B46404A1021A7
:103D0C00FFF73BF80346BB81FA89BB8913449BB28E
:103D1C00FB816DE03C4BB3F900309AB2FB88D31AAF
:103D2C009BB2FB81374B93F81131002B1CD13948D6
:103D3C00FCF706FA034699B2334BB3F90030B7F9E6
:103D4C000E002022059210220492802203920293EC
:103D5C0001230193012300930B462E4A1021FFF7F8
:103D6C002CF90346BB811BE02B48FCF7E9F9034611
:103D7C0099B2254BB3F90030B7F90E002022059209
:103D8C0010220492802203920293022301930123B6
:103D9C0000930B46204A1021FFF70FF90346BB8115
:103DAC00FA89BB8913449BB2FB811548FCF7C8F90F
:103DBC00034699B2144BB3F90030B7F90E00202228
:103DCC000592102204928022039202930223019303
:103DDC00012300930B460A4A1021FFF7EEF8034625
:103DEC00BB81BA89FB8913449BB202339BB2FB8122
:103DFC00FB897B81B7F90A3018461037BD4680BD68
:103E0C00192C0020882B00200C020020686200086E
:103E1C0088620008586200087862000880B582B099
:103E2C0000AF0346FB71FEF791FBFB791846FFF7D9
:103E3C0011FD0020FFF70EFE0020FFF77BFE002097
:103E4C00FFF7E4FE034B01221A7000BF0837BD4692
:103E5C0080BD00BFFB01002080B584B000AF78604E
:103E6C000023BB7300237B730023FB737B681B78DD
:103E7C003B733B7B002B0CD01F4A204B1046194642
:103E8C0040F223231A4600F023FF7B6800221A70AD
:103E9C000BE0194A1A4B1046194640F223231A46D6
:103EAC0000F016FF7B6801221A701648FCF748F9DF
:103EBC0003467B737B7B002B14D13B7B002B05D102
:103ECC001148FCF73DF90346FB7304E00F48FCF77F
:103EDC0037F90346FB73FB7B002B01D1002306E073
:103EEC00012304E07B7B1846FFF798FF022318465A
:103EFC001037BD4680BD00BF882B0020A0240020B9
:103F0C003C2200209A2D0020B22600204E240020B6
:103F1C0090B587B002AF78607B681B78FB73002389
:103F2C00BB81FEF713FBFB7B002B1DD00423BB8155
:103F3C00B7F90C0002230193012300930A23224AB0
:103F4C000021FEF7E3FEBB890C339BB218B20223AF
:103F5C0001930123009308231C4A1021FEF7D6FE7F
:103F6C007B6800221A7027E01823BB811848FCF7E5
:103F7C00E7F803469AB2B7F90C0001230193012329
:103F8C0000931346124A0021FEF7E0FFBB890A3367
:103F9C009BB21CB20F48FCF7D3F803469AB201232C
:103FAC0001930123009313460A4A10212046FEF781
:103FBC00CDFF7B6801221A70074B01221A7000BFDB
:103FCC001437BD4690BD00BF186200082862000877
:103FDC003862000848620008FB01002080B485B0FC
:103FEC0000AF0346FB710023FB73FB792F2B06D923
:103FFC00FB79392B03D8FB79303BFB7312E0FB794F
:10400C00602B06D9FB79662B03D8FB79573BFB73E6
:10401C0008E0FB79402B05D9FB79462B02D8FB79BC
:10402C00373BFB73FB7B18461437BD4680BC70478F
:10403C0080B5ADF5CA6D00AF002387F84F3600236D
:10404C0087F83F36002387F84E360023A7F83C3616
:10405C000023A7F83A360023A7F84636D14B1B7835
:10406C00DBB2012B40F04B8207F50E73CE4A18469B
:10407C0011464FF480631A4600F02AFEC94B002209
:10408C001A7007F50E731846FCF75AF80346A7F892
:10409C003C360123C7F840361CE007F50E72D7F802
:1040AC00403613441B782A2B04D1D7F84036A7F896
:1040BC00463615E007F50E72D7F8403613441A78D9
:1040CC0097F84E36534087F84E36D7F840360133C2
:1040DC00C7F84036B7F83C26D7F840369A42DCDCB5
:1040EC00B7F84636013307F50E72D35C1846FFF766
:1040FC0075FF03461B0187F83F36B7F84636023387
:10410C0007F50E72D35C1846FFF768FF03461A4694
:10411C0097F83F36134387F83F3697F84E2697F8B3
:10412C003F369A4240F0EB81012387F84F3600234B
:10413C00C7F84036D7F840369BB20133A7F846365D
:10414C0007F50A7310220021184600F0CCFD07F584
:10415C000A73C7F84836B7F84636C7F8403618E041
:10416C0007F50E72D7F8403613441B782C2B17D05A
:10417C00D7F848365A1CC7F8482607F50E71D7F8F9
:10418C0040260A4412781A70D7F840360133C7F823
:10419C004036B7F83C26D7F840369A42E0DC00E0CF
:1041AC0000BF07F50A73184600F069FD0346A7F82F
:1041BC003A36B7F83A36DBB203F00103DAB23B1DFC
:1041CC001A70D7F840369BB20133A7F846363B1D20
:1041DC0003F2122310220021184600F084FD3B1D2F
:1041EC0003F21223C7F84836B7F84636C7F84036FC
:1041FC0018E007F50E72D7F8403613441B782C2BB9
:10420C0017D0D7F848365A1CC7F8482607F50E7150
:10421C00D7F840260A4412781A70D7F84036013382
:10422C00C7F84036B7F83C26D7F840369A42E0DC5F
:10423C0000E000BFD7F840369BB20133A7F84636F2
:10424C003B1D013310220021184600F04CFD3B1D94
:10425C000133C7F84836B7F84636C7F8403618E089
:10426C0007F50E72D7F8403613441B782C2B17D059
:10427C00D7F848365A1CC7F8482607F50E71D7F8F8
:10428C0040260A4412781A70D7F840360133C7F822
:10429C004036B7F83C26D7F840369A42E0DC00E0CE
:1042AC0000BFD7F840369BB20133A7F846363B1D0A
:1042BC00113380220021184600F015FD3B1D1133EF
:1042CC00C7F84836B7F84636C7F8403618E007F551
:1042DC000E72D7F8403613441B782C2B17D0D7F816
:1042EC0048365A1CC7F8482607F50E71D7F84026F1
:1042FC000A4412781A70D7F840360133C7F84036A2
:10430C00B7F83C26D7F840369A42E0DC00E000BF14
:10431C00D7F840369BB20133A7F846363B1D913394
:10432C0080220021184600F0DEFC3B1D9133C7F8BB
:10433C004836B7F84636C7F8403618E007F50E721F
:10434C00D7F8403613441B782C2B17D0D7F84836A7
:10435C005A1CC7F8482607F50E71D7F840260A44B0
:10436C0012781A70D7F840360133C7F84036B7F8D0
:10437C003C26D7F840369A42E0DC00E000BFD7F884
:10438C0040369BB20133A7F84636B7F8463607F5E8
:10439C000E72D35C302B09D13B1D002283F8112106
:1043AC000FE000BFF901002088270020B7F846363F
:1043BC0007F50E72D35C312B03D13B1D012283F820
:1043CC001121B7F846360133C7F84036D7F84036D6
:1043DC009BB20133A7F846363B1D03F58973802247
:1043EC000021184600F07FFC3B1D03F58973C7F8CC
:1043FC004836B7F84636C7F8403618E007F50E725F
:10440C00D7F8403613441B782C2B17D0D7F84836E6
:10441C005A1CC7F8482607F50E71D7F840260A44EF
:10442C0012781A70D7F840360133C7F84036B7F80F
:10443C003C26D7F840369A42E0DC00E000BFD7F8C3
:10444C0040369BB20133A7F846363B1D03F5C973C2
:10445C0080220021184600F046FC3B1D03F5C97371
:10446C00C7F84836B7F84636C7F8403618E007F5AF
:10447C000E72D7F8403613441B782A2B17D0D7F876
:10448C0048365A1CC7F8482607F50E71D7F840264F
:10449C000A4412781A70D7F840360133C7F8403600
:1044AC00B7F83C26D7F840369A42E0DC00E000BF73
:1044BC003B1D012283F82222B7F83A3603F00103A0
:1044CC009BB2002B0DD03B1D184600F0E9F80F4AAB
:1044DC003B1D1046194640F223231A4600F0F8FB08
:1044EC0008E00B4A3B1D1046194640F223231A469E
:1044FC0000F0EEFB4FF400510648FCF759FB97F81F
:10450C004F36184607F5CA67BD4680BDA02400206B
:10451C003C2200200010014080B5ACB000AF7860A8
:10452C000B467B800023A7F8A2300023A7F8AE30FF
:10453C000023A7F8AC307B68C7F89C307868FBF791
:10454C00FFFD0346A7F8A23007F1180380220021D3
:10455C00184600F0C8FB07F108031022002118468A
:10456C0000F0C1FB0023A7F8AE300023C7F8A4303D
:10457C0084E0D7F8A430D7F89C2013441B783A2B4E
:10458C0006D0B7F8A2305A1ED7F8A4309A425FD1A1
:10459C00B7F8A2305A1ED7F8A4309A4210D1B7F807
:1045AC00AE305A1CA7F8AE201946D7F8A430D7F86D
:1045BC009C2013441A7807F1B0030B4403F8A82C81
:1045CC0007F108031846FBF7BBFD034687F89B3041
:1045DC0097F89B30002B30D0002387F8AB3097F83E
:1045EC009B30012B16D93B7A1846FFF7F7FC034694
:1045FC001A46920013445B0087F8AB307B7A18465E
:10460C00FFF7ECFC03461A4697F8AB30134487F8D7
:10461C00AB3006E03B7A1846FFF7E0FC034687F820
:10462C00AB30B7F8AC305A1CA7F8AC2007F1B0028D
:10463C00134497F8AB2003F8982C07F108031022C9
:10464C000021184600F04FFB0023A7F8AE3010E015
:10465C00B7F8AE305A1CA7F8AE201946D7F8A430DC
:10466C00D7F89C2013441A7807F1B0030B4403F8D5
:10467C00A82CD7F8A4300133C7F8A430B7F8A2207F
:10468C00D7F8A4309A423FF774AF7A8807F1180331
:10469C001946786800F01CFB00BFB037BD4680BDE2
:1046AC0080B582B000AF78607B680133102118466A
:1046BC00FFF732FF7B68113380211846FFF72CFF80
:1046CC007B68913380211846FFF726FF7B6803F542
:1046DC00897380211846FFF71FFF7B6803F5C973A8
:1046EC0080211846FFF718FF00BF0837BD4680BD74
:1046FC0080B500AF044B19684FF48073034A04482B
:10470C00FBF740FF00BF80BDFC0100200C080140FE
:10471C000427002080B582B000AF7860144B4FF4B2
:10472C007F021A61134B1B680133124A13600F2B63
:10473C000CD9104B00221A600F4B1B78DBB2002BEC
:10474C0004D0FDF7D7FE0C4B00221A70094B1B68E6
:10475C00DBB21846FDF7E2FE0246084B1A60084B26
:10476C004FF480121A6100BF0837BD4680BD00BFF0
:10477C000008014000020020FB010020FC01002089
:10478C00000C014080B582B000AF7860054A064B42
:10479C001B6843F01003D360FFF7AAFF00BF083774
:1047AC00BD4680BD000C01400002002080B582B0E7
:1047BC0000AF0346FB80FB88B3F5804F07D1064B57
:1047CC0001221A704FF400510448FCF7F1F900BFB4
:1047DC000837BD4680BD00BF040200200010014018
:1047EC0080B582B000AF174B1B681B687B607B6881
:1047FC0003F02003002B21D0124B1B685B68FB706D
:10480C00FB78242B09D14FF4806200210E4800F074
:10481C006AFA0E4B00221A7005E0FB780A2B02D1C3
:10482C000B4B01221A70094B1B78DBB25A1CD1B20C
:10483C00064A11701946044AFB78535400BF0837D6
:10484C00BD4680BD6024002088270020FA0100208E
:10485C00F901002080B584B000AF78606423FB6060
:10486C001148FCF708FA7A68FB689A420DD8786808
:10487C00FBF7D0FC10E0F868FBF7CCFC0A48FCF71F
:10488C00FAF97A68FB68D31A7B607A68FB689A42FB
:10489C00F1D87868FBF7BEFC0348FCF7ECF900BFD5
:1048AC001037BD4680BD00BF3022002080B483B0DD
:1048BC0000AF78603960FEE780B584B000AF2B4A5A
:1048CC002A4B9B6943F001039361284B9B6903F0CE
:1048DC000103BB60BB68254A244BDB6943F0805362
:1048EC00D361224BDB6903F080537B607B68032030
:1048FC00FBF778FD002200216FF00B00FBF77DFD2C
:10490C00002200216FF00A00FBF777FD0022002146
:10491C006FF00900FBF771FD002200216FF004001D
:10492C00FBF76BFD002200216FF00300FBF765FD28
:10493C00002200216FF00100FBF75FFD0022002137
:10494C004FF0FF30FBF759FD094B5B68FB60FB68D0
:10495C0023F0E063FB60FB6843F00073FB60044AE8
:10496C00FB68536000BF1037BD4680BD001002408D
:10497C000000014080B584B000AF78607B681B6894
:10498C002A4A934235D12A4A294B9B6943F4006346
:10499C009361274B9B6903F40063FB60FB68254B19
:1049AC00254A1A60234B10225A60224B00229A602F
:1049BC00204B8022DA601F4B00221A611D4B002213
:1049CC005A611C4B00229A611A4B4FF40052DA6167
:1049DC001848FBF771FD0346002B03D06E211748D6
:1049EC00FFF764FF7B68134A1A62124A7B685362B2
:1049FC0018E07B681B68B3F1804F13D10C4A0C4B49
:104A0C00DB6943F00103D361094BDB6903F001035C
:104A1C00BB60BB68002200211C20FBF7EEFC1C20B5
:104A2C00FBF707FD00BF1037BD4680BD002C0140D1
:104A3C0000100240042700205800024034570008A0
:104A4C0080B588B000AF78607B681B68B3F1804F8D
:104A5C001ED14FF40043FB6002233B610323BB6177
:104A6C0007F10C0319460C48FBF72CFF0B4B5B684A
:104A7C00FB61FB6923F44073FB61FB6943F0E0636A
:104A8C00FB61FB6943F48073FB61044AFB6953606F
:104A9C0000BF2037BD4680BD00080140000001402A
:104AAC0080B588B000AF78607B681B681A4A934267
:104ABC002DD11A4A194B9B6943F480439361174BD0
:104ACC009B6903F48043FB60FB684FF400733B610C
:104ADC0002237B610323FB6107F110031946104885
:104AEC00FBF7F0FE4FF480633B6100237B610023F6
:104AFC00BB6107F1100319460948FBF7E3FE0022DE
:104B0C0000212520FBF779FC2520FBF792FC00BF48
:104B1C002037BD4680BD00BF003801400010024068
:104B2C000008014080B400AF00BFBD4680BC704798
:104B3C0080B400AFFEE780B400AFFEE780B400AFF6
:104B4C00FEE780B400AFFEE780B400AF00BFBD4607
:104B5C0080BC704780B400AF00BFBD4680BC7047BE
:104B6C0080B400AF00BFBD4680BC704780B500AFBD
:104B7C00FBF734FBFBF794FC00BF80BD80B500AFA6
:104B8C00044B4FF47F021A610348FBF75BFD00BF37
:104B9C0080BD00BF000801400427002080B500AF95
:104BAC000248FCF73DFD00BF80BD00BF4827002038
:104BBC0080B500AFFFF714FE00BF80BD80B500AF1D
:104BCC004FF48040FCF706F800BF80BD80B400AF06
:104BDC00154A154B1B6843F0010313601249124B25
:104BEC005A68124B13404B600F4A0F4B1B6823F053
:104BFC00847323F4803313600B4A0B4B1B6823F430
:104C0C0080231360084A084B5B6823F4FE0353604F
:104C1C00054B4FF41F029A60054B4FF000629A60EF
:104C2C0000BFBD4680BC7047001002400000FFF87A
:104C3C0000ED00E0002103E00B4B5B5843500431C6
:104C4C000A480B4B42189A42F6D30A4A02E0002358
:104C5C0042F8043B084B9A42F9D3FFF7B7FF00F038
:104C6C0013F8FEF701FA7047F86300080000002003
:104C7C00DC010020DC010020B02D0020FEE70A2220
:104C8C00002100F0DDB8000070B500250C4E0D4C75
:104C9C00A41BA410A54209D100F014FD00250A4E56
:104CAC000A4CA41BA410A54205D170BD56F82530A2
:104CBC0098470135EEE756F8253098470135F2E76D
:104CCC00F0630008F0630008F0630008F463000868
:104CDC0010B5431E0A44914200D110BD11F8014B8E
:104CEC0003F8014FF7E703460244934200D17047A3
:104CFC0003F8011BF9E700000EB44FF4027100B584
:104D0C009CB0ADF814106FF00041049107914FF670
:104D1C00FF711DAB02900690084853F8042BADF8B8
:104D2C001610006802A9019300F010F90022029BF2
:104D3C001A701CB05DF804EB03B070470C00002037
:104D4C002DE9F84F8046894692461F468B465D46B4
:104D5C000A9815F8014B00F089F82044467816F0B3
:104D6C0008060BD12D2C0BD101262C780BF102054A
:104D7C0067B1102F14D1302C0AD011E0AB46E6E706
:104D8C002B2C04BF2C780BF10205F1E7302C27D12A
:104D9C002B7803F0DF03582B4BD110276C7802359E
:104DAC00002E0CBF6FF000414FF000410022B1FB10
:104DBC00F7FE104607FB1E1CA4F13003092B11D87B
:104DCC001C46A7421DDD531C07D0864516D301D1C6
:104DDC00A44513DB012200FB074015F8014BEBE760
:104DEC000A27DDE7A4F14103192B01D8373CE8E78A
:104DFC00A4F16103192B04D8573CE2E74FF0FF32C2
:104E0C00EBE7531C08D122230846C8F80030BAF14E
:104E1C00000F07D1BDE8F88F06B14042BAF1000F80
:104E2C000CD022B1013DCAF80050BDE8F88F4D46B8
:104E3C00F9E73024002FB3D10827B1E7BDE8F88F8C
:104E4C00084B37B51C68084D236A002B08BF2B464E
:104E5C00009313460A4601462046FFF771FF03B044
:104E6C0030BD00BF0C00002070000020D0F8EC001A
:104E7C00704782B001B901A942B14BB113780B60F4
:104E8C001278101C18BF012002B070471046FBE7C7
:104E9C006FF00100F8E72DE9F0478E6882469E42DC
:104EAC000C469146984635D88A8912F4906F31D0C9
:104EBC000223256809696F1A656905EB450595FBA1
:104ECC00F3F508F101033B449D4238BF1D465305E1
:104EDC0031D5294600F048FB064650B90C23CAF8D8
:104EEC000030A3894FF0FF3043F04003A381BDE8AD
:104EFC00F0873A462169FFF7EBFEA38923F4906310
:104F0C0043F08003A38126613E44266046466561DA
:104F1C00ED1BA560464528BF4646494632462068EB
:104F2C0000F0BBFAA36800209B1BA36023681E44FF
:104F3C002660BDE8F0872A4600F074FB0646002880
:104F4C00E1D12169504600F0C3FAC7E72DE9F04FD3
:104F5C009DB003938B8980461C060D4616460FD5D3
:104F6C000B696BB9402100F0FFFA2860286128B961
:104F7C000C23C8F800304FF0FF30C4E040236B61C5
:104F8C000023099320238DF8293030234FF0010B97
:104F9C008DF82A3037463C4614F8013B002B3CD1A7
:104FAC00B7EB060A0BD05346324629464046FFF76C
:104FBC0072FF013000F0A280099B534409933B78A7
:104FCC00002B00F09B8000234FF0FF3204930793DB
:104FDC00059206938DF853301A9305222178504888
:104FEC0000F04DFA671C049BD8B9D90644BF2022A7
:104FFC008DF853201A0744BF2B228DF853202278AA
:10500C002A2A16D000210A20079A27463B78013419
:10501C00303B092B50D9C9B111E0252BC0D0274604
:10502C00B9E73F4A3C46801A0BFA00F0184304904B
:10503C00D3E7039A111D12680391002A01DB079232
:10504C0004E0524243F00203079204933B782E2B68
:10505C000DD17B78791C2A2B32D1039B02371A1D78
:10506C001B680392002BB8BF4FF0FF3305932D4CF8
:10507C0003223978204600F002FA38B14023001B95
:10508C0003FA00F0049B013703430493397806229A
:10509C0025487E1C8DF8281000F0F1F9002835D039
:1050AC00224BFBB9039B073323F00703083303930D
:1050BC00099B4B4409936DE700FB02320121A4E7E5
:1050CC0000230A24184605930F463A780131303AEA
:1050DC00092A03D9002BCAD00590C8E704FB00208D
:1050EC000123F1E703AB00932A46114B04A9404678
:1050FC00AFF30080B0F1FF3F8146D9D1AB895B069D
:10510C003FF539AF09981DB0BDE8F08F03AB0093A4
:10511C002A46074B04A9404600F084F8EAE700BF92
:10512C00BA620008C0620008C462000800000000F7
:10513C00A34E00082DE9F04791461F468A680B697B
:10514C0006469342B8BF1346C9F8003091F8432085
:10515C000C46DDF8208012B10133C9F80030236809
:10516C00990642BFD9F800300233C9F800302568DF
:10517C0015F0060507D104F1190AE368D9F80020E7
:10518C009B1A9D422ADB94F843302268003318BFE7
:10519C00012392062FD404F1430239463046C0470E
:1051AC00013022D02368E56803F00603042B18BFF6
:1051BC000025D9F800204FF0000908BFAD1AA368EC
:1051CC00226908BF25EAE5759342C4BF9B1AED1806
:1051DC001A344D451BD10020BDE8F08701235246FF
:1051EC0039463046C047013003D14FF0FF30BDE89F
:1051FC00F0870135C1E73020E11881F843005A1CD3
:10520C0094F845102244023382F84310C3E701237B
:10521C00224639463046C0470130E6D009F1010933
:10522C00D7E700002DE9F04317460A7E85B06E2AB9
:10523C00984606460C460C9B01F1430E00F0BC80D0
:10524C001AD8632A2ED00AD8002A00F0C880582A0F
:10525C0000F08A8004F1420584F842202AE0642A96
:10526C0001D0692AF6D121681A6811F0800F23D079
:10527C00111D1960136827E0732A00F0B48008D858
:10528C006F2A2AD0702AE5D10A6842F020020A60FF
:10529C0003E0752A21D0782ADCD178226F4984F872
:1052AC00452064E01A6801F14205111D196013686C
:1052BC0084F842300123A3E011F0400F02F1040105
:1052CC001960D7D0B2F90030002B03DA2D225B42E3
:1052DC0084F8432062490A2217E02068196810F00C
:1052EC00800F03D0081D18600B6806E010F0400F0B
:1052FC0001F104001860F7D00B886F2A14BF0A2242
:10530C0008225749002084F843006568002DA560E9
:10531C00C0F29C80206820F004002060002B3FD15C
:10532C00002D40F095807546082A0BD12368DA07CA
:10533C0008D5236962689A42DEBF302305F8013C28
:10534C0005F1FF35AEEB05032361CDF800803B463C
:10535C0003AA21463046FFF7EDFE013055D14FF040
:10536C00FF3005B0BDE8F08381F845203C49226848
:10537C00186812F0800F00F104051D6001D003685D
:10538C0002E05506FBD50388D00744BF42F020024B
:10539C0022601BB9226822F0200222601022B1E7A1
:1053AC007546B3FBF2F002FB1033CB5C05F8013D04
:1053BC0003460028F5D1B7E708681A6810F0800F8B
:1053CC00496904D0101D18601368196007E010F0CB
:1053DC00400F02F1040018601368F6D01980002306
:1053EC0075462361B1E71A68111D19601568002113
:1053FC006268284600F043F808B1401B606063689F
:10540C002361002384F843309FE723692A463946F9
:10541C003046C0470130A2D023689B0707D5002532
:10542C0004F11909E368039A9B1A9D4205DBE068B5
:10543C00039B9842B8BF184693E701234A46394666
:10544C003046C04701308AD00135EBE7002BA7D19D
:10545C000B7804F1420584F8423065E7DC62000801
:10546C00CB62000849B1FF2A8BBF8A230A70036004
:10547C00012088BF4FF0FF3070470846704710B5C9
:10548C00C9B202449042034601D1002010BD1C78E1
:10549C0001308C42F6D1184610BD884210B501EB94
:1054AC00020303D8421E99420CD110BD9842F9D286
:1054BC008118D21AD34200D110BD13F8014D01F856
:1054CC00014DF7E711F8014B02F8014FEBE7000033
:1054DC0038B50546002943D051F8043C0C1F002B6D
:1054EC00B8BFE41800F0D4F81E4A1368104633B95C
:1054FC00636014602846BDE8384000F0CAB8A34287
:10550C000BD921686218934201BF1A685B68521864
:10551C00226063600460EDE713465A680AB1A24248
:10552C00FAD919685818A0420BD1206801445818B0
:10553C0082421960DED110685268014419605A60C9
:10554C00D8E702D90C232B60D4E7206821188A42B3
:10555C0001BF116852680918216062605C60C9E77C
:10556C0038BD00BF1002002070B5CD1C25F003051E
:10557C0008350C2D38BF0C25002D064601DBA94241
:10558C0003D90C233360002070BD00F081F8234A4E
:10559C001468214691B9224C23681BB9304600F09F
:1055AC0067F820602946304600F062F8431C26D18B
:1055BC000C233046336000F06CF8E4E70B685B1B9F
:1055CC001AD40B2B0FD90B60CC18CD50304600F0F1
:1055DC0060F804F10B00231D20F00700C31A1BD048
:1055EC005A42E25070BD8C420BBF63684B6813602B
:1055FC00636018BF0C46E9E70C464968CAE7C41C4F
:10560C0024F00304A04205D0211A304600F030F8F3
:10561C000130CDD02560D9E770BD00BF100200204D
:10562C0014020020F8B5074614460E4621B911465F
:10563C00BDE8F840FFF798BF22B9FFF749FF2546B0
:10564C002846F8BD00F026F884420FD9214638468A
:10565C00FFF78AFF05460028F2D031462246FFF7B5
:10566C0037FB31463846FFF733FFE9E73546E7E7C6
:10567C0038B50023054C05460846236000F014F8A5
:10568C00431C02D1236803B12B6038BDAC2D002024
:10569C007047704751F8040C0028A0F10400BCBFFF
:1056AC000B58C01870470000044B0246196809B922
:1056BC0003491960186802441A60704718020020E8
:1056CC00B02D0020F8B500BFF8BC08BC9E46704752
:0C56DC00F8B500BFF8BC08BC9E46704743
:1056E80002030405060708090A0B0C0D0E0F10101B
:1056F80001020000526573706174690076312E31C1
:105708002E300000683A25730000000076312E33F1
:105718002E366200733A2573000000002E2E5C536B
:1057280072635C6D61696E2E630000002E2E5C53FF
:1057380072635C73746D3332663178785F68616C5C
:105748005F6D73702E63000000000000003E5B4F29
:105758005B3E3E6B4F6B3E1C3E7C3E1C183C7E3CC9
:10576800181C577D571C1C5E7F5E1C00183C1800D7
:10577800FFE7C3E7FF0018241800FFE7DBE7FF3067
:10578800483A060E2629792926407F050507407FD5
:1057980005253F5A3CE73C5A7F3E1C1C08081C1C48
:1057A8003E7F14227F22145F5F005F5F06097F013E
:1057B8007F006689956A606060606094A2FFA29429
:1057C80008047E040810207E201008082A1C0808F7
:1057D8001C2A08081E101010100C1E0C1E0C303845
:1057E8003E3830060E3E0E06000000000000005F46
:1057F80000000007000700147F147F14242A7F2A62
:105808001223130864623649562050000807030023
:10581800001C2241000041221C002A1C7F1C2A086F
:10582800083E0808008070300008080808080000D2
:1058380060600020100804023E5149453E00427F46
:10584800400072494949462141494D331814127F95
:105858001027454545393C4A494931412111090735
:105868003649494936464949291E000014000000B6
:105878004034000000081422411414141414004188
:1058880022140802015909063E415D594E7C121145
:10589800127C7F494949363E414141227F4141417D
:1058A8003E7F494949417F090909013E41415173F8
:1058B8007F0808087F00417F41002040413F017F69
:1058C800081422417F404040407F021C027F7F0431
:1058D80008107F3E4141413E7F090909063E41517A
:1058E800215E7F09192946264949493203017F016A
:1058F800033F4040403F1F2040201F3F4038403F6B
:10590800631408146303047804036159494D430080
:105918007F4141410204081020004141417F0402B7
:10592800010204404040404000030708002054544E
:1059380078407F284444383844444428384444282C
:105948007F385454541800087E090218A4A49C787F
:105958007F0804047800447D40002040403D007FDB
:105968001028440000417F40007C047804787C08BB
:105978000404783844444438FC182424181824248F
:1059880018FC7C08040408485454542404043F4474
:10599800243C4040207C1C2040201C3C4030403CA3
:1059A80044281028444C9090907C4464544C440003
:1059B800083641000000770000004136080008045E
:1059C8000810083C2623263C0000000000000000C8
:1059D8000000000000000000000000008400040136
:1059E800240214021401E4060418FC7F04000400D5
:1059F8000401040244022402C4050418FC7F0400C4
:105A0800FC7F040004000404650C150C1D1215121B
:105A18001521E7200440040004000404640C140C5D
:105A28001C1214121421E420044004000400640829
:105A38001D08150415022501C500C70734780400A0
:105A4800000000000000000000000000000000004E
:105A580000000000C4000403450C851105167D18DC
:105A68002508270CF4030400000000070008601054
:105A78009010081004100420FC7F000000000007AC
:105A8800000861109110091005100520FD7F06001F
:105A9800000070008003181C042084208420441116
:105AA800380E0000000070008103191C05208520B5
:105AB80085207911420E3C00000000000000000023
:105AC8000000000000000000000000000400880042
