:020000040800F2
:1000000000500020F9470008F9460008054700089D
:100010000B470008114700081747000800000000C0
:100020000000000000000000000000001D47000864
:100030002947000800000000354700084147000834
:10004000414800084148000841480008414800086C
:10005000414800084148000841480008414800085C
:10006000414800084148000841480008414800084C
:10007000414800084148000841480008514700082D
:10008000414800084148000841480008414800082C
:10009000414800084148000841480008414800081C
:1000A000414800084148000841480008414800080C
:1000B00071470008414800084148000841480008CD
:1000C00041480008414800084148000841480008EC
:1000D0004148000885470008414800084148000899
:1000E000414800084148000841480008000000005D
:1000F0000000000000000000000000000000000000
:0C01000000000000000000005FF808F1A3
:10010C0010B5054C237833B9044B13B10448AFF345
:10011C0000800123237010BDE405002000000000C6
:10012C008852000808B5034B1BB103490348AFF3D1
:10013C00008008BD00000000E8050020885200087F
:10014C00034613F8012B002AFBD1181A013870470B
:10015C0080B500AF084A084B1B6843F010031360CE
:10016C00032000F03FF9002000F008F804F0B8F983
:10017C000023184680BD00BF0020024080B582B02D
:10018C0000AF7860124B1A68124B1B7819464FF46B
:10019C007A73B3FBF1F3B2FBF3F3184600F057F9A3
:1001AC000346002B01D001230EE07B680F2B0AD8ED
:1001BC00002279684FF0FF3000F01FF9064A7B6887
:1001CC001360002300E0012318460837BD4680BDAC
:1001DC0010040020040000200000002080B400AFB8
:1001EC00054B1B781A46054B1B681344034A1360D6
:1001FC0000BFBD4680BC70470400002020060020D4
:10020C0080B400AF024B1B681846BD4680BC7047DB
:10021C002006002080B584B000AF7860FFF7F0FFB7
:10022C00B8607B68FB60FB68B3F1FF3F05D0094BFE
:10023C001B781A46FB681344FB6000BFFFF7E0FF16
:10024C000246BB68D21AFB689A42F7D300BF10373C
:10025C00BD4680BD0400002080B485B000AF78603E
:10026C007B6803F00703FB600C4BDB68BB60BA6870
:10027C004FF6FF031340BB60FB681A02BB681343C5
:10028C0043F0BF6343F40033BB60044ABB68D360E4
:10029C0000BF1437BD4680BC704700BF00ED00E0C6
:1002AC0080B400AF044BDB681B0A03F0070318464D
:1002BC00BD4680BC704700BF00ED00E080B483B049
:1002CC0000AF0346FB71084997F907305B09FA79CF
:1002DC0002F01F02012000FA02F241F8232000BFB5
:1002EC000C37BD4680BC704700E100E080B483B0A1
:1002FC0000AF03463960FB7197F90730002B0BDA1E
:10030C000D49FB7903F00F03043B3A68D2B212019A
:10031C00D2B20B441A7609E0084997F907303A68CB
:10032C00D2B21201D2B20B4483F8002300BF0C37B7
:10033C00BD4680BC704700BF00ED00E000E100E06E
:10034C0080B489B000AFF860B9607A60FB6803F0E4
:10035C000703FB61FB69C3F10703042B28BF0423CC
:10036C00BB61FB690433062B02D9FB69033B00E03C
:10037C0000237B610122BB6902FA03F35A1EBB689E
:10038C001A407B699A4001217B6901FA03F3591EDB
:10039C007B680B40134318462437BD4680BC70471E
:1003AC0080B582B000AF78607B68013BB3F1807F91
:1003BC0001D301230FE00A4A7B68013B53600F21F4
:1003CC004FF0FF30FFF792FF054B00229A60044B71
:1003DC0007221A60002318460837BD4680BD00BFAF
:1003EC0010E000E080B582B000AF78607868FFF76D
:1003FC0033FF00BF0837BD4680BD80B586B000AF67
:10040C000346B9607A60FB7300237B61FFF748FFFA
:10041C0078617A68B9687869FFF792FF024697F9B4
:10042C000F3011461846FFF761FF00BF1837BD4665
:10043C0080BD80B582B000AF0346FB7197F90730E1
:10044C001846FFF73BFF00BF0837BD4680BD80B59F
:10045C0082B000AF78607868FFF7A2FF03461846B9
:10046C000837BD4680BD000080B483B000AF786013
:10047C007B68042B06D1094A084B1B6843F0040324
:10048C00136005E0054A054B1B6823F00403136059
:10049C0000BF0C37BD4680BC704700BF10E000E0C9
:1004AC0080B500AF00F002F800BF80BD80B400AF93
:1004BC0000BFBD4680BC704780B485B000AF78608B
:1004CC000023FB607B68002B01D101234FE07B688C
:1004DC001B681A46284B1344284AA2FB03231B090A
:1004EC009A007B681A647B68254ADA637B6802226F
:1004FC0083F821207B681B681B68FB60FB6823F476
:10050C007F5323F03003FB607B685A687B689B68E1
:10051C001A437B68DB681A437B681B691A437B6848
:10052C005B691A437B689B691A437B68DB691343DD
:10053C00FA681343FB607B681B68FA681A607B6877
:10054C0000229A627B680022DA627B6800221A63BE
:10055C007B6800225A637B6800229A637B680122C5
:10056C0083F821207B68002283F820200023184682
:10057C001437BD4680BC7047F8FFFDBFCDCCCCCC4A
:10058C000000024080B586B000AFF860B9607A60B8
:10059C003B600023FB75FB6893F82030012B01D1E5
:1005AC0002234AE0FB68012283F82020FB6893F8C1
:1005BC002130012B3AD1FB68022283F82120FB6801
:1005CC0000229A63FB681B68FA681268126822F0B2
:1005DC0001021A603B687A68B968F86800F044F95F
:1005EC00FB68DB6A002B08D0FB681B68FA68126892
:1005FC00126842F00E021A600FE0FB681B68FA6882
:10060C001268126822F004021A60FB681B68FA6810
:10061C001268126842F00A021A60FB681B68FA68DA
:10062C001268126842F001021A6005E0FB680022B1
:10063C0083F820200223FB75FB7D18461837BD4636
:10064C0080BD000080B584B000AF78607B68DB6B48
:10065C001B68FB607B681B681B68BB607B681B6C42
:10066C0004229A40FB681340002B55D0BB6803F062
:10067C000403002B50D07B681B681B6803F020031D
:10068C00002B07D17B681B687A681268126822F00D
:10069C0004021A606D4A7B681B6819466C4B9942C0
:1006AC002ED07B681B6819466A4B994226D07B6812
:1006BC001B681946684B99421DD07B681B6819460C
:1006CC00664B994214D07B681B681946644B99425F
:1006DC000BD07B681B681946624B994202D14FF4D0
:1006EC0080030EE04FF080630BE04FF4802308E0B2
:1006FC004FF4804305E04FF4806302E0402300E0B8
:10070C00042353607B68DB6A002B00F09A807B68C3
:10071C00DB6A7868984794E07B681B6C02229A40ED
:10072C00FB681340002B5CD0BB6803F00203002B6A
:10073C0057D07B681B681B6803F02003002B0BD180
:10074C007B681B687A681268126822F00A021A60C9
:10075C007B68012283F821203C4A7B681B68194680
:10076C003B4B99422ED07B681B681946394B9942FA
:10077C0026D07B681B681946374B99421DD07B6885
:10078C001B681946354B994214D07B681B68194677
:10079C00334B99420BD07B681B681946314B9942FD
:1007AC0002D14FF400130EE04FF000730BE04FF446
:1007BC00003308E04FF4005305E04FF4007302E0FF
:1007CC00202300E0022353607B68002283F8202062
:1007DC007B689B6A002B34D07B689B6A786898474F
:1007EC002FE07B681B6C08229A40FB681340002B9F
:1007FC0028D0BB6803F00803002B23D07B681B6850
:10080C007A681268126822F00E021A607B68DB6B41
:10081C007A68126C012101FA02F25A607B6801229B
:10082C009A637B68012283F821207B68002283F87D
:10083C0020207B681B6B002B04D07B681B6B7868BB
:10084C00984700BF00BF1037BD4680BD0000024076
:10085C00080002401C0002403000024044000240EC
:10086C00580002406C00024080B485B000AFF860C4
:10087C00B9607A603B60FB68DB6BFA68126C012133
:10088C0001FA02F25A60FB681B683A685A60FB680E
:10089C005B68102B08D1FB681B687A689A60FB6850
:1008AC001B68BA68DA6007E0FB681B68BA689A6074
:1008BC00FB681B687A68DA6000BF1437BD4680BCE1
:1008CC007047000080B48BB000AF786039600023B3
:1008DC00FB610023BB6100237B6100233B6200238F
:1008EC003B6100237B6227E101227B6A02FA03F35E
:1008FC00FB613B681A68FB691340BB61BA69FB6911
:10090C009A4240F016813B685B68122B34D0122B54
:10091C000DD8022B2BD0022B04D8002B31D0012B5D
:10092C001CD048E0032B43D0112B1BD043E0874A4B
:10093C00934226D0854A934206D8854A934220D0CA
:10094C00844A93421DD036E0834A934219D0834A9D
:10095C00934216D0824A934213D02CE03B68DB685A
:10096C003B6228E03B68DB6804333B6223E03B6876
:10097C00DB6808333B621EE03B68DB680C333B6290
:10098C0019E03B689B68002B02D104233B6212E008
:10099C003B689B68012B05D108233B627B68FA6995
:1009AC001A6108E008233B627B68FA695A6102E02D
:1009BC0000233B6200BFBB69FF2B01D87B6801E0C1
:1009CC007B680433FB60BB69FF2B02D87B6A9B00FE
:1009DC0002E07B6A083B9B003B61FB681A680F21B5
:1009EC003B6901FA03F3DB431A40396A3B6901FAAC
:1009FC0003F31A43FB681A603B685B6803F080538F
:100A0C00002B00F09680574A564B9B6943F001032C
:100A1C009361544B9B6903F00103BB60BB68524A62
:100A2C007B6A9B08023352F823307B617B6A03F0AC
:100A3C0003039B000F2202FA03F3DB437A69134092
:100A4C007B617B68494A934213D07B68484A934246
:100A5C000DD07B68474A934207D07B68464A934245
:100A6C0001D1032306E0042304E0022302E0012366
:100A7C0000E000237A6A02F00302920093407A6944
:100A8C0013437B6138497B6A9B0802337A6941F8CE
:100A9C0023203B685B6803F48033002B06D0374976
:100AAC00364B1A68BB6913430B6006E03349334B72
:100ABC001A68BB69DB4313400B603B685B6803F44B
:100ACC000033002B06D02D492C4B5A68BB691343BD
:100ADC004B6006E02949294B5A68BB69DB4313403C
:100AEC004B603B685B6803F48013002B06D02349F2
:100AFC00224B9A68BB6913438B6006E01F491F4B5E
:100B0C009A68BB69DB4313408B603B685B6803F4FA
:100B1C000013002B06D01949184BDA68BB69134334
:100B2C00CB6006E01549154BDA68BB69DB43134013
:100B3C00CB607B6A01337B627B6A0F2B7FF6D4AE72
:100B4C0000BF2C37BD4680BC704700BF0000211091
:100B5C0000001110000012100000311000003210C3
:100B6C00000022100010024000000140000801406B
:100B7C00000C014000100140001401400004014031
:100B8C0080B483B000AF78600B467B8013467B70DB
:100B9C007B78002B03D07A887B681A6103E07B8812
:100BAC001A047B681A6100BF0C37BD4680BC7047C5
:100BBC0080B584B000AF78607B68002B01D1012335
:100BCC002BE07B681B684CF6CC421A607B681B6878
:100BDC0045F255521A607B681B687A6852685A60F5
:100BEC007B681B687A6892689A60FFF709FBF8606B
:100BFC0008E0FFF705FB0246FB68D31A302B01D93E
:100C0C0003230AE07B681B68DB68002BF1D17B684F
:100C1C001B684AF6AA221A60002318461037BD46F4
:100C2C0080BD80B483B000AF78607B681B684AF6E7
:100C3C00AA221A60002318460C37BD4680BC7047A8
:100C4C0080B586B000AF786000233B617B681B6881
:100C5C0003F00103002B00F08780924B5B6803F0DC
:100C6C000C03042B0CD08F4B5B6803F00C03082B8C
:100C7C0012D18C4B5B6803F48033B3F5803F0BD1FE
:100C8C00884B1B6803F40033002B6CD07B685B68CB
:100C9C00002B68D101232DE27B685B68B3F5803FA4
:100CAC0006D1804A7F4B1B6843F4803313602EE0DF
:100CBC007B685B68002B0CD17A4A7A4B1B6823F457
:100CCC0080331360774A774B1B6823F480231360BF
:100CDC001DE07B685B68B3F5A02F0CD1714A714B9A
:100CEC001B6843F4802313606E4A6E4B1B6843F4FD
:100CFC00803313600BE06B4A6A4B1B6823F4803320
:100D0C001360684A674B1B6823F4802313607B686D
:100D1C005B68002B13D0FFF773FA386108E0FFF71C
:100D2C006FFA02463B69D31A642B01D90323E1E124
:100D3C005C4B1B6803F40033002BF0D014E0FFF77E
:100D4C005FFA386108E0FFF75BFA02463B69D31A99
:100D5C00642B01D90323CDE1524B1B6803F4003300
:100D6C00002BF0D100E000BF7B681B6803F002038E
:100D7C00002B63D04B4B5B6803F00C03002B0BD0A8
:100D8C00484B5B6803F00C03082B1CD1454B5B688C
:100D9C0003F48033002B16D1424B1B6803F0020383
:100DAC00002B05D07B681B69012B01D00123A1E12D
:100DBC003C493C4B1B6823F0F8027B685B69DB0009
:100DCC0013430B603AE07B681B69002B20D0364B39
:100DDC0001221A60FFF714FA386108E0FFF710FAE5
:100DEC0002463B69D31A022B01D9032382E12D4B16
:100DFC001B6803F00203002BF0D02A49294B1B6817
:100E0C0023F0F8027B685B69DB0013430B6015E091
:100E1C00254B00221A60FFF7F3F9386108E0FFF761
:100E2C00EFF902463B69D31A022B01D9032361E186
:100E3C001C4B1B6803F00203002BF0D17B681B6872
:100E4C0003F00803002B39D07B689B69002B19D069
:100E5C00164B01221A60FFF7D3F9386108E0FFF74F
:100E6C00CFF902463B69D31A022B01D9032341E186
:100E7C000C4B5B6A03F00203002BF0D0012000F056
:100E8C00CBFA1BE0094B00221A60FFF7B9F9386165
:100E9C000EE0FFF7B5F902463B69D31A022B07D9CE
:100EAC00032327E10010024000004242800442422A
:100EBC00924B5B6A03F00203002BEAD17B681B6840
:100ECC0003F00403002B00F0A6800023FB758B4B72
:100EDC00DB6903F08053002B0DD1884A874BDB690B
:100EEC0043F08053D361854BDB6903F08053FB6087
:100EFC00FB680123FB75824B1B6803F48073002B8A
:100F0C0018D17F4A7E4B1B6843F480731360FFF744
:100F1C0077F9386108E0FFF773F902463B69D31A99
:100F2C00642B01D90323E5E0754B1B6803F4807334
:100F3C00002BF0D07B68DB68012B06D16F4A6F4B1E
:100F4C001B6A43F0010313622DE07B68DB68002B06
:100F5C000CD16A4A694B1B6A23F001031362674A7E
:100F6C00664B1B6A23F0040313621CE07B68DB688E
:100F7C00052B0CD1614A614B1B6A43F004031362CD
:100F8C005E4A5E4B1B6A43F0010313620BE05B4A43
:100F9C005A4B1B6A23F001031362584A574B1B6AC6
:100FAC0023F0040313627B68DB68002B15D0FFF77A
:100FBC0027F938610AE0FFF723F902463B69D31A97
:100FCC0041F28832934201D9032393E04B4B1B6AC5
:100FDC0003F00203002BEED014E0FFF711F9386197
:100FEC000AE0FFF70DF902463B69D31A41F2883249
:100FFC00934201D903237DE0404B1B6A03F00203AB
:10100C00002BEED1FB7D012B05D13C4A3B4BDB6920
:10101C0023F08053D3617B68DB69002B69D0374B9D
:10102C005B6803F00C03082B61D07B68DB69022B37
:10103C0046D1344B00221A60FFF7E2F8386108E021
:10104C00FFF7DEF802463B69D31A022B01D90323C2
:10105C0050E02A4B1B6803F00073002BF0D17B6827
:10106C001B6AB3F5803F08D12449244B5B6823F4F9
:10107C0000327B689B6813434B6020481F4B5B68B6
:10108C0023F474127B68196A7B685B6A0B43134305
:10109C0043601C4B01221A60FFF7B2F8386108E07C
:1010AC00FFF7AEF802463B69D31A022B01D9032392
:1010BC0020E0124B1B6803F00073002BF0D018E0FB
:1010CC00104B00221A60FFF79BF8386108E0FFF71D
:1010DC0097F802463B69D31A022B01D9032309E086
:1010EC00064B1B6803F00073002BF0D101E00123C9
:1010FC0000E0002318461837BD4680BD00100240A2
:10110C00007000406000424280B584B000AF78604F
:10111C0039600023FB60724B1B6803F007023B68CD
:10112C009A4210D26E496E4B1B6823F007023B6843
:10113C0013430B606A4B1B6803F007023B689A422F
:10114C0001D00123C8E07B681B6803F00203002B6D
:10115C0008D06449634B5B6823F0F0027B689B68A2
:10116C0013434B607B681B6803F00103002B6AD0B0
:10117C007B685B68012B07D15A4B1B6803F4003367
:10118C00002B15D10123A7E07B685B68022B07D1EC
:10119C00544B1B6803F00073002B09D101239BE017
:1011AC00504B1B6803F00203002B01D1012393E089
:1011BC004C494C4B5B6823F003027B685B68134320
:1011CC004B60FFF71DF8F8607B685B68012B12D150
:1011DC000AE0FFF715F80246FB68D31A41F2883291
:1011EC00934201D9032377E03E4B5B6803F00C0379
:1011FC00042BEED127E07B685B68022B1DD10AE043
:10120C00FEF7FEFF0246FB68D31A41F28832934286
:10121C0001D9032360E0334B5B6803F00C03082B0C
:10122C00EED110E0FEF7ECFF0246FB68D31A41F258
:10123C008832934201D903234EE02A4B5B6803F0BA
:10124C000C03002BEED1264B1B6803F007023B6806
:10125C009A4210D92249224B1B6823F007023B68A3
:10126C0013430B601E4B1B6803F007023B689A424A
:10127C0001D0012330E07B681B6803F00403002BD2
:10128C0008D01849174B5B6823F4E0627B68DB6875
:10129C0013434B607B681B6803F00803002B09D0D9
:1012AC001049104B5B6823F460527B681B69DB00B0
:1012BC0013434B6000F01CF801460A4B5B681B099A
:1012CC0003F00F03084AD35C21FA03F3074A1360B7
:1012DC000020FEF753FF002318461037BD4680BD93
:1012EC000020024000100240A863000810040020F7
:1012FC0090B48AB000AF2A4B3C1D0FCB84E80F0092
:10130C00284B1B883B800023FB610023BB6100231F
:10131C007B6200237B6100233B62234B5B68FB6198
:10132C00FB6903F00C03042B02D0082B03D02DE037
:10133C001E4B3B622DE0FB699B0C03F00F0307F186
:10134C002802134413F8243C7B61FB6903F48033BB
:10135C00002B13D0144B5B685B0C03F0010307F1FB
:10136C002802134413F8283CBB617B690F4A02FB2B
:10137C0003F2BB69B2FBF3F37B6204E07B690C4ABA
:10138C0002FB03F37B627B6A3B6202E0074B3B622E
:10139C0000BF3B6A18462837BD4690BC704700BF5B
:1013AC00A0520008B05200080010024000127A004F
:1013BC0000093D0080B400AF024B1B681846BD46C7
:1013CC0080BC70471004002080B500AFFFF7F2FF1F
:1013DC000146054B5B681B0A03F00703034AD35C09
:1013EC0021FA03F3184680BD00100240B8630008D0
:1013FC0080B500AFFFF7DEFF0146054B5B68DB0AEB
:10140C0003F00703034AD35C21FA03F3184680BDAB
:10141C0000100240B863000880B485B000AF78605B
:10142C000A4B1B680A4AA2FB03235B0A7A6802FB7D
:10143C0003F3FB6000BFFB685A1EFA60002BF9D166
:10144C0000BF1437BD4680BC704700BF100400209D
:10145C00D34D621080B582B000AF78607B68002BF2
:10146C0001D101231DE07B6893F83D30DBB2002BEA
:10147C0006D17B68002283F83C20786803F08EF854
:10148C007B68022283F83D207B681A687B680433F2
:10149C001946104600F06EFA7B68012283F83D2055
:1014AC00002318460837BD4680BD80B483B000AF1A
:1014BC0078607B68022283F83D207B681B687A6821
:1014CC001268126842F001021A607B68012283F8EC
:1014DC003D20002318460C37BD4680BC704780B4B5
:1014EC0083B000AF78607B681B687A681268D2683A
:1014FC0042F00102DA607B681B687A681268126835
:10150C0042F001021A60002318460C37BD4680BC1D
:10151C00704780B483B000AF78607B681B687A68D2
:10152C001268D26822F00102DA607B681B681A6AC2
:10153C0041F211131340002B0FD17B681B681A6A00
:10154C0040F244431340002B07D17B681B687A6838
:10155C001268126822F001021A60002318460C3738
:10156C00BD4680BC704780B582B000AF78607B68A8
:10157C001B681B6903F00203022B22D17B681B68DA
:10158C00DB6803F00203022B1BD17B681B686FF036
:10159C0002021A617B6801221A777B681B689B69BF
:1015AC0003F00303002B03D0786800F0C8F905E0C2
:1015BC00786800F0BBF9786800F0CAF97B68002203
:1015CC001A777B681B681B6903F00403042B22D178
:1015DC007B681B68DB6803F00403042B1BD17B685E
:1015EC001B686FF004021A617B6802221A777B6811
:1015FC001B689B6903F44073002B03D0786800F0E0
:10160C009EF905E0786800F091F9786800F0A0F98F
:10161C007B6800221A777B681B681B6903F0080340
:10162C00082B22D17B681B68DB6803F00803082BAE
:10163C001BD17B681B686FF008021A617B6804225F
:10164C001A777B681B68DB6903F00303002B03D05C
:10165C00786800F074F905E0786800F067F978684C
:10166C0000F076F97B6800221A777B681B681B698F
:10167C0003F01003102B22D17B681B68DB6803F08E
:10168C001003102B1BD17B681B686FF010021A61C2
:10169C007B6808221A777B681B68DB6903F440734C
:1016AC00002B03D0786800F04AF905E0786800F068
:1016BC003DF9786800F04CF97B6800221A777B685A
:1016CC001B681B6903F00103012B0ED17B681B689F
:1016DC00DB6803F00103012B07D17B681B686FF0FB
:1016EC0001021A61786802F0DFFD7B681B681B69D8
:1016FC0003F08003802B0ED17B681B68DB6803F042
:10170C008003802B07D17B681B686FF080021A6105
:10171C00786800F087FA7B681B681B6903F040034C
:10172C00402B0ED17B681B68DB6803F04003402B19
:10173C0007D17B681B686FF040021A61786800F073
:10174C0010F97B681B681B6903F02003202B0ED15A
:10175C007B681B68DB6803F02003202B07D17B68B8
:10176C001B686FF020021A61786800F052FA00BF13
:10177C000837BD4680BD80B584B000AF7860396055
:10178C000023FB607B6893F83C30012B01D10223D2
:10179C00C8E07B68012283F83C207B68022283F836
:1017AC003D207B681B689B68FB60FB6823F077031C
:1017BC00FB60FB6823F47F43FB607B681B68FA6863
:1017CC009A603B681B68402B77D0402B0ED8102BAF
:1017DC0000F08A80102B02D8002B7ED099E0202BB1
:1017EC0000F08980302B00F08D8092E0702B16D0A9
:1017FC00702B04D8502B40D0602B4ED089E0B3F521
:10180C00805F03D0B3F5005F24D082E07B681B6857
:10181C007A681268926822F007029A6079E07B6815
:10182C0018683B6899683B685A683B68DB6800F04D
:10183C008BF97B681B689B68FB60FB6823F0770364
:10184C00FB60FB6843F07703FB607B681B68FA68FE
:10185C009A605EE07B6818683B6899683B685A68D8
:10186C003B68DB6800F070F97B681B687A6812686B
:10187C00926842F480429A604BE07B6818683B683F
:10188C0059683B68DB681A4600F0DAF87B681B681D
:10189C005021184600F039F93BE07B6818683B682A
:1018AC0059683B68DB681A4600F0FCF87B681B68DB
:1018BC006021184600F029F92BE07B6818683B681A
:1018CC0059683B68DB681A4600F0BAF87B681B68FD
:1018DC004021184600F019F91BE07B681B680021B9
:1018EC00184600F012F914E07B681B6810211846AA
:1018FC0000F00BF90DE07B681B682021184600F006
:10190C0004F906E07B681B683021184600F0FDF8EE
:10191C0000BF7B68012283F83D207B68002283F89E
:10192C003C20002318461037BD4680BD80B483B0E0
:10193C0000AF786000BF0C37BD4680BC704780B4E8
:10194C0083B000AF786000BF0C37BD4680BC7047D9
:10195C0080B483B000AF786000BF0C37BD4680BC4C
:10196C00704780B483B000AF786000BF0C37BD46C1
:10197C0080BC704780B485B000AF786039600023BC
:10198C00FB607B681B68FB607B682A4A93420BD028
:10199C007B68B3F1804F07D07B68274A934203D012
:1019AC007B68264A934208D1FB6823F07003FB60E6
:1019BC003B685B68FA681343FB607B681D4A934283
:1019CC000BD07B68B3F1804F07D07B681A4A9342E7
:1019DC0003D07B68194A934208D1FB6823F4407307
:1019EC00FB603B68DB68FA681343FB60FB6823F021
:1019FC008003FB603B685B69FA681343FB607B68A0
:101A0C00FA681A603B689A687B68DA623B681A6805
:101A1C007B689A627B68074A934203D13B681A69D8
:101A2C007B681A637B6801225A6100BF1437BD467C
:101A3C0080BC7047002C01400004004000080040AE
:101A4C0080B487B000AFF860B9607A6000237B6126
:101A5C0000233B61FB681B6A3B61FB681B6A23F03C
:101A6C000102FB681A62FB689B697B617B6923F04E
:101A7C00F0037B617B681B017A6913437B613B69D3
:101A8C0023F00A033B613A69BB6813433B61FB6873
:101A9C007A699A61FB683A691A6200BF1C37BD46C5
:101AAC0080BC704780B487B000AFF860B9607A60D2
:101ABC0000237B6100233B61FB681B6A23F010024F
:101ACC00FB681A62FB689B697B61FB681B6A3B6164
:101ADC007B6923F470437B617B681B037A69134336
:101AEC007B613B6923F0A0033B61BB681B013A6936
:101AFC0013433B61FB687A699A61FB683A691A6225
:101B0C0000BF1C37BD4680BC704780B485B000AFA9
:101B1C0078600B467B800023FB607B689B68FB60D6
:101B2C00FB6823F07003FB607B8843F007039BB2D8
:101B3C001A46FB681343FB607B68FA689A6000BF27
:101B4C001437BD4680BC704780B487B000AFF860D6
:101B5C00B9607A603B6000237B61FB689B687B61AA
:101B6C007B6923F47F437B613B681A027B681A43D1
:101B7C00BB6813437A6913437B61FB687A699A608B
:101B8C0000BF1C37BD4680BC704780B483B000AF2B
:101B9C00786039607B6893F83C30012B01D10223CB
:101BAC0032E07B68012283F83C207B68022283F8B8
:101BBC003D207B681B687A681268526822F07002BC
:101BCC005A607B681B687A68126851683A681268B8
:101BDC000A435A607B681B687A681268926822F024
:101BEC0080029A607B681B687A68126891683A6810
:101BFC0052680A439A607B68012283F83D207B6817
:101C0C00002283F83C20002318460C37BD4680BCCC
:101C1C00704780B483B000AF786000BF0C37BD460E
:101C2C0080BC704780B483B000AF786000BF0C37C5
:101C3C00BD4680BC704780B582B000AF78607B68D1
:101C4C00002B01D101233FE07B6893F83930DBB2E4
:101C5C00002B06D17B68002283F83820786802F0CC
:101C6C0003FD7B68242283F839207B681B687A6823
:101C7C001268D26822F40052DA60786800F028F812
:101C8C007B681B687A681268126922F490421A61A8
:101C9C007B681B687A681268526922F02A025A61C2
:101CAC007B681B687A681268D26842F40052DA606A
:101CBC007B680022DA637B68202283F839207B68FA
:101CCC00202283F83A20002318460837BD4680BDF1
:101CDC00F0B585B000AF78600023FB607B681B68B3
:101CEC007A681268126922F440517A68D2680A4301
:101CFC001A617B689A687B681B691A437B685B690D
:101D0C001343FA681343FB607B681A687B681B6893
:101D1C00DB6823F4B05323F00C03F9680B43D36056
:101D2C007B681B687A681268526922F440717A6881
:101D3C0092690A435A617B681B686F4A93426BD164
:101D4C007B681C68FFF754FB024613469B00134448
:101D5C009A001A447B685B689B00B2FBF3F3674AFA
:101D6C00A2FB03235B091D01FFF742FB024613464E
:101D7C009B0013449A001A447B685B689B00B2FB7F
:101D8C00F3F6FFF735FB024613469B0013449A000B
:101D9C001A447B685B689B00B2FBF3F3574AA2FBC7
:101DAC0003235B09642202FB03F3F31A1B01323396
:101DBC00524AA2FB03235B0903F0F0031D44FFF717
:101DCC0017FB024613469B0013449A001A447B6887
:101DDC005B689B00B2FBF3F6FFF70AFB0246134667
:101DEC009B0013449A001A447B685B689B00B2FB0F
:101DFC00F3F3424AA2FB03235B09642202FB03F3C5
:101E0C00F31A1B0132333D4AA2FB03235B0903F097
:101E1C000F032B44A3606AE07B681C68FFF7D4FABD
:101E2C00024613469B0013449A001A447B685B6875
:101E3C009B00B2FBF3F3314AA2FB03235B091D01A8
:101E4C00FFF7C2FA024613469B0013449A001A4449
:101E5C007B685B689B00B2FBF3F6FFF7B5FA0246B2
:101E6C0013469B0013449A001A447B685B689B00E2
:101E7C00B2FBF3F3214AA2FB03235B09642202FBAE
:101E8C0003F3F31A1B0132331C4AA2FB03235B0935
:101E9C0003F0F0031D44FFF797FA024613469B002C
:101EAC0013449A001A447B685B689B00B2FBF3F600
:101EBC00FFF78AFA024613469B0013449A001A4411
:101ECC007B685B689B00B2FBF3F30C4AA2FB032319
:101EDC005B09642202FB03F3F31A1B013233074A3A
:101EEC00A2FB03235B0903F00F032B44A36000BF89
:101EFC001437BD46F0BD00BF003801401F85EB51C3
:101F0C0080B500AF074B00221A7000F041F8054B6A
:101F1C0001221A7000F03CF8024B00221A7000BF2C
:101F2C0080BD00BF0006002080B400AF074B1B78BB
:101F3C00DBB2002B03D0054B00221A7002E0034BDE
:101F4C0001221A7000BFBD4680BC704700060020FD
:101F5C0080B483B000AF0346FB710B4B1B78DBB234
:101F6C001946FB791A4652001A4413021A460B46BC
:101F7C005B000B44DB021344044A134418460C3731
:101F8C00BD4680BC704700BF000600202406002020
:101F9C0090B484B000AF0023FB73244B1B78DBB2EE
:101FAC00002B02D00023FB7301E00123FB73002301
:101FBC00BB6033E000237B6029E0F97B7B68580031
:101FCC001B4CBB681A4652001A4413021A460B46A5
:101FDC005B000B44DB0213442344034400221A70BD
:101FEC00F97B7B685B00581C114CBB681A4652008D
:101FFC001A4413021A460B465B000B44DB021344D3
:10200C002344034480221A707B6801337B607B6815
:10201C00B3F5C07FD1DBBB680133BB60BB68072B5A
:10202C00C8DD00BF1037BD4690BC704700060020CD
:10203C0024060020F0B488B000AF0346FB810B46A9
:10204C00BB811346FB720023FB7700237B760023B6
:10205C003B760023FB82694B1B78DBB2002B02D052
:10206C0000233B7601E001233B76FB89C3F1BF03E0
:10207C009BB2FB81BB89C3F11F039BB2BB81B7F938
:10208C000E30002BC0F2B580B7F90E30BF2B00F329
:10209C00B080B7F90C30002BC0F2AB80B7F90C3024
:1020AC001F2B00F3A680BB89FB82B7F90C300F2BDA
:1020BC0004DD0823FB77BB89103BFB82FB8A072BD3
:1020CC001AD9FB8A083BBB83B7F90E30002B00DA18
:1020DC000733DB101BB29BB21B019AB2B7F90E305F
:1020EC00594203F0070301F0070158BF4B421BB2E2
:1020FC009BB213447B831AE0FB8ABB83B7F90E3087
:10210C00002B00DA0733DB101BB29BB21B019AB217
:10211C00B7F90E30594203F0070301F0070158BF1D
:10212C004B421BB29BB2D31A9BB20F337B83FB7F08
:10213C00002B02D1FB7A7B7602E0FB7ADB007B760C
:10214C00397EB88B7B8B5D003C7EBB8B7A8B5600CB
:10215C002B4A7A601A4652001A4413021A46234636
:10216C005B002344DB0213447A68134433441A782B
:10217C007B7E1343DEB2224C024652000244130211
:10218C001A460B465B000B44DB02134423442B44DE
:10219C0032461A70397EB88B7B8B5B005D1C3C7EA3
:1021AC00BB8B7A8B5200561C154A7A601A46520029
:1021BC001A4413021A4623465B002344DB021344E1
:1021CC007A68134433441A787B7E1343DBB263F092
:1021DC007F03DEB20A4C02465200024413021A4636
:1021EC000B465B000B44DB02134423442B44324666
:1021FC001A7000BF2037BD46F0BC704700060020A7
:10220C002406002090B58DB000AF04460846114658
:10221C001A462346FB800346BB800B46FB701346D5
:10222C00BB70FB78FB820023FB8512E0F98DFA8AE8
:10223C0013469B0013441A46FB8D1344AA4A1344BD
:10224C001A7807F130030B4403F8242CFB8D01336F
:10225C00FB85FB8D042BE9D90023FB8567E000236C
:10226C00BB855EE0FB8D07F13002134413F8243C70
:10227C001A46BB8D42FA03F303F00103002B4DD039
:10228C0000237B8544E000233B8538E097F8403001
:10229C009BB2BA8D02FB03F39AB2BB8813449AB279
:1022AC003B8D1344BB8297F840309BB2FA8D02FBF6
:1022BC0003F39AB2FB8813449AB27B8D13447B824E
:1022CC007A8AB7F944309A4216DB7A8AB7F94830E1
:1022DC009A4211DCBA8AB7F94C309A420CDBBA8AB2
:1022EC00B7F950309A4207DCB7F91230B7F914102D
:1022FC00BA781846FFF79EFE3B8D01333B8597F865
:10230C0040309BB23A8D9A42C0D37B8D01337B8592
:10231C0097F840309BB27A8D9A42B4D3BB8D01337F
:10232C00BB85BB8D072B9DD9FB8D0133FB85FB8DAD
:10233C00042B94D997F84030012B40F24D820023A6
:10234C00FB8545E2FB8D012B03D0FB8D032B40F06D
:10235C003C820023BB8534E2FB8D07F13002134431
:10236C0013F8243C1A46BB8D42FA03F303F0010325
:10237C00002B00F02382FB8D013B07F1300213444C
:10238C0013F8243C1A46BB8D42FA03F303F0010305
:10239C00002B40F00381FB8D013B07F1300213440D
:1023AC0013F8243C1A46BB8D013B42FA03F303F0AD
:1023BC000103002B6FD0FB8D07F13002134413F88F
:1023CC00243C1A46BB8D013B42FA03F303F0010394
:1023DC00002B60D100237B6258E000237B854CE00E
:1023EC0000233B8540E097F840309BB2BA8D02FB4E
:1023FC0003F39AB2BB8813449AB23B8D13449AB23E
:10240C007B6A9BB2D31ABB8297F840309BB2FA8D91
:10241C0002FB03F39AB2FB8813449AB27B8D1344EC
:10242C009AB27B6A9BB2D31A7B827A8AB7F9443010
:10243C009A4216DB7A8AB7F948309A4211DCBA8A8A
:10244C00B7F94C309A420CDBBA8AB7F950309A4241
:10245C0007DCB7F91230B7F91410BA781846FFF741
:10246C00E9FD3B8D01333B8597F840309BB23A8DAB
:10247C009A42B8D37B8D01337B8597F840309BB261
:10248C007A8D9A42ACD37B6A01337B6297F84020F9
:10249C007B6A9A42A1DCFB8D013B07F130021344AD
:1024AC0013F8243C1A46BB8D013342FA03F303F0B4
:1024BC000103002B72D0FB8D07F13002134413F88B
:1024CC00243C1A46BB8D013342FA03F303F001039B
:1024DC00002B63D100233B625BE000237B854FE044
:1024EC0000233B8543E000BF0853000897F84030B9
:1024FC009BB2BA8D02FB03F39AB2BB8813449AB217
:10250C003B8D13449AB23B6A9BB21344BB8297F83F
:10251C0040309BB2FA8D02FB03F39AB2FB88134452
:10252C009AB27B8D13449AB23B6A9BB2D31A7B82CC
:10253C007A8AB7F944309A4216DB7A8AB7F948306E
:10254C009A4211DCBA8AB7F94C309A420CDBBA8A3F
:10255C00B7F950309A4207DCB7F91230B7F91410BA
:10256C00BA781846FFF766FD3B8D01333B8597F82B
:10257C0040309BB23A8D9A42B8D37B8D01337B8528
:10258C0097F840309BB27A8D9A42A9D33B6A0133BB
:10259C003B6297F840203B6A9A429EDCFB8D0133EC
:1025AC0007F13002134413F8243C1A46BB8D42FA4F
:1025BC0003F303F00103002B40F00081FB8D01338A
:1025CC0007F13002134413F8243C1A46BB8D013B2F
:1025DC0042FA03F303F00103002B6FD0FB8D07F1DC
:1025EC003002134413F8243C1A46BB8D013B42FACB
:1025FC0003F303F00103002B60D10023FB6158E0CF
:10260C0000237B854CE000233B8540E097F840306D
:10261C009BB2BA8D02FB03F39AB2BB8813449AB2F5
:10262C003B8D13449AB2FB699BB2D31ABB8297F8C9
:10263C0040309BB2FA8D02FB03F39AB2FB88134431
:10264C009AB27B8D13449AB2FB699BB213447B8282
:10265C007A8AB7F944309A4216DB7A8AB7F948304D
:10266C009A4211DCBA8AB7F94C309A420CDBBA8A1E
:10267C00B7F950309A4207DCB7F91230B7F9141099
:10268C00BA781846FFF7D6FC3B8D01333B8597F89B
:10269C0040309BB23A8D9A42B8D37B8D01337B8507
:1026AC0097F840309BB27A8D9A42ACD3FB690133D8
:1026BC00FB6197F84020FB699A42A1DCFB8D01334A
:1026CC0007F13002134413F8243C1A46BB8D013336
:1026DC0042FA03F303F00103002B6FD0FB8D07F1DB
:1026EC003002134413F8243C1A46BB8D013342FAD2
:1026FC0003F303F00103002B60D10023BB6158E00E
:10270C0000237B854CE000233B8540E097F840306C
:10271C009BB2BA8D02FB03F39AB2BB8813449AB2F4
:10272C003B8D13449AB2BB699BB21344BB8297F89E
:10273C0040309BB2FA8D02FB03F39AB2FB88134430
:10274C009AB27B8D13449AB2BB699BB213447B82C1
:10275C007A8AB7F944309A4216DB7A8AB7F948304C
:10276C009A4211DCBA8AB7F94C309A420CDBBA8A1D
:10277C00B7F950309A4207DCB7F91230B7F9141098
:10278C00BA781846FFF756FC3B8D01333B8597F81A
:10279C0040309BB23A8D9A42B8D37B8D01337B8506
:1027AC0097F840309BB27A8D9A42ACD3BB69013317
:1027BC00BB6197F84020BB699A42A1DCBB8D013309
:1027CC00BB85BB8D072B7FF6C7ADFB8D0133FB851E
:1027DC00FB8D042B7FF6B6AD00BF3437BD4690BDE4
:1027EC0090B589B006AF0446084611461A462346F2
:1027FC00FB800346BB800B46FB701346BB70BC785A
:10280C00FA78B7F90410B7F906001F2304930023D4
:10281C000393BF230293002301933B7E0093234633
:10282C00FFF7F0FC00BF0C37BD4690BD90B589B0EA
:10283C0002AFBA601A460346FB810B46BB811346B6
:10284C00FB800023FB8220E097F82C309BB2FA8AA5
:10285C0002FB03F39BB21A46520013445B009AB27C
:10286C00FB8913449BB218B2FB8ABA6813441A78DA
:10287C0097F82840B7F90C1097F82C3000932346A2
:10288C00FFF7AEFFFB8A0133FB82FA8AFB889A4280
:10289C00DAD300BF1C37BD4690BD90B58DB006AFE6
:1028AC00BA601A460346FB810B46BB811346FB807C
:1028BC000023FB82FB88002B40D00023BB822CE042
:1028CC0097F82C309BB2BA8A02FB03F39BB21A46E0
:1028DC00520013445B009AB2FB8913449BB218B2AA
:1028EC00BB8ABA6813441A7897F82840B7F90C10C9
:1028FC00B7F93C300493B7F938300393B7F9343057
:10290C000293B7F93030019397F82C30009323469B
:10291C00FFF778FCBB8A0133BB82BA8AFB889A42E8
:10292C00CED397F82C309BB2FA8802FB03F39BB200
:10293C001A46520013445B009BB2FB82B7F9163067
:10294C0018461C37BD4690BD90B589B000AF044603
:10295C00084611461A462346FB800346BB800B46AD
:10296C00FB701346BB700023FB83FB787B82002338
:10297C00BB614CE07A8A13469B0013449B001A46B9
:10298C00BB695B001344254A13441B88FB8300235B
:10299C007B6136E0FB8B03F00103002B2BD0BB6972
:1029AC009AB2FB8813449BB23B827B699AB2BB8878
:1029BC0013449BB2FB81B7F91020B7F934309A421B
:1029CC0019DBB7F91020B7F938309A4213DAB7F996
:1029DC000E20B7F93C309A420DDBB7F90E20B7F94F
:1029EC0040309A4207DABA78B7F90E10B7F91030BE
:1029FC001846FFF71FFBFB8B5B08FB837B690133DE
:102A0C007B617B690F2BC5DDBB690133BB61BB6986
:102A1C00092BAFDD00BF2437BD4690BD885500089B
:102A2C0090B589B006AF0446084611461A462346AF
:102A3C00FB800346BB800B46FB701346BB70BC7817
:102A4C00FA78B7F90410B7F9060020230493002391
:102A5C000393C0230293002301933B7E00932346F0
:102A6C00FFF772FF00BF0C37BD4690BD90B589B023
:102A7C0002AFBA601A460346FB810B46BB81134674
:102A8C00FB800023FB8220E097F82C309BB2FA8A63
:102A9C0002FB03F39BB21A46920013445B009AB2FA
:102AAC00FB8913449BB218B2FB8ABA6813441A7898
:102ABC0097F82840B7F90C1097F82C300093234660
:102ACC00FFF7AEFFFB8A0133FB82FA8AFB889A423E
:102ADC00DAD300BF1C37BD4690BD90B58DB006AFA4
:102AEC00BA601A460346FB810B46BB811346FB803A
:102AFC000023FB82FB88002B39D00023BB822BE008
:102B0C0097F82C309BB2BA8A02FB03F39BB21A469D
:102B1C00920013445B009AB2FB8913449BB218B227
:102B2C00BB8ABA6813441A7897F82840B7F90C1086
:102B3C00B7F93C300493B7F938300393B7F9343014
:102B4C000293B7F930300193012300932346FFF72A
:102B5C00FBFEBB8A0133BB82BA8AFB889A42CFD375
:102B6C00FB881A46920013445B009BB2FB82B7F9B8
:102B7C00163018461C37BD4690BD000080B590B08D
:102B8C0002AFFDF7E5FA00F087F900F0E3FA00F088
:102B9C00C3FA00F0F7F900F045FA00F08FFA00F0F4
:102BAC00D1F9AD48FEF73DF8FFF7AAF90020FFF781
:102BBC00CFF90246A94B1A60A94B1B68A84A1268A8
:102BCC00D26842F48072DA60A64BA74A9A62A44893
:102BDC00FEF76BFC01F0F2FAA44B1B68A34A1268D7
:102BEC00D26842F02002DA609B48FEF71AF807F12F
:102BFC0008039F4A92E8030083E8030007F10803E7
:102C0C001846FDF79DFA034699B207F10802012315
:102C1C000193012300930B4600210020FFF706FED1
:102C2C0007F10803934A9449184601F041FE07F155
:102C3C0008031846FDF784FA034699B207F1080217
:102C4C0001230193012300930B4608210020FFF779
:102C5C00EDFD07F10803894A8949184601F028FE61
:102C6C0007F108031846FDF76BFA034699B207F112
:102C7C00080201230193012300930B46102100202D
:102C8C00FFF7D4FD7F4B01221A704FF4FA6001F06C
:102C9C00F5FB0023FB7100237B6300233B630023C4
:102CAC00FB620023FB77002387F82B3000237B6229
:102CBC0000237B8400233B840023BB8300237B8382
:102CCC00FDF79EFA0246704B1A606348FDF7A9FFA8
:102CDC0000F0DCFE0346002B07D06B4B1B6842F266
:102CEC00107213447B6300233B63674B1A687B6B46
:102CFC009A422AD33B6B002B08D1FFF749F9614B61
:102D0C0001221A704FF4FA7001F0B8FB5E4B1A688E
:102D1C003B6B9A42D4D35C4B1B6841F28832134410
:102D2C003B6310220021594801F0B9FD102200210B
:102D3C00574801F0B4FD0023FB62002387F82B30C9
:102D4C00FB1D184600F012FEBAE74F4B1A68FB6ADF
:102D5C009A4227D34C4B1B6847F230521344FB6208
:102D6C00FB1D184600F0A6FD0346FB77FB7F012BED
:102D7C0002D10023FB6215E0FB7F002B02D1002364
:102D8C007B630FE0FB7F022B0CD1012387F82B30E8
:102D9C003D4B1B684FF47A7213447B6200237B8497
:102DAC0000233B8497F82B30002B89D0364B1A68C4
:102DBC007B6A9A4284D3334B1B78DBB2002B7FF4B3
:102DCC007FAF314B1B68232213447B623148FDF7E4
:102DDC00B7F903467B76FFF7DBF87B7E184600F0ED
:102DEC0065FAB7F92230184600F060FBB7F92230CB
:102DFC00184600F0D5FB0346BB83B7F91C30BF2B3C
:102E0C0005DDB7F922309BB201339BB27B84B7F955
:102E1C002030184600F030FC03467B83B7F91A309B
:102E2C00BF2B05DDB7F920309BB201339BB23B843D
:102E3C00B7F91C30C02B0BDCB7F91A30C02B07DCF0
:102E4C00002387F82B30104B1B6803F57A73FB6259
:102E5C000C4B01221A7033E7343600200406002094
:102E6C00C83A0020083B0020ED41000864380020DF
:102E7C00B4520008BC520008C4520008CC520008DE
:102E8C00D4520008020600200C0600205238002004
:102E9C00B63A00209E3D002080B590B000AF0923CB
:102EAC00BB614FF48033FB6100233B620123BB62A7
:102EBC0001233B6302237B634FF48033BB634FF4EA
:102ECC00E013FB6307F118031846FDF7B9FE034640
:102EDC00002B04D04FF4D771184801F0FBFA0F23E4
:102EEC007B600223BB600023FB604FF480633B617B
:102EFC0000237B613B1D02211846FEF705F90346B2
:102F0C00002B04D04FF4DE710C4801F0E3FAFEF70D
:102F1C0051FA02460A4BA3FB02239B091846FDF704
:102F2C0096FA0420FDF7A0FA002200214FF0FF30A2
:102F3C00FDF763FA00BF4037BD4680BDDC52000888
:102F4C00D34D621080B500AF0B4B0C4A1A600A4B84
:102F5C0004225A60084B40F271229A600648FDF731
:102F6C0027FE0346002B04D04FF4EA71044801F00D
:102F7C00B1FA00BF80BD00BF3436002000300040E5
:102F8C00DC52000880B586B000AF234B234A1A6090
:102F9C00214B00225A60204B00229A601E4B0B22C0
:102FAC00DA601D4B00221A611B4B00225A611A4B2E
:102FBC0000229A611848FEF74DFA0346002B04D004
:102FCC0040F2E911164801F085FA4FF48053BB60CA
:102FDC0007F1080319461048FEF7CDFB0346002BFA
:102FEC0004D040F2EF110E4801F074FA00233B605C
:102FFC0000237B603B4619460748FEF7C6FD034697
:10300C00002B04D04FF4FB71054801F063FA00BFAC
:10301C001837BD4680BD00BFC83A0020002C0140C7
:10302C00DC52000880B586B000AF224B4FF08042D6
:10303C001A60204B00225A601E4B00229A601D4BD6
:10304C0044F24F62DA601B4B00221A61194B0022CA
:10305C009A611848FEF7FEF90346002B04D040F2A3
:10306C000A21154801F036FA4FF48053BB6007F182
:10307C00080319460F48FEF77EFB0346002B04D0CD
:10308C004FF404710C4801F025FA20233B60002317
:10309C007B603B4619460748FEF777FD0346002B3D
:1030AC0004D040F21721044801F014FA00BF18377D
:1030BC00BD4680BD4C3B0020DC52000880B500AF03
:1030CC00124B134A1A60114B4FF416425A600F4BB5
:1030DC0000229A600D4B0022DA600C4B00221A6120
:1030EC000A4B04225A61094B00229A61074B0022B9
:1030FC00DA610648FEF79FFD0346002B04D040F230
:10310C002A21044801F0E6F900BF80BD6438002094
:10311C0000380140DC52000880B582B000AF0C4A88
:10312C000B4B5B6943F001035361094B5B6903F083
:10313C0001037B607B68002205210F20FDF75DF900
:10314C000F20FDF776F900BF0837BD4680BD00BFE4
:10315C000010024080B588B000AF504A4F4B9B69BD
:10316C0043F0100393614D4B9B6903F01003FB601C
:10317C00FB684A4A494B9B6943F020039361474BD8
:10318C009B6903F02003BB60BB68444A434B9B69BB
:10319C0043F004039361414B9B6903F004037B6090
:1031AC007B683E4A3D4B9B6943F0080393613B4B64
:1031BC009B6903F008033B603B6801224FF400510C
:1031CC003748FDF7DDFC002248F2BF013548FDF71A
:1031DC00D7FC00221F213448FDF7D2FC4FF40053DA
:1031EC003B6101237B610023BB610323FB6107F17E
:1031FC00100319462A48FDF765FB4FF440433B6129
:10320C0003237B6107F1100319462548FDF75AFB90
:10321C00BF233B6101237B610023BB610323FB6163
:10322C0007F1100319461F48FDF74CFB4FF4CA5326
:10323C003B6103237B6107F1100319461948FDF725
:10324C0041FB1F233B6101237B610023BB610323F3
:10325C00FB6107F1100319461348FDF733FB4FF6DA
:10326C00E0733B6103237B6107F1100319460E48A1
:10327C00FDF728FB4FF400433B6101237B610023E6
:10328C00BB610223FB6107F1100319460548FDF7EA
:10329C0019FB00BF2037BD4680BD00BF00100240A7
:1032AC000010014000080140000C014080B584B0C2
:1032BC0002AF0346FB71FB79012B0DD1784B93F8D0
:1032CC00122204230093012302210020FFF788FA25
:1032DC00744B16221A80DFE0FB79022B0DD10323ED
:1032EC0001930123009302236F4A04210020FFF76E
:1032FC009DFA6C4B24221A80CEE0FB79032B21D152
:10330C00674B93F812220223009301230021002023
:10331C00FFF766FA624B93F8132202230093012302
:10332C0000210C20FFF75CFA5D4B93F8142202236A
:10333C000093012310210620FFF752FA594B1A2251
:10334C001A80A9E0FB79042B2BD1554B93F8122250
:10335C0002230093012300210020FFF741FA504B78
:10336C0093F8132202230093012300210C20FFF772
:10337C0037FA4B4B93F814220223009301231021AC
:10338C000020FFF72DFA464B93F8152202230093E9
:10339C00012310210C20FFF723FA424B1A221A802A
:1033AC007AE0FB79052B35D13D4B93F812220223A1
:1033BC000093012300210020FFF712FA384B93F8F9
:1033CC00132202230093012300210C20FFF708FA9B
:1033DC00334B93F81422022300930123002118206D
:1033EC00FFF7FEF92E4B93F81522022300930123CD
:1033FC0010210620FFF7F4F9294B93F8162202232B
:10340C000093012310211220FFF7EAF9254B262205
:10341C001A8041E0FB79062B3ED1214B93F8122206
:10342C0002230093012300210020FFF7D9F91C4B44
:10343C0093F8132202230093012300210C20FFF7A1
:10344C00CFF9174B93F81422022300930123002188
:10345C001820FFF7C5F9124B93F81522022300939D
:10346C00012310210020FFF7BBF90D4B93F8162216
:10347C0002230093012310210C20FFF7B1F9084B14
:10348C0093F8172202230093012310211820FFF731
:10349C00A7F9044B26221A8000BF0837BD4680BD11
:1034AC008C3B0020100600209E3D002080B58AB089
:1034BC0006AF0346FB803648FCF742FE0346FB731F
:1034CC00344BB3F900309AB2FB88D31A9BB2BB8150
:1034DC00FB7B002B52D0304B1B78002B22D1FB7B7B
:1034EC0099B22C4BB3F90030B7F90C0010220592AD
:1034FC0000220492C022039202930223019301231F
:10350C0000930B46224A0021FFF7C7F903469AB2F3
:10351C00204BB3F900309BB213449BB21AB21F4B31
:10352C001A8021E0FB7B99B21A4BB3F90030B7F942
:10353C000C001022059200220492C02203920293E6
:10354C0001230193012300930B46114A0021FFF73D
:10355C00C4FA03469AB20F4BB3F900309BB2134432
:10356C009BB21AB20D4B1A800C4BB3F900309BB2C4
:10357C000A339BB21AB2094B1A8004E0054BB3F91B
:10358C000020064B1A8000BF1037BD4680BD00BF1F
:10359C008D3B0020100600208C3B002012060020E2
:1035AC0080B58AB006AF0346FB802F48FCF7C8FDF8
:1035BC000346BB812D4BB3F900309AB2FB88D31A6A
:1035CC009BB27B81C023FB81BB89002B46D0284B4F
:1035DC001B78002B20D1274BB3F90030B989B7F9F0
:1035EC000A001022059200220492C0220392029338
:1035FC0002230193012300930B461B4A0021FFF782
:10360C004CF9BB891A46520013449B009AB27B8931
:10361C0013449BB2FB8121E0164BB3F90030B989FE
:10362C00B7F90A001022059200220492C0220392DC
:10363C00029301230193012300930B460A4A0021B4
:10364C00FFF74BFABB891A46920013445B009AB2FF
:10365C007B8913449BB202339BB2FB81B7F90E30CA
:10366C0018461037BD4680BD9D3B00201206002039
:10367C008C3B00201006002080B58CB006AF0346B2
:10368C00FB80774B1B887B820023FB82C023BB8291
:10369C007448FCF755FD03463B827348FCF750FD1C
:1036AC000346FB81B7F91030002B40F3D380B7F9F8
:1036BC000E30002B40F3CE806C4B1B78002B60D16E
:1036CC007A8AFB88D31A9BB2FB82398A644BB3F992
:1036DC000030B7F916002022059210220492C02265
:1036EC000392029302230193012300930B465D4A3C
:1036FC001021FFF7D2F80346BB81FA8ABB89134429
:10370C009BB2FB825A48FCF71BFD034699B2544B03
:10371C00B3F90030B7F9160020220592102204925A
:10372C00C0220392029302230193012300930B46C0
:10373C004F4A1021FFF7B1F80346BB81FA8ABB89C7
:10374C0013449BB2FB82F989454BB3F90030B7F9AE
:10375C0016002022059210220492C022039202939A
:10376C0002230193012300930B463F4A1021FFF7DC
:10377C0094F80346BB81FA8ABB8913449BB2FB8243
:10378C0066E07A8AFB88D31A9BB2FB823548FCF739
:10379C00D7FC03469AB2B7F91600202305931023E1
:1037AC000493C0230393B7F91230029301230193BE
:1037BC000123009313462B4A1021FFF78EF9034681
:1037CC00BB81FA8ABB8913449BB2FB822948FCF764
:1037DC00B7FC03469AB2B7F91600202305931023C1
:1037EC000493C0230393B7F912300293012301937E
:1037FC000123009313461F4A1021FFF76EF903466D
:10380C00BB81FA8ABB8913449BB2FB821648FCF736
:10381C0097FC03469AB2B7F91600202305931023A0
:10382C000493C0230393B7F912300293012301933D
:10383C000123009313460C4A1021FFF74EF903465F
:10384C00BB81BA89FB8A13449BB202339BB2FB82C5
:10385C00FB8ABB82B7F9143018461837BD4680BDB9
:10386C00100600209E3C00201E3D00208C3B0020BA
:10387C00986300088863000880B582B000AF0346E7
:10388C00FB71FEF785FBFB791846FFF70FFD002057
:10389C00FFF70CFE0020FFF783FE0020FFF7ECFE85
:1038AC00034B01221A7000BF0837BD4680BD00BF14
:1038BC000206002080B584B000AF78600023BB7393
:1038CC0000237B730023FB737B681B783B733B7B70
:1038DC00002B0CD01F4A204B1046194640F22323D4
:1038EC001A4600F0D1FF7B6800221A700BE0194ACF
:1038FC001A4B1046194640F223231A4600F0C4FF17
:10390C007B6801221A701648FCF71AFC03467B737D
:10391C007B7B002B14D13B7B002B05D11148FCF792
:10392C000FFC0346FB7304E00F48FCF709FC03464D
:10393C00FB73FB7B002B01D1002306E0012304E089
:10394C007B7B1846FFF798FF022318461037BD46BD
:10395C0080BD00BF8C3B0020A438002040360020E6
:10396C009E3D0020B63A00205238002090B587B01A
:10397C0002AF78607B681B78FB730023BB81FEF77A
:10398C0007FBFB7B002B1DD02423BB81B7F90C005C
:10399C0002230193012300930A23224A0021FEF7FC
:1039AC0045FFBB8910339BB218B20223019301234C
:1039BC00009307231C4A1021FEF738FF7B68002276
:1039CC001A7027E03823BB811848FCF7B9FB034673
:1039DC009AB2B7F90C00012301930123009313460B
:1039EC00124A0021FFF742F8BB890A339BB21CB282
:1039FC000F48FCF7A5FB03469AB201230193012360
:103A0C00009313460A4A10212046FFF72FF87B68D3
:103A1C0001221A70074B01221A7000BF1437BD46E1
:103A2C0090BD00BF48630008586300086863000835
:103A3C00786300080206002080B485B000AF03460E
:103A4C00FB710023FB73FB792F2B06D9FB79392BE8
:103A5C0003D8FB79303BFB7312E0FB79602B06D962
:103A6C00FB79662B03D8FB79573BFB7308E0FB799A
:103A7C00402B05D9FB79462B02D8FB79373BFB73DE
:103A8C00FB7B18461437BD4680BC704780B5ADF53E
:103A9C00CB6D02AF002387F84F36002387F83F36F3
:103AAC00002387F84E360023A7F83C360023A7F8EE
:103ABC003A360023A7F84636DA4B1B78DBB2012BDB
:103ACC0040F0518207F50E710A23009324234FF422
:103ADC008062D54800F057FC0346002B40F0408232
:103AEC00D24AD24BDB6883F40053D36007F50E73D4
:103AFC001846FCF725FB0346A7F83C360123C7F80C
:103B0C0040361CE007F50E72D7F8403613441B788C
:103B1C002A2B04D1D7F84036A7F8463615E007F51E
:103B2C000E72D7F8403613441A7897F84E36534035
:103B3C0087F84E36D7F840360133C7F84036B7F819
:103B4C003C26D7F840369A42DCDCB7F846360133CF
:103B5C0007F50E72D35C1846FFF76EFF03461B0188
:103B6C0087F83F36B7F84636023307F50E72D35C4A
:103B7C001846FFF761FF03461A4697F83F36134382
:103B8C0087F83F3697F84E2697F83F369A4240F022
:103B9C00E7810023C7F84036D7F840369BB2013393
:103BAC00A7F8463607F50A7310220021184600F0D4
:103BBC0076FE07F50A73C7F84836B7F84636C7F8E5
:103BCC00403618E007F50E72D7F8403613441B78D0
:103BDC002C2B17D0D7F848365A1CC7F8482607F5AF
:103BEC000E71D7F840260A4412781A70D7F840366E
:103BFC000133C7F84036B7F83C26D7F840369A421E
:103C0C00E0DC00E000BF07F50A73184600F013FE75
:103C1C000346A7F83A36B7F83A36DBB203F001039D
:103C2C00DAB23B1D1A70D7F840369BB20133A7F8B5
:103C3C0046363B1D013310220021184600F02FFEA2
:103C4C003B1D0133C7F84836B7F84636C7F840363F
:103C5C0018E007F50E72D7F8403613441B782C2B5E
:103C6C0017D0D7F848365A1CC7F8482607F50E71F6
:103C7C00D7F840260A4412781A70D7F84036013328
:103C8C00C7F84036B7F83C26D7F840369A42E0DC05
:103C9C0000E000BFD7F840369BB20133A7F8463698
:103CAC003B1D113380220021184600F0F8FD3B1D0E
:103CBC001133C7F84836B7F84636C7F8403618E01F
:103CCC0007F50E72D7F8403613441B782C2B17D0FF
:103CDC00D7F848365A1CC7F8482607F50E71D7F89E
:103CEC0040260A4412781A70D7F840360133C7F8C8
:103CFC004036B7F83C26D7F840369A42E0DC00E074
:103D0C0000BFD7F840369BB20133A7F846363B1DAF
:103D1C00913380220021184600F0C1FD3B1D9133E8
:103D2C00C7F84836B7F84636C7F8403618E007F5F6
:103D3C000E72D7F8403613441B782C2B17D0D7F8BB
:103D4C0048365A1CC7F8482607F50E71D7F8402696
:103D5C000A4412781A70D7F840360133C7F8403647
:103D6C00B7F83C26D7F840369A42E0DC00E000BFBA
:103D7C00D7F840369BB20133A7F84636B7F846362B
:103D8C0007F50E72D35C302B04D13B1D002283F857
:103D9C0011210AE0B7F8463607F50E72D35C312BC9
:103DAC0003D13B1D012283F81121B7F846360133AC
:103DBC00C7F84036D7F840369BB20133A7F84636E1
:103DCC003B1D03F5897380220021184600F067FD26
:103DDC003B1D03F58973C7F84836B7F84636C7F864
:103DEC00403618E007F50E72D7F8403613441B78AE
:103DFC002C2B1DD0D7F848365A1CC7F8482607F587
:103E0C000E71D7F840260A4412781A70D7F840364B
:103E1C000133C7F84036B7F83C26D7F840369A42FB
:103E2C00E0DC06E001060020080000200010014044
:103E3C0000BFD7F840369BB20133A7F846363B1D7E
:103E4C0003F5C97380220021184600F028FD3B1DA4
:103E5C0003F5C973C7F84836B7F84636C7F8403685
:103E6C0018E007F50E72D7F8403613441B782C2B4C
:103E7C0017D0D7F848365A1CC7F8482607F50E71E4
:103E8C00D7F840260A4412781A70D7F84036013316
:103E9C00C7F84036B7F83C26D7F840369A42E0DCF3
:103EAC0000E000BFD7F840369BB20133A7F8463686
:103EBC003B1D03F2122310220021184600F0EFFCE8
:103ECC003B1D03F21223C7F84836B7F84636C7F83D
:103EDC00403618E007F50E72D7F8403613441B78BD
:103EEC002A2B17D0D7F848365A1CC7F8482607F59E
:103EFC000E71D7F840260A4412781A70D7F840365B
:103F0C000133C7F84036B7F83C26D7F840369A420A
:103F1C00E0DC00E000BF3B1D012283F82222B7F851
:103F2C003A3603F001039BB2002B0DD03B1D184613
:103F3C0000F01BF90F4A3B1D1046194640F2232393
:103F4C001A4600F0A1FC08E00B4A3B1D104619462E
:103F5C0040F223231A4600F097FC012387F84F36D2
:103F6C00064B00221A7097F84F36184607F5CA67A9
:103F7C00BD4680BDA438002040360020010600203C
:103F8C0080B5ACB000AF78600B467B800023A7F8FF
:103F9C00A2300023A7F8AE300023A7F8AC307B6822
:103FAC00C7F89C307868FCF7CBF80346A7F8A2302A
:103FBC0007F1180380220021184600F070FC07F16D
:103FCC00080310220021184600F069FC0023A7F812
:103FDC00AE300023C7F8A430B5E0D7F8A430D7F83A
:103FEC009C2013441B783A2B07D0B7F8A2305A1EEA
:103FFC00D7F8A4309A4240F09080B7F8A2305A1EFD
:10400C00D7F8A4309A4210D1B7F8AE305A1CA7F8A2
:10401C00AE201946D7F8A430D7F89C2013441A7850
:10402C0007F1B0030B4403F8A82C07F1080318465A
:10403C00FCF786F8034687F89B3097F89B30002BEB
:10404C0060D0002387F8AB3097F89B30022B2BD92C
:10405C003B7A1846FFF7F0FC03461A4692001344CD
:10406C001A4691001A460B4613449B0087F8AB3056
:10407C007B7A1846FFF7E0FC03461A4613469B0072
:10408C0013445B00DAB297F8AB30134487F8AB30CB
:10409C00BB7A1846FFF7D0FC03461A4697F8AB30AC
:1040AC00134487F8AB3021E097F89B30012B16D9DD
:1040BC003B7A1846FFF7C0FC03461A46920013449D
:1040CC005B0087F8AB307B7A1846FFF7B5FC0346EC
:1040DC001A4697F8AB30134487F8AB3006E03B7ABE
:1040EC001846FFF7A9FC034687F8AB30B7F8AC309D
:1040FC005A1CA7F8AC2007F1B002134497F8AB2078
:10410C0003F8982C07F1080310220021184600F040
:10411C00C6FB0023A7F8AE3010E0B7F8AE305A1C3F
:10412C00A7F8AE201946D7F8A430D7F89C20134432
:10413C001A7807F1B0030B4403F8A82CD7F8A43075
:10414C000133C7F8A430B7F8A220D7F8A4309A42AC
:10415C003FF743AF7A8807F118031946786800F0E7
:10416C0093FB00BFB037BD4680BD80B582B000AFB9
:10417C0078607B68013310211846FFF701FF7B68DC
:10418C00113380211846FFF7FBFE7B6891338021A9
:10419C001846FFF7F5FE7B6803F5897380211846F6
:1041AC00FFF7EEFE7B6803F5C97380211846FFF715
:1041BC00E7FE00BF0837BD4680BD000080B500AFEC
:1041CC00044B19684FF44073034A0448FCF7DAF9BE
:1041DC0000BF80BD040600200C080140083B0020F5
:1041EC0080B582B000AF7860294B4FF47F021A6122
:1041FC00274B4FF400421A61264B10221A61254AB4
:10420C00254B1B68D360224B80221A61204B4FF444
:10421C0000021A611E4B80221A611D4B4FF40002E2
:10422C001A611B4B80221A61194B4FF400021A6160
:10423C00184B4FF480121A61154B4FF000421A6163
:10424C00154B1B680133144A1360072B0CD9124B06
:10425C0000221A60114B1B78DBB2002B04D0FDF747
:10426C0063FE0E4B00221A700B4B1B68DBB2184618
:10427C00FDF76EFE02460A4B1A600A4B1B680022C1
:10428C005A620848FDF72BF900BF0837BD4680BDC0
:10429C0000080140000C0140080600200206002026
:1042AC00040600204C3B002080B582B000AF786043
:1042BC000448FDF72EF9FFF781FF00BF0837BD4614
:1042CC0080BD00BF4C3B002080B485B000AF78604F
:1042DC000B46FB707B68B3F800349BB201337A68F1
:1042EC00B2F8042493FBF2F102FB01F29B1AFB815E
:1042FC007B68B3F802349BB2FA899A420BD07B6884
:10430C00B3F800349BB219467B68FA785A547B6830
:10431C00FA89A3F8002400BF1437BD4680BC70474F
:10432C0080B485B000AF786039607B68B3F8003436
:10433C009AB27B68B3F802349BB29A421DD07B6868
:10434C00B3F802349BB21A467B689B5CFB737B68A8
:10435C00B3F802349BB201337A68B2F8042493FBAD
:10436C00F2F102FB01F29B1A9AB27B68A3F80224C9
:10437C003B68FA7B1A70002300E0012318461437BF
:10438C00BD4680BC704780B588B000AFF860B9609E
:10439C0011461A460B46FB8013467B710023FB83A8
:1043AC0000237B77FB881A460021B86800F077FA67
:1043BC00BB68BB612AE007F117031946F868FFF7E1
:1043CC00AFFFFB7D7A799A4204D17B7F002B01D120
:1043DC0001237B777B7F012B18D1FB8BBA691344AC
:1043EC00FA7D1A70FB7D97F828209A4219D0FB8B26
:1043FC000133FB83FA8BFB889A4207D3FB881A465E
:10440C000021B86800F04BFA01230CE0FB68B3F80C
:10441C0000349AB2FB68B3F802349BB29A42CAD108
:10442C0000E000BF002318462037BD4680BD0000C9
:10443C0080B582B000AF0E4B1B681B687B607B683D
:10444C0003F02003002B0ED0094B1B685B68FB703C
:10445C00FB7819460748FFF737FFFB780A2B02D188
:10446C00054B01221A7000BF0837BD4680BD00BF46
:10447C0064380020080000200106002080B584B0BC
:10448C0000AF78606423FB601148FCF7CAFB7A68C4
:10449C00FB689A420DD87868FBF7BCFE10E0F86810
:1044AC00FBF7B8FE0A48FCF7BCFB7A68FB68D31A2A
:1044BC007B607A68FB689A42F1D87868FBF7AAFEB1
:1044CC000348FCF7AEFB00BF1037BD4680BD00BFF4
:1044DC003436002080B483B000AF78603960FEE7DA
:1044EC0080B584B000AF2B4A2A4B9B6943F0010383
:1044FC009361284B9B6903F00103BB60BB68254AA1
:10450C00244BDB6943F08053D361224BDB6903F00E
:10451C0080537B607B680320FBF764FF0022002143
:10452C006FF00B00FBF769FF002200216FF00A000F
:10453C00FBF763FF002200216FF00900FBF75DFF22
:10454C00002200216FF00400FBF757FF002200212E
:10455C006FF00300FBF751FF002200216FF0010008
:10456C00FBF74BFF002200214FF0FF30FBF745FF1C
:10457C00094B5B68FB60FB6823F0E063FB60FB6846
:10458C0043F00073FB60044AFB68536000BF1037B4
:10459C00BD4680BD001002400000014080B584B0D3
:1045AC0000AF78607B681B682A4A934235D12A4A4F
:1045BC00294B9B6943F400639361274B9B6903F47C
:1045CC000063FB60FB68254B254A1A60234B1022C5
:1045DC005A60224B00229A60204B8022DA601F4BDB
:1045EC0000221A611D4B00225A611C4B00229A6159
:1045FC001A4B4FF40052DA611848FBF75DFF034683
:10460C00002B03D06E211748FFF764FF7B68134A19
:10461C001A62124A7B68536218E07B681B68B3F11C
:10462C00804F13D10C4A0C4BDB6943F00103D3616F
:10463C00094BDB6903F00103BB60BB680022062158
:10464C001C20FBF7DAFE1C20FBF7F3FE00BF103733
:10465C00BD4680BD002C014000100240083B0020EC
:10466C0058000240EC52000880B588B000AF78606A
:10467C007B681B681A4A93422DD11A4A194B9B69C5
:10468C0043F480439361174B9B6903F48043FB60B5
:10469C00FB684FF400733B6102237B610323FB61D6
:1046AC0007F1100319461048FCF70CF94FF480631E
:1046BC003B6100237B610023BB6107F110031946AA
:1046CC000948FCF7FFF8002207212520FBF795FE8F
:1046DC002520FBF7AEFE00BF2037BD4680BD00BFD6
:1046EC0000380140001002400008014080B400AFC7
:1046FC0000BFBD4680BC704780B400AFFEE780B4FD
:10470C0000AFFEE780B400AFFEE780B400AFFEE779
:10471C0080B400AF00BFBD4680BC704780B400AF12
:10472C0000BFBD4680BC704780B400AF00BFBD4623
:10473C0080BC704780B500AFFBF750FDFBF7B0FEB7
:10474C0000BF80BD80B500AF044B4FF47F021A61EF
:10475C000348FBF777FF00BF80BD00BF0008014096
:10476C00083B002080B500AF0248FCF7FCFE00BF00
:10477C0080BD00BF4C3B002080B500AFFFF758FE5A
:10478C0000BF80BD80B400AF154A154B1B6843F0C9
:10479C00010313601249124B5A68124B13404B60C1
:1047AC000F4A0F4B1B6823F0847323F48033136080
:1047BC000B4A0B4B1B6823F480231360084A084BED
:1047CC005B6823F4FE035360054B4FF41F029A60A1
:1047DC00054B4FF000629A6000BFBD4680BC70472D
:1047EC00001002400000FFF800ED00E0002103E0A3
:1047FC000B4B5B58435004310A480B4B42189A42FE
:10480C00F6D30A4A02E0002342F8043B084B9A42D2
:10481C00F9D3FFF7B7FF00F013F8FEF7AFF97047C5
:10482C000865000800000020E4050020E4050020D5
:10483C00B43D0020FEE70A22002100F0DDB80000A4
:10484C0070B500250C4E0D4CA41BA410A54209D12B
:10485C0000F014FD00250A4E0A4CA41BA410A5421E
:10486C0005D170BD56F8253098470135EEE756F85E
:10487C00253098470135F2E700650008006500080F
:10488C00006500080465000810B5431E0A449142F7
:10489C0000D110BD11F8014B03F8014FF7E70346A7
:1048AC000244934200D1704703F8011BF9E7000062
:1048BC000EB44FF4027100B59CB0ADF814106FF04B
:1048CC000041049107914FF6FF711DAB02900690C9
:1048DC00084853F8042BADF81610006802A9019390
:1048EC0000F010F90022029B1A701CB05DF804EB6A
:1048FC0003B07047140400202DE9F84F8046894618
:10490C0092461F468B465D460A9815F8014B00F0FF
:10491C0089F82044467816F008060BD12D2C0BD1C3
:10492C0001262C780BF1020567B1102F14D1302C15
:10493C000AD011E0AB46E6E72B2C04BF2C780BF128
:10494C000205F1E7302C27D12B7803F0DF03582B2D
:10495C004BD110276C780235002E0CBF6FF0004144
:10496C004FF000410022B1FBF7FE104607FB1E1C66
:10497C00A4F13003092B11D81C46A7421DDD531C92
:10498C0007D0864516D301D1A44513DB012200FBC9
:10499C00074015F8014BEBE70A27DDE7A4F14103CB
:1049AC00192B01D8373CE8E7A4F16103192B04D883
:1049BC00573CE2E74FF0FF32EBE7531C08D12223C0
:1049CC000846C8F80030BAF1000F07D1BDE8F88FDF
:1049DC0006B14042BAF1000F0CD022B1013DCAF829
:1049EC000050BDE8F88F4D46F9E73024002FB3D1C5
:1049FC000827B1E7BDE8F88F084B37B51C68084DA0
:104A0C00236A002B08BF2B46009313460A46014627
:104A1C002046FFF771FF03B030BD00BF1404002027
:104A2C0078040020D0F8EC00704782B001B901A9DD
:104A3C0042B14BB113780B601278101C18BF0120D7
:104A4C0002B070471046FBE76FF00100F8E72DE964
:104A5C00F0478E6882469E420C469146984635D861
:104A6C008A8912F4906F31D00223256809696F1A74
:104A7C00656905EB450595FBF3F508F101033B442E
:104A8C009D4238BF1D46530531D5294600F048FBE1
:104A9C00064650B90C23CAF80030A3894FF0FF30FA
:104AAC0043F04003A381BDE8F0873A462169FFF744
:104ABC00EBFEA38923F4906343F08003A38126616A
:104ACC003E44266046466561ED1BA560464528BF01
:104ADC00464649463246206800F0BBFAA3680020DF
:104AEC009B1BA36023681E442660BDE8F0872A4602
:104AFC0000F074FB06460028E1D12169504600F015
:104B0C00C3FAC7E72DE9F04F9DB003938B8980461C
:104B1C001C060D4616460FD50B696BB9402100F0EB
:104B2C00FFFA2860286128B90C23C8F800304FF030
:104B3C00FF30C4E040236B610023099320238DF8E0
:104B4C00293030234FF0010B8DF82A3037463C4684
:104B5C0014F8013B002B3CD1B7EB060A0BD05346A3
:104B6C00324629464046FFF772FF013000F0A28022
:104B7C00099B534409933B78002B00F09B80002346
:104B8C004FF0FF3204930793059206938DF8533040
:104B9C001A9305222178504800F04DFA671C049BAB
:104BAC00D8B9D90644BF20228DF853201A0744BF28
:104BBC002B228DF8532022782A2A16D000210A2085
:104BCC00079A27463B780134303B092B50D9C9B1A1
:104BDC0011E0252BC0D02746B9E73F4A3C46801A46
:104BEC000BFA00F018430490D3E7039A111D1268D6
:104BFC000391002A01DB079204E0524243F00203C6
:104C0C00079204933B782E2B0DD17B78791C2A2BA1
:104C1C0032D1039B02371A1D1B680392002BB8BFBD
:104C2C004FF0FF3305932D4C03223978204600F0CA
:104C3C0002FA38B14023001B03FA00F0049B013741
:104C4C00034304933978062225487E1C8DF82810DE
:104C5C0000F0F1F9002835D0224BFBB9039B073348
:104C6C0023F0070308330393099B4B4409936DE727
:104C7C0000FB02320121A4E700230A241846059305
:104C8C000F463A780131303A092A03D9002BCAD0A1
:104C9C000590C8E704FB00200123F1E703AB009368
:104CAC002A46114B04A94046AFF30080B0F1FF3FF8
:104CBC008146D9D1AB895B063FF539AF09981DB058
:104CCC00BDE8F08F03AB00932A46074B04A940467E
:104CDC0000F084F8EAE700BFCA630008D06300085C
:104CEC00D4630008000000005B4A00082DE9F0477F
:104CFC0091461F468A680B6906469342B8BF134615
:104D0C00C9F8003091F843200C46DDF8208012B130
:104D1C000133C9F800302368990642BFD9F8003036
:104D2C000233C9F80030256815F0060507D104F1E7
:104D3C00190AE368D9F800209B1A9D422ADB94F8E3
:104D4C0043302268003318BF012392062FD404F19C
:104D5C00430239463046C047013022D02368E5680B
:104D6C0003F00603042B18BF0025D9F800204FF0E0
:104D7C00000908BFAD1AA368226908BF25EAE575CA
:104D8C009342C4BF9B1AED181A344D451BD1002019
:104D9C00BDE8F0870123524639463046C047013002
:104DAC0003D14FF0FF30BDE8F0870135C1E730206B
:104DBC00E11881F843005A1C94F845102244023340
:104DCC0082F84310C3E70123224639463046C047D8
:104DDC000130E6D009F10109D7E700002DE9F043D5
:104DEC0017460A7E85B06E2A984606460C460C9BE2
:104DFC0001F1430E00F0BC801AD8632A2ED00AD8D9
:104E0C00002A00F0C880582A00F08A8004F142057C
:104E1C0084F842202AE0642A01D0692AF6D121685C
:104E2C001A6811F0800F23D0111D1960136827E048
:104E3C00732A00F0B48008D86F2A2AD0702AE5D1E2
:104E4C000A6842F020020A6003E0752A21D0782A11
:104E5C00DCD178226F4984F8452064E01A6801F1AE
:104E6C004205111D1960136884F842300123A3E038
:104E7C0011F0400F02F104011960D7D0B2F90030E3
:104E8C00002B03DA2D225B4284F8432062490A226C
:104E9C0017E02068196810F0800F03D0081D186007
:104EAC000B6806E010F0400F01F104001860F7D019
:104EBC000B886F2A14BF0A2208225749002084F855
:104ECC0043006568002DA560C0F29C80206820F02E
:104EDC0004002060002B3FD1002D40F095807546DA
:104EEC00082A0BD12368DA0708D5236962689A422D
:104EFC00DEBF302305F8013C05F1FF35AEEB0503B1
:104F0C002361CDF800803B4603AA21463046FFF7CB
:104F1C00EDFE013055D14FF0FF3005B0BDE8F08308
:104F2C0081F845203C492268186812F0800F00F186
:104F3C0004051D6001D0036802E05506FBD503880B
:104F4C00D00744BF42F0200222601BB9226822F035
:104F5C00200222601022B1E77546B3FBF2F002FB8F
:104F6C001033CB5C05F8013D03460028F5D1B7E7BB
:104F7C0008681A6810F0800F496904D0101D186079
:104F8C001368196007E010F0400F02F1040018607C
:104F9C001368F6D01980002375462361B1E71A68AF
:104FAC00111D1960156800216268284600F043F84D
:104FBC0008B1401B606063682361002384F84330B0
:104FCC009FE723692A4639463046C0470130A2D0B4
:104FDC0023689B0707D5002504F11909E368039A98
:104FEC009B1A9D4205DBE068039B9842B8BF1846AC
:104FFC0093E701234A4639463046C04701308AD0F0
:10500C000135EBE7002BA7D10B7804F1420584F8AE
:10501C00423065E7EC630008DB63000849B1FF2A06
:10502C008BBF8A230A700360012088BF4FF0FF30CA
:10503C0070470846704710B5C9B202449042034607
:10504C0001D1002010BD1C7801308C42F6D11846DD
:10505C0010BD884210B501EB020303D8421E9942E1
:10506C000CD110BD9842F9D28118D21AD34200D17A
:10507C0010BD13F8014D01F8014DF7E711F8014B84
:10508C0002F8014FEBE7000038B50546002943D084
:10509C0051F8043C0C1F002BB8BFE41800F0D4F8F6
:1050AC001E4A1368104633B9636014602846BDE885
:1050BC00384000F0CAB8A3420BD921686218934259
:1050CC0001BF1A685B685218226063600460EDE7E8
:1050DC0013465A680AB1A242FAD919685818A04264
:1050EC000BD120680144581882421960DED1106837
:1050FC005268014419605A60D8E702D90C232B601E
:10510C00D4E7206821188A4201BF11685268091837
:10511C00216062605C60C9E738BD00BF14060020E6
:10512C0070B5CD1C25F0030508350C2D38BF0C25AA
:10513C00002D064601DBA94203D90C233360002065
:10514C0070BD00F081F8234A1468214691B9224CB5
:10515C0023681BB9304600F067F8206029463046BA
:10516C0000F062F8431C26D10C233046336000F06B
:10517C006CF8E4E70B685B1B1AD40B2B0FD90B6094
:10518C00CC18CD50304600F060F804F10B00231D14
:10519C0020F00700C31A1BD05A42E25070BD8C425B
:1051AC000BBF63684B681360636018BF0C46E9E77C
:1051BC000C464968CAE7C41C24F00304A04205D07D
:1051CC00211A304600F030F80130CDD02560D9E7F7
:1051DC0070BD00BF1406002018060020F8B5074665
:1051EC0014460E4621B91146BDE8F840FFF798BFAA
:1051FC0022B9FFF749FF25462846F8BD00F026F8EE
:10520C0084420FD921463846FFF78AFF054600280D
:10521C00F2D031462246FFF737FB31463846FFF7CE
:10522C0033FFE9E73546E7E738B50023054C05467B
:10523C000846236000F014F8431C02D1236803B124
:10524C002B6038BDB03D00207047704751F8040CFE
:10525C000028A0F10400BCBF0B58C0187047000018
:10526C00044B0246196809B90349196018680244CD
:10527C001A6070471C060020B43D0020F8B500BF32
:10528C00F8BC08BC9E467047F8B500BFF8BC08BC1B
:04529C009E46704773
:1052A00002030405060708090A0B0C0D0E0F101067
:1052B00001020000526573706174690076312E320C
:1052C0002E330000683A25730000000076312E3539
:1052D0002E300000733A2573000000002E2E5C5320
:1052E00072635C6D61696E2E630000002E2E5C534C
:1052F00072635C73746D3332663178785F68616CA9
:105300005F6D73702E63000000000000003E5B4F75
:105310005B3E3E6B4F6B3E1C3E7C3E1C183C7E3C15
:10532000181C577D571C1C5E7F5E1C00183C180023
:10533000FFE7C3E7FF0018241800FFE7DBE7FF30B3
:10534000483A060E2629792926407F050507407F21
:1053500005253F5A3CE73C5A7F3E1C1C08081C1C94
:105360003E7F14227F22145F5F005F5F06097F018A
:105370007F006689956A606060606094A2FFA29475
:1053800008047E040810207E201008082A1C080843
:105390001C2A08081E101010100C1E0C1E0C303891
:1053A0003E3830060E3E0E06000000000000005F92
:1053B00000000007000700147F147F14242A7F2AAE
:1053C0001223130864623649562050000807030070
:1053D000001C2241000041221C002A1C7F1C2A08BC
:1053E000083E08080080703000080808080800001F
:1053F00060600020100804023E5149453E00427F93
:10540000400072494949462141494D331814127FE1
:105410001027454545393C4A494931412111090781
:105420003649494936464949291E00001400000002
:1054300040340000000814224114141414140041D4
:1054400022140802015909063E415D594E7C121191
:10545000127C7F494949363E414141227F414141C9
:105460003E7F494949417F090909013E4141517344
:105470007F0808087F00417F41002040413F017FB5
:10548000081422417F404040407F021C027F7F047D
:1054900008107F3E4141413E7F090909063E4151C6
:1054A000215E7F09192946264949493203017F01B6
:1054B000033F4040403F1F2040201F3F4038403FB7
:1054C000631408146303047804036159494D4300CD
:1054D0007F4141410204081020004141417F040204
:1054E000010204404040404000030708002054549B
:1054F00078407F2844443838444444283844442879
:105500007F385454541800087E090218A4A49C78CB
:105510007F0804047800447D40002040403D007F27
:105520001028440000417F40007C047804787C0807
:105530000404783844444438FC18242418182424DB
:1055400018FC7C08040408485454542404043F44C0
:10555000243C4040207C1C2040201C3C4030403CEF
:1055600044281028444C9090907C4464544C44004F
:1055700008364100000077000000413608000804AA
:105580000810083C2623263C000000000000000014
:1055900000000000000000000000000000000C00FF
:1055A0001238205840408041003E000000000000BA
:1055B0000000000004030406080E1819B0306060F3
:1055C000004000001800E00000070018C020E020A4
:1055D00020202018C007000000000000783C844212
:1055E000044104418442783C000000000000F807B8
:1055F000040802100220844F485030600000000070
:1056000060008001000E02307E404040404020306B
:10561000F00F000000007800840002010201FC3F4E
:1056200000400050003000000600FE0F00118020F6
:1056300080208010800F90007000000000000E0C91
:10564000101220212032400480088008000700004A
:105650000000E00F1010082008200820082010107B
:10566000E00F00000000000000000000000000004B
:10567000000000000000000004000400040004001A
:10568000F87FF87F04000400040004000400040014
:10569000FE7F05000500050005000500050005006A
:1056A0000500050005000500050005000500FE7F5A
:1056B0000400040004000400840764181C20042073
:1056C0000418040004000400840004010402CC0453
:1056D00034042402C4050418FC7F040004000401FF
:1056E0008402840444084410FC3F84004400C43F06
:1056F000040004018402840444084410242024404B
:10570000FC7F0400040004018462846444084410A3
:1057100024202440FC7F0400040004018562856489
:105720004508451025202540FE7F040004000401A3
:10573000840284044408441024202640FD7F050090
:10574000040004208440444124422444144814505A
:10575000FC7F04000400040084004401240214229D
:105760000C54FC7F0410042004000401840284040F
:10577000440844102420FE7F0500050004000400B6
:1057800064007C04240A440984104420FC7F040043
:105790000400FC004404240A14119420F47F440003
:1057A000E40704000400340214059404544864A877
:1057B000FCFF142494246443040034021405940868
:1057C0006410FC7F240214049404640304000401A4
:1057D000846284644408FC3F040284044404840317
:1057E0006400840104060408741054104410240852
:1057F0002406E40164008401040604687490549053
:10580000449024482406E4010400FC3F1440244052
:10581000442044204410440C840304000400FC1F72
:10582000145024B0446844284426844304000400EF
:1058300004000406041985207E4014402420C4106E
:10584000040F040004000C061409A40844100420EA
:10585000E47F24002401C40104008C0054012402CC
:1058600004220454E47F24102411C4210400C40140
:10587000A4012400440084210453FC7F041004206C
:105880000400040084034403440044008401040E23
:10589000FC7F040004000400850345034500450027
:1058A0008501050EFE7F0400000030002800E401A1
:1058B0008400480030002000FE7F0400000030001B
:1058C0002900E5018500490031002100FE7F040028
:1058D00018001400F200420024201850FE7F04102B
:1058E0000420042018001400F20042002420185064
:1058F000FE5F0440044004000C001C00340C640EE5
:10590000C407040C04180430FC7F04000C001C00C5
:1059100034066406C40304260454FC7F04100420E7
:105920000C001C00340C650EC507050C051805306D
:10593000FE7F040064005400140C240E4406FC0F87
:1059400004180430FC7F040064009400240C140E3E
:105950002406FC0F04180430FC7F04000C001C001B
:1059600034066406C40304260454FC5F0440044067
:10597000C400CC00F400040D040EFC07040804303D
:10598000FC7F0400C400DC00640C8C0E1407240CA3
:10599000FC3F4400440284010000F000280144025E
:1059A0004404440838100060000000000400046053
:1059B0000C621405A408441004200440FC7F040079
:1059C000040004001C03A4044408441004200640FE
:1059D000FD7F0500040004001C03A40444084410D7
:1059E00004200440FC7F040004000C001403A40401
:1059F0004408841004210442FC7F040004001400C5
:105A00002C0624092409941074100420FC7F04003F
:105A1000000084004A01420222041C0800100020F9
:105A2000FC7F0400000086004801480224041C0892
:105A300000100020FE7F0400000006004800C8009F
:105A400024011C220054FC7F0410042000000001EB
:105A50009802A4044408401020202040FC7F040049
:105A6000000000019902A5044508411021202240B0
:105A7000FC7F0400000000009800A40144024034B0
:105A80002058FC7F041004200000000270028804EB
:105A90008808881070200040000000000400050005
:105AA00006000400F97FF97F0400060005000400E9
:105AB00004000400040064409C410426041804000F
:105AC0000400040004000400850765181D2005205B
