:020000040800F2
:100000000050002099330008E5320008E93200086A
:10001000ED320008F1320008F5320008000000005F
:10002000000000000000000000000000F93200089D
:10003000FD3200080000000001330008053300080D
:10004000E1330008E1330008E1330008E133000840
:10005000E1330008E1330008E1330008E133000830
:10006000E1330008E1330008E1330008E133000820
:10007000E1330008E1330008E133000815330008DC
:10008000E1330008E1330008E1330008E133000800
:10009000E1330008E1330008E1330008E1330008F0
:1000A000E1330008E1330008E1330008E1330008E0
:1000B0002D330008E1330008E1330008E133000884
:1000C000E1330008E1330008E1330008E1330008C0
:1000D000E133000841330008E1330008E133000850
:1000E00039330008E1330008E13300080000000064
:1000F0000000000000000000000000000000000000
:0C01000000000000000000005FF808F1A3
:10010C0010B5054C237833B9044B13B10448AFF345
:10011C0000800123237010BDDC01002000000000D2
:10012C00283E000808B5034B1BB103490348AFF345
:10013C00008008BD00000000E0010020283E0008FF
:10014C00034613F8012B002AFBD1181A013870470B
:10015C0038B54FF47A730D490D4A09781268B3FB20
:10016C00F1F30546B2FBF3F000F0A0F808B90F2D3F
:10017C0001D9012038BD0446024629464FF0FF3014
:10018C0000F052F8034B20461D6038BD00000020E3
:10019C000800002004000020074A08B5136803205B
:1001AC0043F01003136000F02DF80020FFF7D0FF90
:1001BC0002F09CFF002008BD00200240034A044BC3
:1001CC0011681B780B441360704700BF2402002099
:1001DC0000000020014B1868704700BF240200206B
:1001EC0038B50446FFF7F6FF631C054602D0044BF6
:1001FC001B781C44FFF7EEFF401B8442FAD838BD35
:10020C00000000204FF6FF01064A0002D36800F4FC
:10021C00E0600B4043F0BF6343F400330343D3600F
:10022C00704700BF00ED00E0184B70B4DC68C4F3FD
:10023C000224C4F10706042E04F1040328BF04268B
:10024C00062B17D90125033CA540013D2A4001236B
:10025C00B340013B1940A140002841EA02010CDBEC
:10026C00090100F16040C9B200F5614080F800134B
:10027C0070BC704700221446E9E7054B00F00F00F4
:10028C000901C9B20344197670BC704700ED00E057
:10029C00FCEC00E0012300F01F01034A40098B40F5
:1002AC0042F82030704700BF00E100E00138B0F1A7
:1002BC00807F0DD230B4F02500220721054B064C6F
:1002CC00586084F82350104630BC9A60196070470F
:1002DC000120704710E000E000ED00E0044A042823
:1002EC0013680CBF43F0040323F00403136070473E
:1002FC0010E000E0704700BF08B5FFF7FBFF08BD3A
:10030C0000282ED00346F0B40024012687684268EA
:10031C0005681549C0683A43144F294402431869CB
:10032C00A7FB01715F6902433A439F6928683A430E
:10033C00DF6920F47F503A4320F030000C4F09095C
:10034C0002438900DF63204619642A609C62DC62E8
:10035C001C635C639C6383F8204083F82160F0BCD1
:10036C0070470120704700BFF8FFFDBFCDCCCCCC4F
:10037C0000000240F0B590F82040012C0CD0012573
:10038C0090F8214080F82050AC4208D00022022383
:10039C0080F820201846F0BD02231846F0BD002638
:1003AC004FF0020C056886632E68076CD0F83CE0B1
:1003BC00BC4026F00106476880F821C02E60CEF8BC
:1003CC0004406B60C36A102F0BBFAA60A960E96080
:1003DC00EA604BB12B6843F00E032B602A680023B4
:1003EC0042F001022A60D5E72B6823F004032B604E
:1003FC002B6843F00A032B60F0E700BF0422F0B433
:10040C00C66B016C346803688A4022421D681FD099
:10041C006F071DD51A68920603D41A6822F00402DD
:10042C001A603F4A93425DD01432934262D0143228
:10043C00934269D0143293426CD0143293425BD005
:10044C00143293420CBF4FF480034FF080634AE0A8
:10045C0002228A40224222D0AF0720D51A68910688
:10046C0006D401211A6822F00A021A6080F82110C1
:10047C002B4A93422CD01432934243D014329342E1
:10048C0045D01432934248D01432934237D01432B0
:10049C0093420CBF4FF400134FF0007319E0082285
:1004AC008A4022421CD02A071AD5012200271C6838
:1004BC00056B24F00E0402FA01F11C60716082637A
:1004CC0080F8212080F8207055B12B46F0BC1847DD
:1004DC0002230021134C826A636080F820103AB921
:1004EC00F0BC704704230F49C26A4B60002AF7D056
:1004FC00F0BC10474023F6E74FF48023F3E74FF4AA
:10050C000033E6E72023E4E74FF48063EBE74FF496
:10051C000073DEE74FF48043E5E74FF40053D8E770
:10052C0008000240000002402DE9F04F4FF0000897
:10053C0085B043466FF01F06DFF8DCE1DFF8DCC165
:10054C006F4F009005E00133102B06F1040600F00C
:10055C00898001220C689A401440A242F3D14D6864
:10056C00122D00F0A38000F28C80022D00F0A580EB
:10057C0040F28180032D00F09D80112D02D1CA68BC
:10058C0002F10408FF2C70D8009A4FEA830A9146B6
:10059C0012680F2505FA0AFB22EA0B0208FA0AFA7E
:1005AC0042EA0A02C9F80020D1F804A01AF0805FD0
:1005BC00C9D0DEF8189023F0030249F00109CEF8F7
:1005CC001890DEF8189002F1804209F00109CDF87C
:1005DC000C9002F5803203F00309DDF80CB04FEA01
:1005EC008909D2F808B005FA09F52BEA0500019043
:1005FC000098604577D0434DA84277D0424DA84231
:10060C0079D0424DA8420CBF4FF0030B4FF0040BB6
:10061C000BFA09F901981AF4803F40EA0905956034
:10062C003A6803F1010314BF2243A2433A607A688B
:10063C001AF4003F14BF2243A2437A60BA681AF43A
:10064C00801F14BF2243A243BA60FA681AF4001F39
:10065C0014BF144322EA0404102BFC6006F10406B8
:10066C007FF477AF05B0BDE8F08F0098B2464268D2
:10067C0000F104098DE7A5B1012D83D1D1F80C80CF
:10068C0080E7234885420CD01BD92248854208D0EC
:10069C0000F58030854204D0DFF884904D457FF41E
:1006AC0071AF8D68BDB94FF004086BE7CA6802F1F1
:1006BC000C0867E74FF0000864E7CA6802F1080805
:1006CC0060E7DFF860904D45EBD009F580394D457A
:1006DC007FF458AFE5E70098012D0CBF0261426131
:1006EC004FF008084EE74FF0000993E74FF0010B6D
:1006FC000BFA09F98EE74FF0020B0BFA09F989E7AF
:10070C0000040140000C01400010014000140140A5
:10071C0000002110000031100010024000080140C0
:10072C00000022100000111002B909040161704789
:10073C00C3685940C1607047044A5169014200D1F5
:10074C00704708B5506102F08FFC08BD00040140F1
:10075C00F8B138B504464CF6CC4545F255502368F3
:10076C006168A2681D60186059609A60FFF732FDDD
:10077C00054604E0FFF72EFD401B302807D8236800
:10078C00D8680028F6D14AF6AA221A6038BD032090
:10079C0038BD0120704700BF4AF6AA22036800202A
:1007AC001A6070472DE9F041036882B0DD070446FA
:1007BC0030D5AD494A6802F00C02042A00F0FA80E8
:1007CC004A6802F00C02082A00F0F0806368B3F566
:1007DC00803F00F07481002B00F00481B3F5A02F52
:1007EC0000F0A981A04B1A6822F480321A601A68B2
:1007FC0022F480221A60FFF7EDFC9B4D064605E0C3
:10080C00FFF7E8FC801B642800F217812B689A0321
:10081C00F6D523689F0728D5934A516811F00C0F21
:10082C0000F0A980516801F00C01082900F09F80AC
:10083C002369002B00F0328101228C4B8A4D1A6007
:10084C00FFF7C8FC064605E0FFF7C4FC801B022836
:10085C0000F2F3802B689807F6D52B68626923F0B9
:10086C00F80343EAC2032B6023681A075DD45D07C3
:10087C003AD57D4BDA69D00000F1A6800125DA6902
:10088C0042F08052DA61DB6903F080530093009BE5
:10089C00774B1A68D10540F1BF80E368012B00F05B
:1008AC001481002B00F0CD80052B6F4B1A6A00F0E1
:1008BC004F8122F001021A621A6A22F004021A62B3
:1008CC00FFF788FC684E804641F2883706E0FFF758
:1008DC0081FCA0EB0800B84200F2AF80336A9B07A2
:1008EC00F5D5002D40F0F780E369D3B15E4D6A6811
:1008FC0002F00C02082A45D0022B4FF000025D4B8F
:10090C0000F0EF801A60FFF765FC2C46054605E009
:10091C00FFF760FC401B022800F28F8023689B01CC
:10092C00F6D4002002B0BDE8F081A369002B2DD0D5
:10093C000122514B4C4D1A60FFF74CFC064604E06B
:10094C00FFF748FC801B022877D86B6A9B07F7D50A
:10095C004A4B4B4A1B68A2FB03235B0A019300BF63
:10096C00019B5A1E0192002BF9D123687FE7526834
:10097C00D6033FF55DAF3C4A1268950726D5226930
:10098C00012A23D0012002B0BDE8F0813A4A364D4D
:10099C001360FFF71FFC064604E0FFF71BFC801BEF
:1009AC0002284AD86B6A9F07F7D4DEE74A68D0035F
:1009BC007FF50CAF2C4A126891037FF52BAF626860
:1009CC00002A7FF427AFDDE7002561E7264960693F
:1009DC000A6822F0F80242EAC0020A601A077FF5A0
:1009EC0046AFA2E703F1804303F504331A681D46B2
:1009FC0022F480321A601A6822F480221A60FFF7FF
:100A0C00E9FB064604E0FFF7E5FB801B642814D8DD
:100A1C002B689B03F7D4FCE61A681E4642F48072DE
:100A2C001A60FFF7D7FB07463368DA053FF535AF99
:100A3C00FFF7D0FBC01B6428F6D9032002B0BDE839
:100A4C00F08103F1804303F504331A6A1E4622F049
:100A5C0001021A621A6A41F2883822F004021A6200
:100A6C00FFF7B8FB074612E00010024000004242BC
:100A7C0000700040600042428004424208000020A6
:100A8C00D34D6210FFF7A6FBC01B4045D5D8336A87
:100A9C009807F7D4002D3FF427AF1CE0344A354DAE
:100AAC001360FFF797FB064604E0FFF793FB801BF0
:100ABC000228C2D82B689907F7D42368D5E62D4AAB
:100ACC00136843F48033136095E62A4A136A43F0A3
:100ADC0001031362F4E6274AD36923F08053D361F0
:100AEC0002E71A60FFF776FB064604E0FFF772FB9D
:100AFC00801B0228A1D82B689901F7D4226AB2F581
:100B0C00803F2DD001251B4B606A5968024321F4AC
:100B1C00741119480A435A6005601C46FFF75AFBCA
:100B2C00054604E0FFF756FB401B022885D82368D6
:100B3C009A01F7D5F5E603F18043A3F53C331A6827
:100B4C0042F480221A601A6842F480321A6052E62B
:100B5C0042F004021A621A6A42F001021A62AFE60B
:100B6C006B68A16823F400330B436B60CAE700BFCA
:100B7C00000042420010024060004242654A136885
:100B8C0003F007038B420BD2136823F007030B43CC
:100B9C001360136803F00703994201D001207047DA
:100BAC002DE9F041036886B09A0706D55A4C856842
:100BBC00626822F0F0022A436260DB0706460C46AC
:100BCC0024D54268544B012A1B6800F09280022AFB
:100BDC0000F08780980729D54F4D41F288386B6813
:100BEC0023F0030313436B60FFF7F4FA73680746B3
:100BFC00012B65D0022B05D16DE0FFF7EBFAC01B82
:100C0C00404572D86B6813F00C0FF6D1414A13684B
:100C1C0003F007039C420DD2136823F00703234310
:100C2C001360136803F007039C4203D0012006B045
:100C3C00BDE8F0813368590706D53749F0684A6832
:100C4C0022F4E06202434A601A0707D5324A31693E
:100C5C00536823F4605343EAC10353600126022511
:100C6C002E4B06AF0FCB07E90F002B4C8DF8046011
:100C7C008DF80550626802F00C03082B0AD1C2F300
:100C8C0083433B4413F8101CD30336D4244B03FB8F
:100C9C0001F300E0234B204A234852682349C2F356
:100CAC000312825C0020D3400B60FFF751FA002046
:100CBC0006B0BDE8F081FFF78DFAC01B404514D893
:100CCC006B6803F00C03042BF5D19FE7FFF782FA56
:100CDC00C01B404509D86B6803F00C03082BF5D1F9
:100CEC0094E79D013FF578AFA0E7032006B0BDE87F
:100CFC00F0819F033FF570AF98E76268094BC2F330
:100D0C00404203FB01F33A4412F8142CB3FBF2F308
:100D1C00C1E700BF0020024000100240403E000826
:100D2C0000093D0000127A009049000808000020DC
:100D3C00014B1868704700BF08000020044B0549A0
:100D4C005B68054AC3F30223CB5C1068D84070473C
:100D5C0000100240A049000808000020044B05497F
:100D6C005B68054AC3F3C223CB5C1068D84070475C
:100D7C0000100240A04900080800002000284AD0BA
:100D8C0038B590F83D30044603F0FF0253B302230C
:100D9C002268224984F83D308A42136827D0B2F188
:100DAC00804F16D0A1F594318A4212D001F58061A2
:100DBC008A420ED0A569E068616823F080032B435A
:100DCC001360D062916201230020536184F83D309E
:100DDC0038BDA16823F070030B43216923F44073E1
:100DEC000B43E7E780F83C2002F0D0F9CFE7A1688D
:100DFC0023F070030B43216923F440730B43A16967
:100E0C0023F080030B431360E368D362636893623F
:100E1C0063691363D7E70120704700BF002C0140C2
:100E2C00022210B401240346016880F83D200A68B0
:100E3C00002022430A6083F83D4010BC704700BF7D
:100E4C0003680020DA6842F00102DA601A6842F0A6
:100E5C0001021A60704700BF704700BF00284AD0DB
:100E6C0038B590F83D30044603F0FF0253B302232B
:100E7C002268224984F83D308A42136827D0B2F1A7
:100E8C00804F16D0A1F594318A4212D001F58061C1
:100E9C008A420ED0A569E068616823F080032B4379
:100EAC001360D062916201230020536184F83D30BD
:100EBC0038BDA16823F070030B43216923F4407300
:100ECC000B43E7E780F83C20FFF7C6FFCFE7A168AC
:100EDC0023F070030B43216923F440730B43A16986
:100EEC0023F080030B431360E368D362636893625F
:100EFC0063691363D7E70120704700BF002C0140E2
:100F0C000122036802FA01F11A6A0A4822EA010274
:100F1C001A621A6A834241EA0201196205D01A6800
:100F2C00002042F001021A6070475A6C42F40042F1
:100F3C005A64F4E7002C014090F83C30012B43D06C
:100F4C00F0B50223012480F83D3080F83C400C2A97
:100F5C0032D8DFE802F065313131073131318E3171
:100F6C0031313B0003688F681D6A0E6825F010054F
:100F7C001D621A6A6C4DD3F804E09C6922F02002C1
:100F8C0024F4E644AB4242EA071244EA062400F099
:100F9C00AE804D68C3F804E09C619D631A629C6945
:100FAC000D6944F400649C61996921F48061996134
:100FBC009A6942EA05229A610023012280F83C30AA
:100FCC0080F83D201846F0BD0220704703688F68FA
:100FDC001D6A0E6825F480551D621A6A524DD3F8AD
:100FEC0004E0DC6922F4005224F4E644AB4242EA09
:100FFC00073244EA062465D04D68C3F804E0DC618E
:10100C001D641A62DC690D6944F40064DC61D96901
:10101C0021F48061D961DA6942EA0522DA61CBE711
:10102C0003688F681D6A0E6825F001051D621A6A37
:10103C003D4DD3F804E09C6922F0020224F07304C5
:10104C00AB4242EA070244EA06045FD04D68C3F89B
:10105C0004E09C615D631A629C690D6944F00804AC
:10106C009C61996921F0040199619A692A439A61FA
:10107C00A2E703688F681D6A0E6825F480751D62EF
:10108C001A6A294DD3F804E0DC6922F4007224F0CA
:10109C007304AB4242EA072244EA060418D04D68B6
:1010AC00C3F804E0DC61DD631A62DC690D6944F0AD
:1010BC000804DC61D96921F00401D961DA692A4399
:1010CC00DA6179E74D692EF4804E4EEA851E93E77E
:1010DC004F698D69CE6822F400622EF4405E42EABC
:1010EC0006223D4322F480624EEA051ED7E74F6983
:1010FC008D69CE6822F080022EF4406E42EA061210
:10110C003D4322F040024EEA850E42E7CF684D691E
:10111C008E6922F008022EF4407E3A43354322F0C9
:10112C00040245EA0E0E91E7002C014090F83C3089
:10113C00012B40D00222F0B40125036880F83D2039
:10114C009A680C6822F47F4222F07702402C80F8D7
:10115C003C509A6073D018D9702C60D02DD9B4F54E
:10116C00805F57D0B4F5005F1CD18A684D68CC689D
:10117C0099682A4342EA042221F47F410A439A6087
:10118C009A6842F480429A600CE0102C32D038D924
:10119C00202C6CD0302C05D19A6822F0700242F0D1
:1011AC0037029A600023F0BC012280F83C3080F8B2
:1011BC003D201846704702207047502C5ED0602CA2
:1011CC00F0D11C6A4D6824F01004CE681C62996939
:1011DC001A6A21F4704122F0A00242EA051241EA97
:1011EC00063199611A629A6822F0700242F0670225
:1011FC009A60D7E79A6822F0700242F017029A6060
:10120C00D0E7002CCED19A6822F0700242F007028F
:10121C009A60C7E79A6822F007029A60C2E78A6868
:10122C004D68CC6899682A4342EA042221F47F4134
:10123C000A439A609A6842F077029A60B2E71D6A94
:10124C001E6A4C6826F00106CF681E629A6925F06A
:10125C000A0122F0F00242EA071221439A61196254
:10126C009A6822F0700242F047029A609AE79A68F4
:10127C0022F0700242F027029A6093E71D6A1E6A00
:10128C004C6826F00106CF681E629A6925F00A01A7
:10129C0022F0F00242EA071221439A6119629A681D
:1012AC0022F0700242F057029A607BE7704700BF51
:1012BC00704700BF704700BF704700BF036810B590
:1012CC001A690446910702D5DA68920762D41A6942
:1012DC00500702D5DA68510749D41A69120702D5AA
:1012EC00DA68100731D41A69D20602D5DA68D0064A
:1012FC0018D41A69D10702D5DA68D2076BD41A69E7
:10130C00100602D5DA6811066DD41A69520602D598
:10131C00DA68500657D41A69910602D5DA68920633
:10132C0049D410BD6FF0100108221961DB69204609
:10133C0013F4407F227761D1FFF7B8FF2046FFF707
:10134C00B9FF002223682277D3E76FF0080104224B
:10135C001961DB6920469907227755D1FFF7A6FF63
:10136C002046FFF7A7FF002223682277BBE76FF028
:10137C000401022219619B69204613F4407F2277F5
:10138C003FD1FFF793FF2046FFF794FF002223681D
:10139C002277A2E76FF00201012219619B690277A3
:1013AC009B0728D1FFF782FF2046FFF783FF00221F
:1013BC00236822778BE76FF020022046BDE81040AF
:1013CC001A6100F04BB86FF0400220461A61FFF72B
:1013DC0073FF23689FE76FF0010220461A6101F04A
:1013EC002BFE23688BE76FF0800220461A6100F019
:1013FC0037F8236889E7FFF75BFFD8E7FFF758FF5B
:10140C009FE7FFF755FFC1E7FFF752FFABE700BFC0
:10141C0090F83C30012B1FD002460220F0B500257D
:10142C000126136882F83D005C68D1F800E024F0D6
:10143C0070045C6058684F6840EA0E0058609C6805
:10144C00284624F080049C6099683943996082F89E
:10145C003D6082F83C50F0BD02207047704700BFE1
:10146C00704700BF2DE9F04782460468C1682269C5
:10147C00836822F440520A432261E2680069DAF878
:10148C00141022F4B052034322F00C020B4313430A
:10149C00E3606369DAF81810514A23F440730B4384
:1014AC009442636159D0FFF749FCDAF8043000EB41
:1014BC00800000EB80009B00B0FBF3F3494F4FF032
:1014CC006408A7FB03235B091D01FFF737FCDAF85F
:1014DC00042000EB8000930000EB8000B0FBF3F6DF
:1014EC00FFF72CFCDAF8042000EB8000930000EBF3
:1014FC008000B0FBF3F3A7FB03235B0908FB13632A
:10150C001B013233A7FB03235B0903F0F006FFF743
:10151C0015FCDAF8042000EB800000EB800093004F
:10152C00B0FBF3F9FFF70AFCDAF8043000EB8000AB
:10153C0000EB80009B00B0FBF3F3A7FB03235B09DC
:10154C0008FB13931B013233A7FB0323C3F3431391
:10155C0033432B44A360BDE8F087FFF7FFFBDAF8B9
:10156C00043000EB800000EB80009B00B0FBF3F339
:10157C001C4F4FF06408A7FB03235B091D01FFF709
:10158C00EDFBDAF8042000EB8000930000EB800008
:10159C00B0FBF3F6FFF7E2FBDAF8042000EB800077
:1015AC00930000EB8000B0FBF3F3A7FB03235B0974
:1015BC0008FB13631B013233A7FB03235B0903F006
:1015CC00F006FFF7CBFBDAF8042000EB8000930069
:1015DC0000EB8000B0FBF3F9FFF7C0FBA4E700BF02
:1015EC00003801401F85EB5160B338B590F83930A5
:1015FC00044603F0FF0203B32423226884F8393035
:10160C00D368204623F40053D360FFF72BFF00254B
:10161C002021236828461A6922F490421A615A69DB
:10162C0022F02A025A61DA6842F40052DA60E56369
:10163C0084F8391084F83A1038BD80F8382001F05D
:10164C0015FED9E701207047002330B41B4D4FF035
:10165C0080212B702B781A48B3FA83F2520953006D
:10166C00541C134404EB440400EBC32300EBC424CC
:10167C0003F5407243F8041B9342FBD19C42F7D113
:10168C0001232B702B784FF08021B3FA83F252098F
:10169C005300541C134404EB440400EBC32300EB31
:1016AC00C42003F5407243F8041B9342FBD19842CB
:1016BC00F7D100232B7030BC704700BFF80100201D
:1016CC0028020020044B1A7812B901221A707047B4
:1016DC0000221A70704700BFF8010020054B064A23
:1016EC001B7800EB400003EB4303DB0203EB002011
:1016FC0010447047F80100202802002010B40D4B54
:10170C004FF080211B780C48B3FA83F25209530036
:10171C00541C134404EB440400EBC32300EBC4201F
:10172C0003F5407243F8041B9342FBD19842F7D166
:10173C0010BC7047F801002028020020F0B5C0F161
:10174C00BF00414B80B2BF281C7875D88BB2C3F157
:10175C001F0189B21F296FD8B4FA84F40F2984BFF2
:10176C00C3F10F0189B200B28CBF082600260729ED
:10177C004FEAE0034FEA541400F007005DD8C0EBC9
:10178C0003130F339BB2D5071CD5002E0CBF0127BA
:10179C00082760002044C50201EB410EDFF8ACC005
:1017AC0005EB0E20604410F813E05D0047EA0E0EC6
:1017BC0000F813E0013510F805E06EF07F0E47EAF3
:1017CC000E07475595071CD5002E0CBF0227102776
:1017DC0060002044C50201EB410EDFF870C005EB40
:1017EC000E20604410F813E05D0047EA0E0E00F87E
:1017FC0013E0013510F805E06EF07F0E47EA0E0796
:10180C004755520718D5002E0CBF0420202062002B
:10181C001444E4020D4A01EB410104EB0121114493
:10182C0011F813405A00044301F81340531CCA5CCE
:10183C0062F07F021043C854F0BD083900EB03136B
:10184C0089B29BB29FE700BFF8010020280200205C
:10185C002DE9F04F89B20D46A1B01F469DF8A84066
:10186C001D932646AD4B02EB820213441B9182B2B0
:10187C00197919921A941446C2F1BF021868C5F16D
:10188C001F038DF87C1091B2149199B207F00103EB
:10189C00129307F0040315931EAB1893B3B20D9378
:1018AC00BDF9B430BDF9ACB00193BDF9B83007F057
:1018BC00020908935B46BDF9B0A0CB469946189B2C
:1018CC001E9013941C911A4612F8013B11931C9B09
:1018DC00189206931B9B139A079300230C930D9B52
:1018EC00134417930C9A10E0079B0D9A13440E9314
:1018FC00069B9B1A0C9A9BB201320693BDF83830AA
:10190C00082A0C92079300F05781119B1341DF07B3
:10191C00EAD50D9B002B00F09581149B07991A4674
:10192C000D9BD4460B441FFA83F8CA46C146D846D1
:10193C0093460E93BDF85C30139F0A930FFA8BF10C
:10194C0008460029B8BFC81D4C4204F007044FEAF2
:10195C00E00001F007014FEA001058BF614280B26D
:10196C0089B2441A0F34A5B24446014489B2099194
:10197C00079B4900069A0B91CDF80CB0BA4507DCD1
:10198C00BC4505DB01998B4202DB08998B4216DDC5
:10199C0001339BB2013A4B4592B2EFD1DDF80CB05A
:1019AC0001370BF1FF331FFA83FB0A9BBFB29F4237
:1019BC00A046C3D1D146A346E2460D9A98E75849B2
:1019CC000978B1FA81FB03994FEA5B1BBF29DFD879
:1019DC001F2ADDD80F2A48D8072A12D81299904608
:1019EC00002940F03381002029460090BCB1022030
:1019FC000F9068000290500004904FEA4B00059045
:101A0C004EE0A2F108011FFA81F81299002940F06A
:101A1C008B80002009990090002C40F0A88115982B
:101A2C000028B5D0009808EB480E002814BF2020E1
:101A3C00042000904FEA4B0058443A4EC00200EB91
:101A4C000E20304410F81180009E4FEA410E46EAF9
:101A5C00080800F811800EF1010E10F80E1061F05C
:101A6C007F010E4300F80E6092E7A2F110011FFAFD
:101A7C0081F8B8F1070F3CD81299002940F0718118
:101A8C00082029460090002CC9D0680002904FEA2B
:101A9C0048064FEA4B000496059010200F900598CD
:101AAC005844C6020498404406EB00261D480644E0
:101ABC00B6460496029E1EF80600109030460F9E05
:101ACC000130B646109E059004984EEA060E7646F6
:101ADC00864602980EF8006005980F9E1EF800E0EE
:101AEC0002906EF07F0E46EA0E0E049E06F800E0A1
:101AFC0095E7A2F118011FFA81F81299002955D126
:101B0C00082009990090002C89D00B9802904FEA7C
:101B1C00480004904FEA4B000590BEE7503E000889
:101B2C00F8010020280200200999002000900120D3
:101B3C0010904FEA4B0000EB0B0E05904FEA48005B
:101B4C0004904FEACE2E40440EEB002E8D4870448C
:101B5C0010F811E00F90480002901098064646EAE3
:101B6C000E0086460F980646480006F811E0461C03
:101B7C000F98B646064616F80E60109866F07F066B
:101B8C0016960646169806430F98109606469DF82C
:101B9C00400006F80E00002C3FF441AF00980028DE
:101BAC007FF47BAF02200F90059879E70821084657
:101BBC00009110900999BCE7149B0D9A9B1A9BB24B
:101BCC001493BDF85C300DF17D021393189B9A426F
:101BDC007FF479AE1A9B012B31D91D9B0D9F0B9372
:101BEC00199BCDF830900A93099307931EAB04937D
:101BFC00CDF834A01EAA9B1A23F002039BB2012B32
:101C0C0026D0199B3B440F93079B3B441293099B93
:101C1C003B4411930A9B3B440E93BDF83C20049B20
:101C2C001992BDF8482001330792BDF84420049363
:101C3C000992BDF838200A92189A9342DAD121B051
:101C4C00BDE8F08F079B0D9A0E9351E629466CE781
:101C5C0000931B9B099A9946984603930293079B02
:101C6C00BA183B4412939BB2159393B21693199BDB
:101C7C0004993B440F930A9B0978FB180E93009B25
:101C8C0011920691069A013B109342FA03F3DE0778
:101C9C001AD409EB0703059308EB0706039B3B4497
:101CAC009846029B3B449946009B1FFA89F20133EC
:101CBC000292092B1FFA88F2009303921FFA86F8FE
:101CCC00BDF81490DED1A8E7049B13F8016C109BAF
:101CDC0046FA03F3DD0726D509EB0703059308EB5A
:101CEC000706049B93F80190109B49FA03F3D9075C
:101CFC00D4D4009B023B49FA03F2D20705D5069ACD
:101D0C0042FA03F313F001033ED0039B3B44984685
:101D1C00009B49FA03F3DB0700F1C280029B3B44B2
:101D2C009946009BC1E7009B023B46FA03F2D4079D
:101D3C0005D5069A42FA03F313F001036CD009EBB4
:101D4C0007030593009B46FA03F3D80706D5069BB9
:101D5C00009A134113F0010300F0F58008EB07061D
:101D6C00BFE708210846009110902946E1E60220C1
:101D7C000F900B9802904FEA480004904FEA4B00EA
:101D8C0005908DE628020020002F42D09A4633465B
:101D9C00039ADDF854B002EB070807991FFA8AF290
:101DAC008C180399A4B2891AA8EB020292B213926E
:101DBC0042469846134689B210910C9AA24216DC00
:101DCC000D9AA24213DB109D26B2019A954209DBB3
:101DDC00089A954206DC0B9A29B230461493FFF709
:101DEC00ADFC149B0135139AADB29542EDD1013483
:101DFC00A4B25C45E1D11A46434690461A9A0AF1C0
:101E0C00010A0BF1010B92451FFA8BFBC5D11E4643
:101E1C007EE7DDF80C807BE7002F3ED009EB070254
:101E2C009A463B46374605921FFA82FB0A990E9852
:101E3C001FFA8AF28C1AA9EB0201821A89B292B2A9
:101E4C00A4B2139114920C9AA24215DC0D9AA242E0
:101E5C0012DB139D26B2019A954209DB089A954232
:101E6C0006DC0B9A29B230461793FFF767FC179BD9
:101E7C000135ADB25D45EED10134149AA4B2944251
:101E8C00E1D11A9A0AF1010A0BF1FF3B92451FFAB4
:101E9C008BFBCBD13E461F4654E7CDF8149051E74F
:101EAC00069B009A134113F0010A04D0029B3B4499
:101EBC0099461346F9E6002F41D0029B03EB070924
:101ECC001FFA89F303934346B04619991FFA8AF215
:101EDC008C180299A4B201EB020B0F991FFA8BFB21
:101EEC000A4492B210920C9AA24216DC0D9AA242AB
:101EFC0013DB5D4626B2019A954209DB089A95429E
:101F0C0006DC0B9A29B230461393FFF717FC139B90
:101F1C000135039AADB2AA42EDD10134109AA4B2A4
:101F2C00A242E0D1039A0AF1010A013292B2039261
:101F3C001A9A9245C9D146469846009BB5E6DDF8FB
:101F4C0008901346B1E6002F42D008EB07069A46DC
:101F5C003B463746DDF8589009991FFA8AF208EB90
:101F6C00020B8C1A3A4492B213923A461F4613460D
:101F7C001FFA8BFBA4B20C9AA24216DC0D9AA24259
:101F8C0013DB5D4626B2019A954209DB089A95420D
:101F9C0006DC0B9A29B230461493FFF7CFFB149B47
:101FAC000135139AADB2AA42EDD10134A4B2A145C8
:101FBC00E1D11A463B4617461A9A0AF1010A09F171
:101FCC00FF3992451FFA89F9C6D13E461F4688E66D
:101FDC00464686E6F0B500241F27BF2687B09DF83D
:101FEC00305004970394019402960095FFF730FC4F
:101FFC0007B0F0BD2DE9F04F87B09DF840909DF8EB
:10200C004470EBB10026013B88469BB207EB4701BD
:10201C0002EB030B84B2551E4FEA410A1F2315F83D
:10202C00012F0493BF2320B20293039601960097CD
:10203C004B464146FFF70CFC5444AB45A4B2EDD1E2
:10204C0007B0BDE8F08F00BF2DE9F04F8BB0BDF9A4
:10205C0058409DF850A00694BDF95C409DF8547012
:10206C000794BDF96040BDF964B008942BB3894660
:10207C000993013B9BB207EB470684B202EB0308C2
:10208C00551E7600089B15F8012F0393079B20B271
:10209C000293069BCDF810B0019300975346494626
:1020AC00FFF7D6FB3444A845A4B2EBD1099B06FB41
:1020BC0003F630B20BB0BDE8F08F18460BB0BDE89C
:1020CC00F08F00BF2DE9F04F87B09DF840409DF890
:1020DC0044500394002B49D014465A1E92B2A218B5
:1020EC0005EB850505926A000492621E8BB21146BF
:1020FC0003F110061FFA80FB0192B6B20BF10A092C
:10210C005F46CDF808B09B4611F8012F1FFA89F9EC
:10211C000191184902EB820201EB8208A8F1020836
:10212C00BF2F38F8025F12D85C460FFA87FA15F009
:10213C00010F4FEA550506D01F2C21B203D8039A84
:10214C005046FFF7FBFA0134A4B2A642EFD1013797
:10215C00BFB24F45E4D1049A5B46DDF808B0019953
:10216C009344059A1FFA8BFB8A42C7D107B0BDE88E
:10217C00F08F00BFD04000082DE9F04F8BB0BDF9B7
:10218C0058509DF850400195BDF964500894BDF924
:10219C005CA09DF85440BDF960B00395002B5AD05B
:1021AC001D4689B20993049103460846691E89B2FB
:1021BC005118013A02925A469BB2D3469A4613469C
:1021CC0004EB840400F1100707916000029906905B
:1021DC00BFB24FF0000811F8012F0291204902EB19
:1021EC00820201EB8209A9F102090AEB080636B258
:1021FC00B34539F8025F12DD019AB2420FDC049C40
:10220C0015F0010F21B24FEA550504D08B4202DCC8
:10221C00039A8A4218DC0134A4B2A742F0D108F127
:10222C000108B8F10A0FE0D1069A02999244079A74
:10223C001FFA8AFA8A42CCD1069B099A03FB02F355
:10224C0018B20BB0BDE8F08F089A30460593FFF733
:10225C0075FA059BDFE718460BB0BDE8F08F00BFA1
:10226C00D04000082DE9F04F404C414D2378C7B0C9
:10227C00B5F9006083B904F5C97304F589723D4959
:10228C0006A801F0E5F806A8FDF75AFF03B2042BE7
:10229C0052DC47B0BDE8F08F04F58970FDF750FFB4
:1022AC0010274FF001084FF0200A4FF0C00983B2FD
:1022BC000296CDF814A004973946CDF80C90CDF8C1
:1022CC000480CDF8008004F589723046FFF754FF86
:1022DC00304485B20FFA85FBBBF1BF0FD9DC264821
:1022EC00FDF72EFF022283B20092CDF814A00497C2
:1022FC00CDF80C900296CDF8048058461E4A39460B
:10230C00FFF73AFF05442DB2BF2DC2DC04F5C970AE
:10231C00FDF716FFCDF814A083B20497CDF80C90FE
:10232C000296CDF80480CDF8008004F5C9723946C8
:10233C002846FFF721FFACE74FF0200C10214FF09F
:10234C00C00E02270124B5F9002083B20292304658
:10235C0006AACDF814C00491CDF80CE08DE89000DD
:10236C00FFF772FE47B0BDE8F08F00BF903B002036
:10237C001402002038490008644900084FF47F0219
:10238C00104B70B5104C1A6123680133072B236076
:10239C0008D900260D4D26602B7873B90C4A1368AA
:1023AC00013313602068C0B2FFF798F94FF4801224
:1023BC000849094B08601A6170BDFFF783F92E704C
:1023CC00ECE700BF000801400802002010020020CA
:1023DC0004020020FC010020000C01402DE9F04F0C
:1023EC00A5B088468146FDF7ABFE824600248022CC
:1023FC0004A800211FFA8AFA01F021F80094019434
:10240C0002940394BAF1000F49D02646234627467E
:10241C0009F1FF350AF1FF3B0AE0A34547D024A898
:10242C000134591C5445034403F8902C8BB236D01C
:10243C0015F8012F3A2AF0D1A34538D06846FDF79C
:10244C007FFEC0B210B39DF800200128A2F130032A
:10245C00DBB23FD0092B2FD803EB83035B00DAB23E
:10246C009DF80110A1F13003DBB2092B06D9A1F1C3
:10247C006103052B3ED8A1F15703DBB21344DBB249
:10248C0024A9721C0E4406F8803C96B201345445C3
:10249C0000970197029703974FF00003C8D142466B
:1024AC0004A9484600F0C0FF25B0BDE8F08F24A970
:1024BC000B4403F8902CC1E7A2F16103052B13D94F
:1024CC00A2F14103052B27D8373A02EB82025300C5
:1024DC00DAB2C5E7092BD3D9A2F16103052B12D8C7
:1024EC00A2F15703DBB2CBE7573A02EB820253005F
:1024FC00DAB2B5E7A1F14103052B9ABFA1F137037D
:10250C00DBB20023BAE7A2F14103052B9ABFA2F17B
:10251C003703DBB20023B3E70022A1E72DE9F04338
:10252C00CE4DADF2446D2A78D4B2012C04D00020EB
:10253C000DF2446DBDE8F0834FF0000890AE4FF4FF
:10254C008062C749304600F06FFF304685F8008046
:10255C00FDF7F6FD85B2012D40F28E8177782A2F9A
:10256C0000F08F81224641463B460DF2412004E0AB
:10257C0010F8013F2A2B00F0398101324B40AA425E
:10258C00D9B2F5D138460222A0F13003DBB2092BC7
:10259C0000F223811B01D8B2B25CA2F13003DBB292
:1025AC00092B07D9A2F16103052B00F22481A2F1BA
:1025BC005703DBB203438B42B9D10023012D0393A4
:1025CC0004930593069340F263812C2F00F05D81F8
:1025DC0003AB681E012218440DF2412103E011F8EF
:1025EC00017F2C2F05D003F8017B984202F10102E8
:1025FC00F5D101321FFA82F903A800F0ECFE00239A
:10260C000DF11D0400F001020DF11C084D4587B2BF
:10261C0088F8002023606360A360E36013DD16F884
:10262C0009102C290FD009F10102234632447019EC
:10263C0003E012F8011B2C2905D0904203F8011B72
:10264C00A2EB0609F5D109F101031FFA83F90DF18B
:10265C002D008022002100F0F2FEA9454B4616DA2F
:10266C0016F809202C2A12D005F1110EAEEB090E2A
:10267C000DF12D01C644F01803E010F8012F2C2A9F
:10268C0005D001F8012B714503F10103F5D101339C
:10269C001FFA83F90DF1AD008022002100F0CFFE6E
:1026AC00A9454B4616DA16F809202C2A12D005F14A
:1026BC00910EAEEB090E0DF1AD01C644F01803E01E
:1026CC0010F8012F2C2A05D001F8012B714503F1CC
:1026DC000103F5D101339BB2F25C302A00F0C880C3
:1026EC00312A04BF012288F8112102331FFA83F921
:1026FC000DF597708022002100F0A1FEA9454B46F4
:10270C0016DA16F809202C2A12D005F5897EAEEBC4
:10271C00090E0DF59771C644F01803E010F8012F5F
:10272C002C2A05D001F8012B714503F10103F5D1D9
:10273C0001331FFA83F90DF5D7708022002100F0C8
:10274C007EFEA9454B4616DA16F809202C2A12D023
:10275C0005F5C97EAEEB090E0DF5D771C644F01820
:10276C0003E010F8012F2C2A05D001F8012B71453C
:10277C0003F10103F5D1002201339BB2AB42CDF83A
:10278C002E22CDF83222CDF83622CDF83A2212DAAA
:10279C00F15C2A290FD005F21220C01A0DF22E225C
:1027AC0040441E4403E016F8011F2A2903D002F806
:1027BC00011B8242F7D1012388F82232FB072DD46A
:1027CC00414640F22322274800F02EFE26484FF4C3
:1027DC000051FDF7ADFF0120AAE6A0F16103DBB2C9
:1027EC00052B11D857380301D8B2D5E692B2531C39
:1027FC000232F05CC8E6A2F14103052B9ABFA2F1AC
:10280C003703DBB20023D5E6A0F14103DBB2052B85
:10281C009DBF37380301D8B20020BDE620461021F9
:10282C00FFF7DCFD0DF12D008021FFF7D7FD0DF139
:10283C00AD008021FFF7D2FD0DF597708021FFF7D9
:10284C00CDFD0DF5D7708021FFF7C8FD414640F254
:10285C002322064800F0E8FDB8E700BF1202002072
:10286C00903700204432002000100140A834002092
:10287C00002288F8112138E7707841460746022279
:10288C0082E6414603220223B3E74FF00209B3E686
:10289C0003A8019300F09FFD019B0DF11D040DF1A8
:1028AC001C0800F0010287B288F8002023606360E6
:1028BC00A360E3604FF00209C5E600BF70B54FF4AA
:1028CC00803201230926002502244FF4E01190B038
:1028DC0006A8069607920E9208950A930C930D94EF
:1028EC000F91FDF75FFF00B1FEE703464FF48062E6
:1028FC000F25214601A80294039305930195049298
:10290C00FEF73CF9044600B1FEE7FEF711FA084B5E
:10291C00A3FB00308009FDF7C9FC0420FDF7DEFCA9
:10292C00224621464FF0FF30FDF77EFC10B070BD03
:10293C00D34D62102DE9F04F864C9BB00025FDF76E
:10294C002BFCFFF7BBFFA369012243F01003A3612B
:10295C00A3694FF4005103F010030993099BA36979
:10296C007D4843F02003A361A369174603F02003BD
:10297C000A930A9BA369032643F00403A361A3698A
:10298C0003F004030B930B9BA36943F00803A361AF
:10299C00A36903F008030C930C9BFDF7C5FE2A46B4
:1029AC00BF216E48FDF7C0FE2A461F216C48FDF77B
:1029BC00BBFE4FF4005313A9674813931497159556
:1029CC001696FDF7B1FD4FF48042664B13A9624891
:1029DC00139214931597FDF7A7FD4FF4004313A919
:1029EC005D4813931496FDF79FFDBF2313A95B4815
:1029FC001393149715951696FDF796FD4FF4CA533D
:102A0C0013A9564813931496FDF78EFD1F2313A993
:102A1C0053481393149715951696FDF785FD4FF6AD
:102A2C00E07313A94E4813931496FDF77DFD2A46C7
:102A3C0029462820FDF7F8FB2820FDF72BFC6369BD
:102A4C002A463B436361636929463B4008930F2048
:102A5C00089BFDF7E9FB0F20FDF71CFC0B23424CF8
:102A6C00424A20466560A56025616561A5612260CA
:102A7C00E360FEF783F900B1FEE74FF4805613A92B
:102A8C0020461396FEF752FB034600B1FEE70FA952
:102A9C0020460F931093FEF7BBFC034600B1FEE7F4
:102AAC004FF0804143F63F02314D284629606B6060
:102ABC00AB602B61AB61EA60FEF760F900B1FEE739
:102ACC000FA928460F96FEF731FB00B1FEE728460A
:102ADC00FEF7C4F9034600B1FEE720220DA92846F3
:102AEC000E930D92FEF794FC00B1FEE74FF4615388
:102AFC0060264FF004080246159013A92846139639
:102B0C001493CDF85C80FEF717FA074600B1FEE788
:102B1C00284600F089FB4FF4E1210C23154E164A90
:102B2C0030467160B760F7603761B761F76132604A
:102B3C007361FEF759FD00B1FEE740F271210F4BB6
:102B4C000F4A1846996083E80401FDF701FEC8B1ED
:102B5C00FEE700BF001002400010014000080140D9
:102B6C00000C014000002110CC360020002C01404C
:102B7C0050370020683400200038014038320020E3
:102B8C0000300040A948FDF707FEFEF75DFD002070
:102B9C00FEF7A4FDA64B22681860D368A54943F440
:102BAC008073A54CD360A5488C62FEF739F9A44814
:102BBC00FEF746F90021A248FEF7A2F943F2F8729B
:102BCC0000242B6831685A63CB68224643F02003FB
:102BDC00CB609C484FF40051FDF7A6FD9348FDF7E0
:102BEC00DBFD6420FDF7FCFA9048A146A346A04605
:102BFC002646FDF7D1FD944D944FFDF7EBFA944B1F
:102C0C0018608A48FDF7C8FDFFF788FC38B14FF013
:102C1C00000B8F4B1B6803F51C5808F110082EB9DC
:102C2C008B4B1B6898454ED89B4517D9894B93F80D
:102C3C0000A05FFA8AFABAF1010FDED1FEF75EFD51
:102C4C00854B52464FF400517E4883F800A0FDF7A7
:102C5C006BFD00237F4A56461370CEE703F59C5B51
:102C6C007E4B0BF1080B1E605E609E60DE607C4B41
:102C7C001E605E609E60DE60FEF740FD002C3FD162
:102C8C007848FDF75DFA4FF0010983B22146754A89
:102C9C003820CDF80490CDF80090FFF713FA724865
:102CAC00FDF74EFACDF8049083B2CDF800906E4A41
:102CBC00102142204C46FFF705FA0123664A4FF0DB
:102CCC0000091370B2E79945B0D803F59C5909F186
:102CDC00080940F2232244B364495B4800F0A4FB8A
:102CEC006348FDF72DFAC4B284BB5C48FDF728FAA3
:102CFC00C0B2002814BF4FF000094FF0000895E750
:102D0C0001244FF002090A238DE81002594A31467A
:102D1C002420FFF76FF98DE810020823564A102182
:102D2C003020FFF767F93446C7E75449464800F0AE
:102D3C007BFB4F48FDF704FAC4B2002C40F06081D5
:102D4C004748FDF7FDF90124C0B2D2E70796FEF71C
:102D5C00D5FC012C00F04881022C00F03881032CAA
:102D6C0000F01981042C00F0F280052C00F0C380D7
:102D7C00062C00F08B80B7F900404148FDF7E0F9D4
:102D8C00C3B2002B4FD02978002937D102224FF043
:102D9C00100C4FF0C00E0192009204910294204648
:102DAC00CDF814C0CDF80CE0354AFFF74DF93B884F
:102DBC0003441CB2334B1C803348FDF7C1F983B27A
:102DCC00ABB12978002900F01E8101224FF0100CC4
:102DDC0000214FF0C00E0192009202942046CDF8D3
:102DEC0014C00491CDF80CE0274AFFF7C5F9FFF7A2
:102DFC0039FA0123184A079C137017E74FF0100A91
:102E0C0000214FF0C00C4FF0010E022202948DE80D
:102E1C0004402046CDF814A00491CDF80CC0184AFB
:102E2C00FFF7AAF9C3E7174B1C80C5E7383200201F
:102E3C00FC0100200C37002089230008CC36002030
:102E4C005037002000100140903B0020140200205D
:102E5C000C0200200002002010020020563400203A
:102E6C00BA3600201849000844490008A83400204C
:102E7C00A23D002028490008544900084432002093
:102E8C00913B002016020020A13B002002240021CF
:102E9C0095F81222084600940123FFF79BF895F849
:102EAC0013220123009400210C20FFF793F895F8CE
:102EBC0014220123009400211820FFF78BF895F8B9
:102ECC0015220123009410210020FFF783F895F8B8
:102EDC0016220123009410210C20FFF77BF895F8A3
:102EEC0017220123009410211820FFF773F82623D2
:102EFC001C463B8041E70224002195F8122208462B
:102F0C0000940123FFF766F895F81322012300942F
:102F1C0000210C20FFF75EF895F814220123009491
:102F2C0000211820FFF756F895F81522012300947C
:102F3C0010210620FFF74EF895F81622009426244F
:102F4C00012310211220FFF745F83C8015E70224DD
:102F5C00002195F81222084600940123FFF73AF855
:102F6C0095F813220123009400210C20FFF732F86E
:102F7C0095F814220123009400211820FFF72AF859
:102F8C0095F8152200942624012310210C20FFF71C
:102F9C0021F83C80F1E60224002195F81222084623
:102FAC0000940123FFF716F895F8132201230094DF
:102FBC0000210C20FFF70EF895F8142200941A2427
:102FCC00012310210620FFF705F83C80D5E60321EC
:102FDC00012223461424019100920421144A00205A
:102FEC00FFF708F83C80C8E604212346162495F820
:102FFC001222002000910221FEF7ECFF3C80BCE67F
:10300C0001230793A3E64FF0100A4FF0C00C4FF0CA
:10301C00020E012204918DE8044002942046CDF862
:10302C0014A0CDF80CC0034AFFF70EF8DFE600BF82
:10303C00A23D0020A13B0020064B07491B68074A14
:10304C0043F01003CB6011684FF44073044A0548F9
:10305C00FDF790B908020020000C0140FC01002093
:10306C000C0801400C370020B0F5804F00D07047A1
:10307C000122054B00F180404FF4005100F5504007
:10308C001A70FDF755BB00BF00020020124B1B68E5
:10309C001A6892060FD510B55C68E4B2242C10D0D7
:1030AC000A2C09D00D490B780D48DBB25A1CD2B250
:1030BC00C4540A7010BD704701220A4B07491A709C
:1030CC00F1E700214FF48062054800F0B8F90023C5
:1030DC0002490B70E7E700BF6834002011020020A2
:1030EC009037002012020020FEE700BF254B00B5F0
:1030FC009A6983B042F001029A619A69032002F046
:10310C0001020092009ADA6942F08052DA61DB69BE
:10311C0003F080530193019BFDF774F800226FF0CC
:10312C000B001146FDF780F800226FF00A001146E3
:10313C00FDF77AF800226FF009001146FDF774F8DC
:10314C0000226FF004001146FDF76EF800226FF0BC
:10315C0003001146FDF768F800226FF001001146DC
:10316C00FDF762F800224FF0FF301146FDF75CF8D6
:10317C00054A536823F0E06343F00073536003B0D7
:10318C005DF804FB0010024000000140F0B5224A3B
:10319C00036883B0934218D0B3F1804F01D003B0D1
:1031AC00F0BD002203F50433DC69114644F0010440
:1031BC00DC61DB691C2003F001030193019BFDF72B
:1031CC0033F81C20FDF766F8E9E7044610200023CD
:1031DC0080274FF4005602F5644291690F4D41F47B
:1031EC0000616860916192690D4902F4006200927D
:1031FC002846009A2960EF60EE61AB602B616B6131
:10320C00AB61FDF77DF810B925626C62C7E76E21E2
:10321C000448FFF769FFF7E7002C01400C3700204A
:10322C0058000240744900080368B3F1804F00D085
:10323C00704710B5022203234FF4004484B0694652
:10324C000848019203930094FDF76EF9064A5368FF
:10325C0023F4407343F0E06343F48073536004B091
:10326C0010BD00BF00080140000001400268184B6F
:10327C009A4200D0704770B54FF4007602250324B3
:10328C0003F558439A6986B042F480429A619B696F
:10329C0002A903F4804301930E48019B0594029606
:1032AC0000240395FDF740F94FF4806302A9094807
:1032BC00029303940494FDF737F922462146252006
:1032CC00FCF7B2FF2520FCF7E5FF06B070BD00BF90
:1032DC000038014000080140704700BFFEE700BF06
:1032EC00FEE700BFFEE700BFFEE700BF704700BF70
:1032FC00704700BF704700BF08B5FCF75FFFBDE823
:10330C000840FCF7F9BF00BF4FF47F02024B0348A3
:10331C001A61FDF773B800BF000801400C3700209C
:10332C000148FDF7CBBF00BF503700204FF4804061
:10333C00FDF702BA08B5FFF7A9FE08BD30B44FF48B
:10334C001F054FF000640E4B0E4A19680E4841F0F1
:10335C000101196059680A405A601A6822F0847297
:10336C0022F480321A601A6822F480221A605A6899
:10337C0022F4FE025A609D60846030BC704700BF2E
:10338C00001002400000FFF800ED00E0002103E017
:10339C000B4B5B58435004310A480B4B42189A4272
:1033AC00F6D30A4A02E0002342F8043B084B9A4247
:1033BC00F9D3FFF7C3FF00F013F8FFF7BBFA704720
:1033CC00F04A000800000020DC010020DC01002095
:1033DC00B83D0020FEE70A22002100F0DDB8000015
:1033EC0070B500250C4E0D4CA41BA410A54209D1A0
:1033FC0000F014FD00250A4E0A4CA41BA410A54293
:10340C0005D170BD56F8253098470135EEE756F8D2
:10341C00253098470135F2E7E84A0008E84A0008E9
:10342C00E84A0008EC4A000810B5431E0A449142D1
:10343C0000D110BD11F8014B03F8014FF7E703461B
:10344C000244934200D1704703F8011BF9E70000D6
:10345C000EB44FF4027100B59CB0ADF814106FF0BF
:10346C000041049107914FF6FF711DAB029006903D
:10347C00084853F8042BADF81610006802A9019304
:10348C0000F010F90022029B1A701CB05DF804EBDE
:10349C0003B070470C0000202DE9F84F8046894698
:1034AC0092461F468B465D460A9815F8014B00F074
:1034BC0089F82044467816F008060BD12D2C0BD138
:1034CC0001262C780BF1020567B1102F14D1302C8A
:1034DC000AD011E0AB46E6E72B2C04BF2C780BF19D
:1034EC000205F1E7302C27D12B7803F0DF03582BA2
:1034FC004BD110276C780235002E0CBF6FF00041B9
:10350C004FF000410022B1FBF7FE104607FB1E1CDA
:10351C00A4F13003092B11D81C46A7421DDD531C06
:10352C0007D0864516D301D1A44513DB012200FB3D
:10353C00074015F8014BEBE70A27DDE7A4F141033F
:10354C00192B01D8373CE8E7A4F16103192B04D8F7
:10355C00573CE2E74FF0FF32EBE7531C08D1222334
:10356C000846C8F80030BAF1000F07D1BDE8F88F53
:10357C0006B14042BAF1000F0CD022B1013DCAF89D
:10358C000050BDE8F88F4D46F9E73024002FB3D139
:10359C000827B1E7BDE8F88F084B37B51C68084D14
:1035AC00236A002B08BF2B46009313460A4601469C
:1035BC002046FFF771FF03B030BD00BF0C000020A8
:1035CC0070000020D0F8EC00704782B001B901A95E
:1035DC0042B14BB113780B601278101C18BF01204C
:1035EC0002B070471046FBE76FF00100F8E72DE9D9
:1035FC00F0478E6882469E420C469146984635D8D6
:10360C008A8912F4906F31D00223256809696F1AE8
:10361C00656905EB450595FBF3F508F101033B44A2
:10362C009D4238BF1D46530531D5294600F048FB55
:10363C00064650B90C23CAF80030A3894FF0FF306E
:10364C0043F04003A381BDE8F0873A462169FFF7B8
:10365C00EBFEA38923F4906343F08003A3812661DE
:10366C003E44266046466561ED1BA560464528BF75
:10367C00464649463246206800F0BBFAA368002053
:10368C009B1BA36023681E442660BDE8F0872A4676
:10369C0000F074FB06460028E1D12169504600F089
:1036AC00C3FAC7E72DE9F04F9DB003938B89804691
:1036BC001C060D4616460FD50B696BB9402100F060
:1036CC00FFFA2860286128B90C23C8F800304FF0A5
:1036DC00FF30C4E040236B610023099320238DF855
:1036EC00293030234FF0010B8DF82A3037463C46F9
:1036FC0014F8013B002B3CD1B7EB060A0BD0534618
:10370C00324629464046FFF772FF013000F0A28096
:10371C00099B534409933B78002B00F09B800023BA
:10372C004FF0FF3204930793059206938DF85330B4
:10373C001A9305222178504800F04DFA671C049B1F
:10374C00D8B9D90644BF20228DF853201A0744BF9C
:10375C002B228DF8532022782A2A16D000210A20F9
:10376C00079A27463B780134303B092B50D9C9B115
:10377C0011E0252BC0D02746B9E73F4A3C46801ABA
:10378C000BFA00F018430490D3E7039A111D12684A
:10379C000391002A01DB079204E0524243F002033A
:1037AC00079204933B782E2B0DD17B78791C2A2B16
:1037BC0032D1039B02371A1D1B680392002BB8BF32
:1037CC004FF0FF3305932D4C03223978204600F03F
:1037DC0002FA38B14023001B03FA00F0049B0137B6
:1037EC00034304933978062225487E1C8DF8281053
:1037FC0000F0F1F9002835D0224BFBB9039B0733BD
:10380C0023F0070308330393099B4B4409936DE79B
:10381C0000FB02320121A4E700230A241846059379
:10382C000F463A780131303A092A03D9002BCAD015
:10383C000590C8E704FB00200123F1E703AB0093DC
:10384C002A46114B04A94046AFF30080B0F1FF3F6C
:10385C008146D9D1AB895B063FF539AF09981DB0CC
:10386C00BDE8F08F03AB00932A46074B04A94046F2
:10387C0000F084F8EAE700BFB2490008B849000834
:10388C00BC49000800000000FB3500082DE9F0479A
:10389C0091461F468A680B6906469342B8BF134689
:1038AC00C9F8003091F843200C46DDF8208012B1A5
:1038BC000133C9F800302368990642BFD9F80030AB
:1038CC000233C9F80030256815F0060507D104F15C
:1038DC00190AE368D9F800209B1A9D422ADB94F858
:1038EC0043302268003318BF012392062FD404F111
:1038FC00430239463046C047013022D02368E56880
:10390C0003F00603042B18BF0025D9F800204FF054
:10391C00000908BFAD1AA368226908BF25EAE5753E
:10392C009342C4BF9B1AED181A344D451BD100208D
:10393C00BDE8F0870123524639463046C047013076
:10394C0003D14FF0FF30BDE8F0870135C1E73020DF
:10395C00E11881F843005A1C94F8451022440233B4
:10396C0082F84310C3E70123224639463046C0474C
:10397C000130E6D009F10109D7E700002DE9F04349
:10398C0017460A7E85B06E2A984606460C460C9B56
:10399C0001F1430E00F0BC801AD8632A2ED00AD84D
:1039AC00002A00F0C880582A00F08A8004F14205F1
:1039BC0084F842202AE0642A01D0692AF6D12168D1
:1039CC001A6811F0800F23D0111D1960136827E0BD
:1039DC00732A00F0B48008D86F2A2AD0702AE5D157
:1039EC000A6842F020020A6003E0752A21D0782A86
:1039FC00DCD178226F4984F8452064E01A6801F123
:103A0C004205111D1960136884F842300123A3E0AC
:103A1C0011F0400F02F104011960D7D0B2F9003057
:103A2C00002B03DA2D225B4284F8432062490A22E0
:103A3C0017E02068196810F0800F03D0081D18607B
:103A4C000B6806E010F0400F01F104001860F7D08D
:103A5C000B886F2A14BF0A2208225749002084F8C9
:103A6C0043006568002DA560C0F29C80206820F0A2
:103A7C0004002060002B3FD1002D40F0958075464E
:103A8C00082A0BD12368DA0708D5236962689A42A1
:103A9C00DEBF302305F8013C05F1FF35AEEB050325
:103AAC002361CDF800803B4603AA21463046FFF740
:103ABC00EDFE013055D14FF0FF3005B0BDE8F0837D
:103ACC0081F845203C492268186812F0800F00F1FB
:103ADC0004051D6001D0036802E05506FBD5038880
:103AEC00D00744BF42F0200222601BB9226822F0AA
:103AFC00200222601022B1E77546B3FBF2F002FB04
:103B0C001033CB5C05F8013D03460028F5D1B7E72F
:103B1C0008681A6810F0800F496904D0101D1860ED
:103B2C001368196007E010F0400F02F104001860F0
:103B3C001368F6D01980002375462361B1E71A6823
:103B4C00111D1960156800216268284600F043F8C1
:103B5C0008B1401B606063682361002384F8433024
:103B6C009FE723692A4639463046C0470130A2D028
:103B7C0023689B0707D5002504F11909E368039A0C
:103B8C009B1A9D4205DBE068039B9842B8BF184620
:103B9C0093E701234A4639463046C04701308AD064
:103BAC000135EBE7002BA7D10B7804F1420584F823
:103BBC00423065E7D4490008C349000849B1FF2ADF
:103BCC008BBF8A230A700360012088BF4FF0FF303F
:103BDC0070470846704710B5C9B20244904203467C
:103BEC0001D1002010BD1C7801308C42F6D1184652
:103BFC0010BD884210B501EB020303D8421E994256
:103C0C000CD110BD9842F9D28118D21AD34200D1EE
:103C1C0010BD13F8014D01F8014DF7E711F8014BF8
:103C2C0002F8014FEBE7000038B50546002943D0F8
:103C3C0051F8043C0C1F002BB8BFE41800F0D4F86A
:103C4C001E4A1368104633B9636014602846BDE8F9
:103C5C00384000F0CAB8A3420BD9216862189342CD
:103C6C0001BF1A685B685218226063600460EDE75C
:103C7C0013465A680AB1A242FAD919685818A042D8
:103C8C000BD120680144581882421960DED11068AB
:103C9C005268014419605A60D8E702D90C232B6092
:103CAC00D4E7206821188A4201BF116852680918AC
:103CBC00216062605C60C9E738BD00BF180200205B
:103CCC0070B5CD1C25F0030508350C2D38BF0C251F
:103CDC00002D064601DBA94203D90C2333600020DA
:103CEC0070BD00F081F8234A1468214691B9224C2A
:103CFC0023681BB9304600F067F82060294630462F
:103D0C0000F062F8431C26D10C233046336000F0DF
:103D1C006CF8E4E70B685B1B1AD40B2B0FD90B6008
:103D2C00CC18CD50304600F060F804F10B00231D88
:103D3C0020F00700C31A1BD05A42E25070BD8C42CF
:103D4C000BBF63684B681360636018BF0C46E9E7F0
:103D5C000C464968CAE7C41C24F00304A04205D0F1
:103D6C00211A304600F030F80130CDD02560D9E76B
:103D7C0070BD00BF180200201C020020F8B50746D9
:103D8C0014460E4621B91146BDE8F840FFF798BF1E
:103D9C0022B9FFF749FF25462846F8BD00F026F862
:103DAC0084420FD921463846FFF78AFF0546002882
:103DBC00F2D031462246FFF737FB31463846FFF743
:103DCC0033FFE9E73546E7E738B50023054C0546F0
:103DDC000846236000F014F8431C02D1236803B199
:103DEC002B6038BDB43D00207047704751F8040C6F
:103DFC000028A0F10400BCBF0B58C018704700008D
:103E0C00044B0246196809B9034919601868024441
:103E1C001A60704720020020B83D0020F8B500BFA2
:103E2C00F8BC08BC9E467047F8B500BFF8BC08BC8F
:043E3C009E467047E7
:103E400002030405060708090A0B0C0D0E0F1010DB
:103E500000000000003E5B4F5B3E3E6B4F6B3E1C24
:103E60003E7C3E1C183C7E3C181C577D571C1C5E3B
:103E70007F5E1C00183C1800FFE7C3E7FF00182412
:103E80001800FFE7DBE7FF30483A060E26297929BC
:103E900026407F050507407F05253F5A3CE73C5AF1
:103EA0007F3E1C1C08081C1C3E7F14227F22145FCE
:103EB0005F005F5F06097F017F006689956A606029
:103EC00060606094A2FFA29408047E040810207E23
:103ED000201008082A1C08081C2A08081E101010A8
:103EE000100C1E0C1E0C30383E3830060E3E0E06EE
:103EF000000000000000005F000000070007001441
:103F00007F147F14242A7F2A1223130864623649FF
:103F10005620500008070300001C224100004122E7
:103F20001C002A1C7F1C2A08083E080800807030EC
:103F3000000808080808000060600020100804025B
:103F40003E5149453E00427F400072494949462161
:103F500041494D331814127F1027454545393C4AD5
:103F600049493141211109073649494936464949EC
:103F7000291E000014000000403400000008142234
:103F800041141414141400412214080201590906A2
:103F90003E415D594E7C1211127C7F494949363EA3
:103FA000414141227F4141413E7F494949417F0989
:103FB0000909013E414151737F0808087F00417F94
:103FC00041002040413F017F081422417F40404092
:103FD000407F021C027F7F0408107F3E4141413E2A
:103FE0007F090909063E4151215E7F0919294626AC
:103FF0004949493203017F01033F4040403F1F20B0
:1040000040201F3F4038403F631408146303047886
:1040100004036159494D43007F41414102040810A6
:1040200020004141417F04020102044040404040E1
:10403000000307080020545478407F28444438384F
:1040400044444428384444287F38545454180008C1
:104050007E090218A4A49C787F0804047800447D9B
:1040600040002040403D007F1028440000417F4038
:10407000007C047804787C0804047838444444388C
:10408000FC1824241818242418FC7C08040408486C
:104090005454542404043F44243C4040207C1C20BD
:1040A00040201C3C4030403C44281028444C909018
:1040B000907C4464544C4400083641000000770072
:1040C00000004136080008040810083C2623263C5E
:1040D00000000000000000000000000000000000E0
:1040E0000000000084000401240214021401E4060C
:1040F0000418FC7F040004000401040244022402AA
:10410000C4050418FC7F0400FC7F040004000404C0
:10411000650C150C1D1215121521E7200440040032
:1041200004000404640C140C1C1214121421E42066
:1041300004400400040064081D081504150225014C
:10414000C500C7073478040000000000000000002C
:10415000000000000000000000000000C400040394
:10416000450C851105167D182508270CF40304005D
:1041700000000007000860109010081004100420D0
:10418000FC7F00000000000700086110911009107A
:1041900005100520FD7F0600000070008003181C3C
:1041A0000420842084204411380E00000000700098
:1041B0008103191C0520852085207911420E3C00C1
:1041C00000000000000000000000000000000000EF
:1041D0000000000004008800480144022204120884
:1041E0000C100020FE7F04000000180014081204C8
:1041F00022022401C8001000FE7F04000400140005
:104200002C0624092409941074100420FC7F040057
:104210000400C80008071018FC20922092204A10C1
:104220008C0F00000400FC3F144024404420442034
:104230004410440C840304000400FC0814091419FD
:10424000A418641424242442C4010400F4000403C8
:10425000240C54108C109408A4072400F47F04004C
:10426000000000000000000000000000000000004E
:104270000000000080070018E02090200820F87F50
:10428000100808110821F01E0400040604198520F6
:104290007E4014402420C410040F04000400FC3F9E
:1042A000044004400420042044104448846704006F
:1042B0000400FC3F0440044004200420441044084F
:1042C000840704000400FC3F05400540052005204C
:1042D00045104708840704000000700088000401AE
:1042E0000401840008003000FE7F04003400C40094
:1042F0000403040C0410E41024102408C407040070
:1043000000001802040504098408881070100020B9
:10431000FE7F04000400FC0304038401C400640065
:1043200024003400F43F0400000000019802A404BB
:104330006408401020202040FC7F04000400840317
:104340004402440044008401040E0430FC7F040055
:10435000000000000000000000000000000000005D
:104360000000000004000C061409A40844100420F6
:10437000F47F14001401E4010400040184028404A5
:104380004408441024202440FC7F0400040004015D
:10439000846284644408441024202440FC7F040088
:1043A00004000C1C14222423C4020404040C04087A
:1043B000FC7F0400640084010406040834107410B7
:1043C000441024082406E401840344042400440027
:1043D0008400440024004400FC7F0400C4302449CD
:1043E000140424084410240814042408FC7F040046
:1043F0000400C400680030006800C4000400080025
:10440000FC7F04000400040E04110C119420E4202D
:1044100004410442FC7F040004001C1024204420BA
:104420004410840F84008400FC7F04000400C40056
:104430000403040C04103C102410240EE4010400B6
:104440000400C4600463040C04103C102410240E07
:10445000E40104000400C4000503050C05103D1030
:104460002510270EE4010400000018001400F200DB
:104470004200240018001000FE7F04001800140001
:10448000F200420024201850FE7F04100420042073
:1044900074008403041C4420B4208C104C0894073E
:1044A0002400E47F00000000000000000000000085
:1044B00000000000000000000400040004000400EC
:1044C000F87FF87F040004000400040004000400E6
:1044D000FF7F05000500050005000500040004003D
:1044E0000400040005000500050005000500FF7F2D
:1044F0000400040004026C04940814082404CC038F
:1045000094005400CC7F0400C0000C031204820904
:1045100044123812F80C04012401F87E0000000255
:104520007002880488088810702000400000000095
:10453000040004038404440824101420FC7F1400A5
:104540002401C40004000400840044012422145403
:10455000FC7F14102421C42064008403041C642004
:1045600014462441442184214C1E340004000400DC
:10457000840764181C2004200410040004000400B4
:1045800004000400040064409C4104260418040054
:1045900004000400040008038404440822101420CA
:1045A000FE7F0010FE3F040004000403840444085E
:1045B00024101420FC7F0010FE3F040004000C6255
:1045C0001465A4084410042004400440FC7F040047
:1045D00004000C021405A408441004200440044004
:1045E000FC7F04000400050006000400F97FF97F49
:1045F000040006000500040004000400FD1F05205F
:104600008541854085408720041F04000400C400C4
:10461000680031006900C50005000900FF7F040043
:104620000400C4000403040C04103F102510250EE0
:10463000E5010400C40044008400FC01040184007E
:104640004407E418342014000400E4009500150029
:104650001500E501050E0530FF7F04000400FC0392
:1046600005038501C50065003500F57F07000400DE
:104670000400440068003008681C44360863904118
:10468000FC7F040004020C0CD410E42044204410ED
:10469000843F0460FC7F0400040024024404FC0FF7
:1046A0000410042004400440FC7F04000400640063
:1046B000840105067508151015101508E707040094
:1046C00000000402080590086010FE3F04108410EA
:1046D000780F000004000C0034043402C4010C0103
:1046E0009400D41F4C20040004000C10140824640F
:1046F000C4930491FCFF0410043004000000300057
:104700002900E5018500490031002100FF7F0400F8
:10471000040014222455A4589C7FA410A41214133E
:10472000042004000400E430644884480449FC3F49
:1047300004080410042004000400240054008C2009
:10474000FC504450E47F14100420040004006C006A
:1047500075102510C50805078500C70F2410040033
:10476000000018301448F2404240244018401040E5
:10477000FE7F04000400840944122414FC1F14105A
:1047800034100420FC7F0400040004304440A440A2
:10479000844044402420F41F040004000400040169
:1047A000860285044508451025202540FC7F04002D
:1047B00004000500850765181D200520071004006A
:1047C000040004000400FC7F24402420441044081A
:1047D000840404030400040004000401846285646A
:1047E0004508451025202540FE7F040000000C00F0
:1047F0001238205840408041003E00000000000078
:104800000000000004030406080E1819B0306060B0
:10481000004000000000700080010006C008E010A9
:1048200020102008C007000000000000783C8442EF
:10483000044104418442783C000000000000F80775
:10484000040802100220844F48503060000000002D
:1048500010006000800102067E0840082008100851
:10486000F807000000007800840002010201FC3F0C
:1048700000400050003000000000FE1F802080201B
:1048800080208020801F80005000300000000E0C2F
:104890001012202120324004800880080007000008
:1048A00000000000F81F0420042004200420F81F4A
:1048B000000000000000000000000000380E380E6C
:1048C00000000000000000000000000000000000E8
:1048D00000000000000000000000000000000000D8
:1048E00000000000000000000000000000000000C8
:1048F00000000000000000000000000000000000B8
:10490000000000004000900088014863309600904D
:104910000090FC7F0410043022323726323B1D28E1
:10492000000000000000000042616E676C61646579
:104930007368000000000000257320746F20257349
:10494000000000003B23260A3B3F0000000000005F
:10495000000000005261696C77617973000000000B
:1049600000000000063B1C3B380600000000000071
:10497000000000002E2E5C5372635C73746D333242
:10498000663178785F68616C5F6D73702E630000CC
:1049900000000000000000000102030406070809EF
:1049A00000000000010203044300504F5349580027
:1049B0002E00232D302B2000686C4C006566674567
:1049C0004647003031323334353637383941424387
:1049D0004445460030313233343536373839616238
:1049E00063646566000020202020202020202028ED
:1049F0002828282820202020202020202020202097
:104A000020202020202088101010101010101010CE
:104A1000101010101010040404040404040404040E
:104A2000101010101010104141414141410101018D
:104A30000101010101010101010101010101010166
:104A40000110101010101042424242424202020273
:104A50000202020202020202020202020202020236
:104A600002101010102000000000000000000000E4
:104A70000000000000000000000000000000000036
:104A80000000000000000000000000000000000026
:104A90000000000000000000000000000000000016
:104AA0000000000000000000000000000000000006
:104AB00000000000000000000000000000000000F6
:104AC00000000000000000000000000000000000E6
:104AD00000000000000000000000000000000000D6
:084AE0000000000000000000CE
:044AE8003101000890
:044AEC000D010008B0
:104AF000010000001000000000A24A041000002085
:104B000000000000000000000000000000000000A5
:104B10000000000000000000000000000000000095
:104B20000000000000000000000000000000000085
:104B30000000000000000000000000000000000075
:104B40000000000000000000000000000000000065
:104B50000000000000000000000000000000000055
:104B60004300000000000000000000000000000002
:104B70000000000000000000000000000000000035
:104B800043000000000000000000000000000000E2
:104B90000000000000000000000000000000000015
:104BA00043000000000000000000000000000000C2
:104BB00000000000000000000000000000000000F5
:104BC00043000000000000000000000000000000A2
:104BD00000000000000000000000000000000000D5
:104BE0004300000000000000000000000000000082
:104BF00000000000000000000000000000000000B5
:104C00004300000000000000000000000000000061
:104C10000000000000000000000000000000000094
:104C20004300000000000000000000000000000041
:104C30000000000000000000000000000000000074
:104C4000C93B0008D735000800000000E54900080E
:104C5000B0490008B7490008B7490008B74900083B
:104C6000B7490008B7490008B7490008B749000824
:104C7000B7490008B7490008FFFFFFFFFFFFFFFF2C
:104C8000FFFFFFFFFFFF00000100415343494900C0
:104C90000000000000000000000000000000000014
:104CA000000000000000000000004153434949009B
:104CB00000000000000000000000000000000000F4
:0C4CC000000000000000000000000000E8
:040000050800339923
:00000001FF
