:020000040800F2
:100000000050002001210008592000085D20000850
:100010006120000865200008692000080000000039
:100020000000000000000000000000006D2000083B
:1000300071200008000000007520000879200008E9
:1000400049210008492100084921000849210008E8
:1000500049210008492100084921000849210008D8
:1000600049210008492100084921000849210008C8
:100070008920000849210008492100084921000879
:1000800049210008492100084921000849210008A8
:100090004921000849210008492100084921000898
:1000A0004921000849210008492100084921000888
:1000B000952000084921000849210008492100082D
:1000C0004921000849210008492100084921000868
:1000D00049210008A92000084921000849210008F9
:1000E000A120000849210008492100080000000063
:1000F0000000000000000000000000000000000000
:0C01000000000000000000005FF808F1A3
:10010C0010B5054C237833B9044B13B10448AFF345
:10011C0000800123237010BD0C00002000000000A3
:10012C00BC21000808B5034B1BB103490348AFF3CE
:10013C00008008BD0000000010000020BC21000859
:10014C00034613F8012B002AFBD1181A013870470B
:10015C0038B54FF47A730D490D4A09781268B3FB20
:10016C00F1F30546B2FBF3F000F08EF808B90F2D51
:10017C0001D9012038BD0446024629464FF0FF3014
:10018C0000F040F8034B20461D6038BD00000020F5
:10019C000800002004000020074A08B5136803205B
:1001AC0043F01003136000F01BF80020FFF7D0FFA2
:1001BC0001F046FE002008BD00200240034A044B1B
:1001CC0011681B780B441360704700BF400000207F
:1001DC0000000020014B1868704700BF4000002051
:1001EC004FF6FF01064A0002D36800F4E0600B40B2
:1001FC0043F0BF6343F400330343D360704700BF45
:10020C0000ED00E0184B70B4DC68C4F30224C4F1B8
:10021C000706042E04F1040328BF0426062B17D965
:10022C000125033CA540013D2A400123B340013B7D
:10023C001940A140002841EA02010CDB090100F140
:10024C006040C9B200F5614080F8001370BC704783
:10025C0000221446E9E7054B00F00F000901C9B272
:10026C000344197670BC704700ED00E0FCEC00E034
:10027C00012300F01F01034A40098B4042F8203053
:10028C00704700BF00E100E00138B0F1807F0DD273
:10029C0030B4F02500220721054B064C586084F839
:1002AC002350104630BC9A6019607047012070478B
:1002BC0010E000E000ED00E0044A042813680CBFD5
:1002CC0043F0040323F004031360704710E000E0D4
:1002DC00704700BF08B5FFF7FBFF08BD00282ED004
:1002EC000346F0B400240126876842680568154966
:1002FC00C0683A43144F294402431869A7FB0171A3
:10030C005F6902433A439F6928683A43DF6920F4E6
:10031C007F503A4320F030000C4F0909024389000A
:10032C00DF63204619642A609C62DC621C635C6398
:10033C009C6383F8204083F82160F0BC7047012057
:10034C00704700BFF8FFFDBFCDCCCCCC0000024005
:10035C00F0B590F82040012C0CD0012590F82140EC
:10036C0080F82050AC4208D00022022380F82020D4
:10037C001846F0BD02231846F0BD00264FF0020CC3
:10038C00056886632E68076CD0F83CE0BC4026F00C
:10039C000106476880F821C02E60CEF804406B60DF
:1003AC00C36A102F0BBFAA60A960E960EA604BB169
:1003BC002B6843F00E032B602A68002342F00102E5
:1003CC002A60D5E72B6823F004032B602B6843F0DD
:1003DC000A032B60F0E700BF0422F0B4C66B016C7B
:1003EC00346803688A4022421D681FD06F071DD5F0
:1003FC001A68920603D41A6822F004021A603F4A63
:10040C0093425DD01432934262D01432934269D03D
:10041C00143293426CD0143293425BD01432934218
:10042C000CBF4FF480034FF080634AE002228A40F5
:10043C00224222D0AF0720D51A68910606D401219A
:10044C001A6822F00A021A6080F821102B4A934293
:10045C002CD01432934243D01432934245D01432F0
:10046C00934248D01432934237D0143293420CBF8B
:10047C004FF400134FF0007319E008228A40224217
:10048C001CD02A071AD5012200271C68056B24F002
:10049C000E0402FA01F11C607160826380F8212065
:1004AC0080F8207055B12B46F0BC18470223002170
:1004BC00134C826A636080F820103AB9F0BC704724
:1004CC0004230F49C26A4B60002AF7D0F0BC1047D6
:1004DC004023F6E74FF48023F3E74FF40033E6E7CD
:1004EC002023E4E74FF48063EBE74FF40073DEE77F
:1004FC004FF48043E5E74FF40053D8E7080002407F
:10050C00000002402DE9F04F4FF0000885B0434643
:10051C006FF01F06DFF8DCE1DFF8DCC16F4F0090F5
:10052C0005E00133102B06F1040600F0898001224E
:10053C000C689A401440A242F3D14D68122D00F081
:10054C00A38000F28C80022D00F0A58040F2818007
:10055C00032D00F09D80112D02D1CA6802F1040810
:10056C00FF2C70D8009A4FEA830A914612680F2527
:10057C0005FA0AFB22EA0B0208FA0AFA42EA0A0214
:10058C00C9F80020D1F804A01AF0805FC9D0DEF8B9
:10059C00189023F0030249F00109CEF81890DEF808
:1005AC00189002F1804209F00109CDF80C9002F587
:1005BC00803203F00309DDF80CB04FEA8909D2F858
:1005CC0008B005FA09F52BEA050001900098604582
:1005DC0077D0434DA84277D0424DA84279D0424DB6
:1005EC00A8420CBF4FF0030B4FF0040B0BFA09F9A8
:1005FC0001981AF4803F40EA090595603A6803F1C6
:10060C00010314BF2243A2433A607A681AF4003FF4
:10061C0014BF2243A2437A60BA681AF4801F14BF35
:10062C002243A243BA60FA681AF4001F14BF1443A1
:10063C0022EA0404102BFC6006F104067FF477AF69
:10064C0005B0BDE8F08F0098B246426800F104098D
:10065C008DE7A5B1012D83D1D1F80C8080E723481B
:10066C0085420CD01BD92248854208D000F5803039
:10067C00854204D0DFF884904D457FF471AF8D68CE
:10068C00BDB94FF004086BE7CA6802F10C0867E7C4
:10069C004FF0000864E7CA6802F1080860E7DFF869
:1006AC0060904D45EBD009F580394D457FF458AF3E
:1006BC00E5E70098012D0CBF026142614FF008087C
:1006CC004EE74FF0000993E74FF0010B0BFA09F9D5
:1006DC008EE74FF0020B0BFA09F989E70004014091
:1006EC00000C0140001001400014014000002110DA
:1006FC0000003110001002400008014000002210E0
:10070C000000111002B9090401617047C368594017
:10071C00C1607047044A5169014200D1704708B565
:10072C00506101F04BFB08BD000401402DE9F04184
:10073C00036882B0DD07044630D5AD494A6802F043
:10074C000C02042A00F0FA804A6802F00C02082A13
:10075C0000F0F0806368B3F5803F00F07481002BEB
:10076C0000F00481B3F5A02F00F0A981A04B1A680A
:10077C0022F480321A601A6822F480221A60FFF781
:10078C0029FD9B4D064605E0FFF724FD801B6428E0
:10079C0000F217812B689A03F6D523689F0728D59A
:1007AC00934A516811F00C0F00F0A980516801F0C8
:1007BC000C01082900F09F802369002B00F0328186
:1007CC0001228C4B8A4D1A60FFF704FD064605E0AA
:1007DC00FFF700FD801B022800F2F3802B689807BE
:1007EC00F6D52B68626923F0F80343EAC2032B6049
:1007FC0023681A075DD45D073AD57D4BDA69D000C2
:10080C0000F1A6800125DA6942F08052DA61DB69D9
:10081C0003F080530093009B774B1A68D10540F18D
:10082C00BF80E368012B00F01481002B00F0CD8019
:10083C00052B6F4B1A6A00F04F8122F001021A62ED
:10084C001A6A22F004021A62FFF7C4FC684E804652
:10085C0041F2883706E0FFF7BDFCA0EB0800B84278
:10086C0000F2AF80336A9B07F5D5002D40F0F7807E
:10087C00E369D3B15E4D6A6802F00C02082A45D0D8
:10088C00022B4FF000025D4B00F0EF801A60FFF777
:10089C00A1FC2C46054605E0FFF79CFC401B0228FA
:1008AC0000F28F8023689B01F6D4002002B0BDE8D3
:1008BC00F081A369002B2DD00122514B4C4D1A60B5
:1008CC00FFF788FC064604E0FFF784FC801B022837
:1008DC0077D86B6A9B07F7D54A4B4B4A1B68A2FB30
:1008EC0003235B0A019300BF019B5A1E0192002B4C
:1008FC00F9D123687FE75268D6033FF55DAF3C4AD8
:10090C001268950726D52269012A23D0012002B04E
:10091C00BDE8F0813A4A364D1360FFF75BFC0646A2
:10092C0004E0FFF757FC801B02284AD86B6A9F072C
:10093C00F7D4DEE74A68D0037FF50CAF2C4A126877
:10094C0091037FF52BAF6268002A7FF427AFDDE7B8
:10095C00002561E7264960690A6822F0F80242EA3C
:10096C00C0020A601A077FF546AFA2E703F1804385
:10097C0003F504331A681D4622F480321A601A6893
:10098C0022F480221A60FFF725FC064604E0FFF7EC
:10099C0021FC801B642814D82B689B03F7D4FCE63D
:1009AC001A681E4642F480721A60FFF713FC074661
:1009BC003368DA053FF535AFFFF70CFCC01B642834
:1009CC00F6D9032002B0BDE8F08103F1804303F5B2
:1009DC0004331A6A1E4622F001021A621A6A41F2A4
:1009EC00883822F004021A62FFF7F4FB074612E083
:1009FC000010024000004242007000406000424281
:100A0C008004424208000020D34D6210FFF7E2FB45
:100A1C00C01B4045D5D8336A9807F7D4002D3FF456
:100A2C0027AF1CE0344A354D1360FFF7D3FB064665
:100A3C0004E0FFF7CFFB801B0228C2D82B68990774
:100A4C00F7D42368D5E62D4A136843F4803313603A
:100A5C0095E62A4A136A43F001031362F4E6274A27
:100A6C00D36923F08053D36102E71A60FFF7B2FB1E
:100A7C00064604E0FFF7AEFB801B0228A1D82B68CA
:100A8C009901F7D4226AB2F5803F2DD001251B4B7A
:100A9C00606A5968024321F4741119480A435A6078
:100AAC0005601C46FFF796FB054604E0FFF792FB3A
:100ABC00401B022885D823689A01F7D5F5E603F187
:100ACC008043A3F53C331A6842F480221A601A68FA
:100ADC0042F480321A6052E642F004021A621A6A38
:100AEC0042F001021A62AFE66B68A16823F400338E
:100AFC000B436B60CAE700BF00004242001002408B
:100B0C0060004242654A136803F007038B420BD224
:100B1C00136823F007030B431360136803F00703F8
:100B2C00994201D0012070472DE9F041036886B04D
:100B3C009A0706D55A4C8568626822F0F0022A435F
:100B4C006260DB0706460C4624D54268544B012AEA
:100B5C001B6800F09280022A00F08780980729D544
:100B6C004F4D41F288386B6823F0030313436B60DD
:100B7C00FFF730FB73680746012B65D0022B05D1BC
:100B8C006DE0FFF727FBC01B404572D86B6813F074
:100B9C000C0FF6D1414A136803F007039C420DD2A7
:100BAC00136823F0070323431360136803F0070350
:100BBC009C4203D0012006B0BDE8F0813368590790
:100BCC0006D53749F0684A6822F4E06202434A606D
:100BDC001A0707D5324A3169536823F4605343EA44
:100BEC00C1035360012602252E4B06AF0FCB07E93C
:100BFC000F002B4C8DF804608DF80550626802F0E4
:100C0C000C03082B0AD1C2F383433B4413F8101C8A
:100C1C00D30336D4244B03FB01F300E0234B204ACF
:100C2C00234852682349C2F30312825C0020D3404C
:100C3C000B60FFF78DFA002006B0BDE8F081FFF7DE
:100C4C00C9FAC01B404514D86B6803F00C03042B85
:100C5C00F5D19FE7FFF7BEFAC01B404509D86B687A
:100C6C0003F00C03082BF5D194E79D013FF578AF09
:100C7C00A0E7032006B0BDE8F0819F033FF570AFFD
:100C8C0098E76268094BC2F3404203FB01F33A4414
:100C9C0012F8142CB3FBF2F3C1E700BF00200240A2
:100CAC0000100240D421000800093D0000127A0017
:100CBC00502A000808000020014B1868704700BF3C
:100CCC0008000020044B05495B68054AC3F3022366
:100CDC00CB5C1068D840704700100240602A0008B6
:100CEC0008000020044B05495B68054AC3F3C22386
:100CFC00CB5C1068D840704700100240602A000896
:100D0C000800002000284AD038B590F83D30044641
:100D1C0003F0FF0253B302232268224984F83D30CA
:100D2C008A42136827D0B2F1804F16D0A1F59431C6
:100D3C008A4212D001F580618A420ED0A569E06822
:100D4C00616823F080032B431360D062916201230E
:100D5C000020536184F83D3038BDA16823F0700346
:100D6C000B43216923F440730B43E7E780F83C20E5
:100D7C0001F0B6F8CFE7A16823F070030B432169AB
:100D8C0023F440730B43A16923F080030B431360DE
:100D9C00E368D3626368936263691363D7E70120E6
:100DAC00704700BF002C014003680020DA6842F055
:100DBC000102DA601A6842F001021A60704700BF43
:100DCC00704700BF00284AD038B590F83D30044633
:100DDC0003F0FF0253B302232268224984F83D300A
:100DEC008A42136827D0B2F1804F16D0A1F5943106
:100DFC008A4212D001F580618A420ED0A569E06862
:100E0C00616823F080032B431360D062916201234D
:100E1C000020536184F83D3038BDA16823F0700385
:100E2C000B43216923F440730B43E7E780F83C2024
:100E3C00FFF7C6FFCFE7A16823F070030B432169CE
:100E4C0023F440730B43A16923F080030B4313601D
:100E5C00E368D3626368936263691363D7E7012025
:100E6C00704700BF002C01400122036802FA01F117
:100E7C001A6A0A4822EA01021A621A6A834241EA91
:100E8C000201196205D01A68002042F001021A60B2
:100E9C0070475A6C42F400425A64F4E7002C01404B
:100EAC000122036802FA01F11A6A10B422EA010164
:100EBC001962044613481A6A83421A6213D041F22B
:100ECC001112196A114208D140F24442196A1142B6
:100EDC0003D11A6822F001021A600123002084F861
:100EEC003D3010BC704741F21112196A1142E6D123
:100EFC0040F24442196A1142E1D15A6C22F4004288
:100F0C005A64DCE7002C014090F83C30012B43D0B4
:100F1C00F0B50223012480F83D3080F83C400C2AC7
:100F2C0032D8DFE802F065313131073131318E31A1
:100F3C0031313B0003688F681D6A0E6825F010057F
:100F4C001D621A6A6C4DD3F804E09C6922F02002F1
:100F5C0024F4E644AB4242EA071244EA062400F0C9
:100F6C00AE804D68C3F804E09C619D631A629C6975
:100F7C000D6944F400649C61996921F48061996164
:100F8C009A6942EA05229A610023012280F83C30DA
:100F9C0080F83D201846F0BD0220704703688F682A
:100FAC001D6A0E6825F480551D621A6A524DD3F8DD
:100FBC0004E0DC6922F4005224F4E644AB4242EA39
:100FCC00073244EA062465D04D68C3F804E0DC61BE
:100FDC001D641A62DC690D6944F40064DC61D96932
:100FEC0021F48061D961DA6942EA0522DA61CBE742
:100FFC0003688F681D6A0E6825F001051D621A6A68
:10100C003D4DD3F804E09C6922F0020224F07304F5
:10101C00AB4242EA070244EA06045FD04D68C3F8CB
:10102C0004E09C615D631A629C690D6944F00804DC
:10103C009C61996921F0040199619A692A439A612A
:10104C00A2E703688F681D6A0E6825F480751D621F
:10105C001A6A294DD3F804E0DC6922F4007224F0FA
:10106C007304AB4242EA072244EA060418D04D68E6
:10107C00C3F804E0DC61DD631A62DC690D6944F0DD
:10108C000804DC61D96921F00401D961DA692A43C9
:10109C00DA6179E74D692EF4804E4EEA851E93E7AE
:1010AC004F698D69CE6822F400622EF4405E42EAEC
:1010BC0006223D4322F480624EEA051ED7E74F69B3
:1010CC008D69CE6822F080022EF4406E42EA061240
:1010DC003D4322F040024EEA850E42E7CF684D694F
:1010EC008E6922F008022EF4407E3A43354322F0FA
:1010FC00040245EA0E0E91E7002C014090F83C30BA
:10110C00012B40D00222F0B40125036880F83D2069
:10111C009A680C6822F47F4222F07702402C80F807
:10112C003C509A6073D018D9702C60D02DD9B4F57E
:10113C00805F57D0B4F5005F1CD18A684D68CC68CD
:10114C0099682A4342EA042221F47F410A439A60B7
:10115C009A6842F480429A600CE0102C32D038D954
:10116C00202C6CD0302C05D19A6822F0700242F001
:10117C0037029A600023F0BC012280F83C3080F8E2
:10118C003D201846704702207047502C5ED0602CD2
:10119C00F0D11C6A4D6824F01004CE681C62996969
:1011AC001A6A21F4704122F0A00242EA051241EAC7
:1011BC00063199611A629A6822F0700242F0670255
:1011CC009A60D7E79A6822F0700242F017029A6090
:1011DC00D0E7002CCED19A6822F0700242F00702C0
:1011EC009A60C7E79A6822F007029A60C2E78A6899
:1011FC004D68CC6899682A4342EA042221F47F4165
:10120C000A439A609A6842F077029A60B2E71D6AC4
:10121C001E6A4C6826F00106CF681E629A6925F09A
:10122C000A0122F0F00242EA071221439A61196284
:10123C009A6822F0700242F047029A609AE79A6824
:10124C0022F0700242F027029A6093E71D6A1E6A30
:10125C004C6826F00106CF681E629A6925F00A01D7
:10126C0022F0F00242EA071221439A6119629A684D
:10127C0022F0700242F057029A607BE7704700BF81
:10128C00704700BF704700BF704700BF036810B5C0
:10129C001A690446910702D5DA68920762D41A6972
:1012AC00500702D5DA68510749D41A69120702D5DA
:1012BC00DA68100731D41A69D20602D5DA68D0067A
:1012CC0018D41A69D10702D5DA68D2076BD41A6917
:1012DC00100602D5DA6811066DD41A69520602D5C9
:1012EC00DA68500657D41A69910602D5DA68920664
:1012FC0049D410BD6FF0100108221961DB6920463A
:10130C0013F4407F227761D1FFF7B8FF2046FFF737
:10131C00B9FF002223682277D3E76FF0080104227B
:10132C001961DB6920469907227755D1FFF7A6FF93
:10133C002046FFF7A7FF002223682277BBE76FF058
:10134C000401022219619B69204613F4407F227725
:10135C003FD1FFF793FF2046FFF794FF002223684D
:10136C002277A2E76FF00201012219619B690277D3
:10137C009B0728D1FFF782FF2046FFF783FF00224F
:10138C00236822778BE76FF020022046BDE81040DF
:10139C001A6100F075B86FF0400220461A61FFF731
:1013AC0073FF23689FE76FF0010220461A6100F07B
:1013BC00DDFC23688BE76FF0800220461A6100F099
:1013CC0061F8236889E7FFF75BFFD8E7FFF758FF61
:1013DC009FE7FFF755FFC1E7FFF752FFABE700BFF1
:1013EC0090F83C30012B22D0024610B40024CB687C
:1013FC00886823F440730343486823F480630343F1
:10140C00086823F400630343086923F480530343FF
:10141C00486923F400530343886923F4404311685B
:10142C0003434B64204682F83C4010BC70470220BA
:10143C00704700BF90F83C30012B1FD002460220B1
:10144C00F0B500250126136882F83D005C68D1F8E0
:10145C0000E024F070045C6058684F6840EA0E00AD
:10146C0058609C68284624F080049C609968394335
:10147C00996082F83D6082F83C50F0BD02207047C4
:10148C00704700BF704700BF2DE9F04782460468E3
:10149C00C1682269836822F440520A432261E268DF
:1014AC000069DAF8141022F4B052034322F00C0253
:1014BC000B431343E3606369DAF81810514A23F4C1
:1014CC0040730B439442636159D0FFF7FBFBDAF88E
:1014DC00043000EB800000EB80009B00B0FBF3F3CA
:1014EC00494F4FF06408A7FB03235B091D01FFF76D
:1014FC00E9FBDAF8042000EB8000930000EB80009D
:10150C00B0FBF3F6FFF7DEFBDAF8042000EB80000B
:10151C00930000EB8000B0FBF3F3A7FB03235B0904
:10152C0008FB13631B013233A7FB03235B0903F096
:10153C00F006FFF7C7FBDAF8042000EB800000EBA5
:10154C0080009300B0FBF3F9FFF7BCFBDAF8043032
:10155C0000EB800000EB80009B00B0FBF3F3A7FBDB
:10156C0003235B0908FB13931B013233A7FB0323F3
:10157C00C3F3431333432B44A360BDE8F087FFF759
:10158C00B1FBDAF8043000EB800000EB80009B002C
:10159C00B0FBF3F31C4F4FF06408A7FB03235B096C
:1015AC001D01FFF79FFBDAF8042000EB800093008D
:1015BC0000EB8000B0FBF3F6FFF794FBDAF80420A5
:1015CC0000EB8000930000EB8000B0FBF3F3A7FB73
:1015DC0003235B0908FB13631B013233A7FB0323B3
:1015EC005B0903F0F006FFF77DFBDAF8042000EB53
:1015FC008000930000EB8000B0FBF3F9FFF772FB67
:10160C00A4E700BF003801401F85EB5160B338B52B
:10161C0090F83930044603F0FF0203B32423226808
:10162C0084F83930D368204623F40053D360FFF795
:10163C002BFF00252021236828461A6922F49042AA
:10164C001A615A6922F02A025A61DA6842F400528D
:10165C00DA60E56384F8391084F83A1038BD80F804
:10166C00382000F0BDFCD9E70120704738B50024C4
:10167C00084B03F5416518464FF4C172802100F008
:10168C008EFD00F5C1739D4280F8804180F8814148
:10169C00F1D138BD44000020C0F1BF0080B2BF289A
:1016AC0042D889B2C1F11F039BB21F2B3CD80F2B20
:1016BC0070B43AD8194600B207294FEAE0034FF04C
:1016CC00000400F007003CD9083900EB031389B281
:1016DC009BB2D0070BD54FF4C170002C0CBF012569
:1016EC0008251A4E00FB0160C65C3543C5549607AD
:1016FC000BD54FF4C170002C0CBF02251025134ED6
:10170C0000FB0160C65C3543C55450070BD54FF444
:10171C00C175002C0CBF042220220C4805FB0101D2
:10172C00C85C0243CA5470BC7047C1F10F0189B246
:10173C0000B207294FEAE0034FF0080400F007005D
:10174C00C2D8C0EB03130F339BB2C2E74400002096
:10175C002DE9F04F83B00193174B02EB820287B255
:10176C001FFA81FA03EB820307F10A090AF110064A
:10177C00A3F102081FFA89F9B6B2BF2F38F8025F3D
:10178C0012D854460FFA87FB15F0010F4FEA550596
:10179C0006D01F2C21B203D8019A5846FFF77CFFC4
:1017AC000134A4B2A642EFD10137BFB2B945E4D19E
:1017BC0003B0BDE8F08F00BFE42100080268144BB1
:1017CC009A4200D070474FF47F02A3F578431C3B3C
:1017DC0010B500211A610F48FFF762FB0E4A13681F
:1017EC000133072B136005D900230C4913600B68D8
:1017FC0001330B604FF4C1744FF480111368084A25
:10180C00084804FB0323084A0360116110BD00BFA4
:10181C001C00024020110020380000203000002065
:10182C004400002028000020000C014030B50122AB
:10183C004FF48033002502244FF4E01191B006A838
:10184C0006920A9207930E9308950D940F91FEF74A
:10185C006DFF00B1FEE703464FF480620F25214671
:10186C0001A802940393059301950492FFF74AF99A
:10187C00044600B1FEE7FFF71FFA084BA3FB00304C
:10188C008009FEF701FD0420FEF716FD22462146D5
:10189C004FF0FF30FEF7B6FC11B030BDD34D6210E7
:1018AC002DE9F04FAA4CADF2644D4FF001084FF406
:1018BC0000570025FEF770FCFFF7B8FFA36903265D
:1018CC0043F01003A361A369424603F0100307938E
:1018DC00079BA369394643F02003A361A3699D4884
:1018EC0003F020030893089BA3690DF1600B43F0F0
:1018FC000403A361A36903F004030993099BA3697F
:10190C0043F00803A361A36903F008030A930A9B3D
:10191C00FEF7F8FE2A46BF218F48FEF7F3FE2A4653
:10192C0040F2FF118D48FEF7EDFE594689488BE8D1
:10193C008001CBF80850CBF80C60FEF7E3FD4FF4B8
:10194C008042874B59468348CBF80020CBF80430B3
:10195C00CBF80880FEF7D6FD4FF4004359467D487E
:10196C008BE84800FEF7CEFD3F2359467A48CBF86A
:10197C000030CBF80480CBF80850CBF80C60FEF7A5
:10198C00C1FD4FF4C253594673488BE84800FEF72B
:10199C00B9FD8022112359466F48CBF80020CBF8B3
:1019AC000430CBF80880CBF80C60FEF7ABFD40F2AE
:1019BC00FF1359466948CBF80030CBF80480CBF8BC
:1019CC000850CBF80C60FEF79DFD4FF47E43594652
:1019DC0062488BE84800FEF795FD2A4629462820E8
:1019EC00FEF710FC2820FEF743FC63692A4643EA05
:1019FC00080363616369294603EA080306930C2014
:101A0C00069BFEF7FFFB0C20FEF732FC1723554C10
:101A1C00554A20466560A56025616561A561226017
:101A2C00E360FFF76FF900B1FEE74FF480580DA9A2
:101A3C002046CDF83480FFF761FB00B1FEE720466D
:101A4C00FFF7C0F900B1FEE70B900C900BA92046F4
:101A5C00FFF7F0FC00B1FEE7602204230C25119285
:101A6C001390024614901690179011A920461593C6
:101A7C001295FFF749FA034600B1FEE7CBF80000D8
:101A8C00CBF80400CBF80800CBF80C00CBF8100016
:101A9C0059462046CBF81470CBF81830FFF7A0FC51
:101AAC00064600B1FEE7204600F068FA4FF080428F
:101ABC0043F63F032D4D28462A606E60AE602E61C2
:101ACC00AE61EB60FFF71EF900B1FEE711A92846E5
:101ADC00CDF84480FFF712FB00B1FEE72846FFF774
:101AEC0071F9034600B1FEE720220DA928460E939A
:101AFC000D92FFF79FFC00B1FEE7002360204FF42E
:101B0C0061570426CBF800001A4659461748CBF803
:101B1C000470CBF80830CBF81060FFF7F5F90746E6
:101B2C0000B1FEE7114800F029FA4FF4E1210C2333
:101B3C000F4E104A3046B760F7603761B761F761F6
:101B4C00716032607361FFF761FD0746A0B1FEE77B
:101B5C00001002400010014000080140000C014040
:101B6C000000211020110020002C014060110020E9
:101B7C00BC0E0020003801408146FFF777FD6F490D
:101B8C006F4B22681960D3686E4943F400736E4C36
:101B9C00D3606E488C62FFF707F939466B48FFF744
:101BAC0063F943F2F872BA463C46B8462B68316882
:101BBC005A63CB68664843F02003CB603A464FF437
:101BCC000051FEF79FFD634B93E80300CBF8000038
:101BDC00ADF86410FEF7FEFA5F4B02901B78012BF8
:101BEC0014D15E48FEF7ACFA85B25C492A465846D9
:101BFC0000F0CAFA584B4FF4005155480BF80580C9
:101C0C0083F800804FF0C00AFEF780FD029B9C42D7
:101C1C007BD8B9F1000F78D101240FFA8AF7FFF7BE
:101C2C0025FD0AF10A06234600943846222249462D
:101C3C00FFF78EFD0AF1140523460094304632223C
:101C4C004946FFF785FD234600942846372249462E
:101C5C00FFF77EFD0AF11E02234610460094039204
:101C6C0049462622FFF774FD0AF12801234608464F
:101C7C000094049132224946FFF76AFD0AF1320EB4
:101C8C007046234600943B224946CDF814E0FFF7FA
:101C9C005FFD234600941D2249460AF13C00FFF7E4
:101CAC0057FD23460094282249460AF14600FFF7C7
:101CBC004FFD2346009438463B221021FFF748FD88
:101CCC0023460094304623221021FFF741FD234682
:101CDC000094284626221021FFF73AFD2346009453
:101CEC0003980A221021FFF733FD23460094049831
:101CFC003B221021FFF72CFD00942346029C0598F3
:101D0C003F2210211934FFF723FD154B1D78EDB23E
:101D1C00012D7FF45FAFFFF7A9FC124B2A46C3F8E5
:101D2C000080114B4FF400510948C3F80080FEF7B6
:101D3C00E9FC0B4BA94683F800804BE744000020DC
:101D4C0028000020540C0020C91700086011002046
:101D5C00001001402C2A00083D000020A015002096
:101D6C002C00002034000020380000200D4B0E49C0
:101D7C001B6810B50D4A0E4C43F01003CB60116874
:101D8C0020464FF4C1730B4AFEF7E2FA2268002199
:101D9C00BDE810401368084823F004031360FFF7F4
:101DAC0063B800BF38000020000C01402800002060
:101DBC00540C00200C08014020110020B0F5804F7D
:101DCC0000D070470122054B00F180404FF40051C8
:101DDC0000F550401A70FEF799BC00BF2C00002093
:101DEC00124B1B681A6892060FD510B55C68E4B2EA
:101DFC00242C10D02A2C09D00D490B780D48DBB2BD
:101E0C005A1CD2B2C4540A7010BD704701220A4B3E
:101E1C0007491A70F1E700214FF48062054800F081
:101E2C00BEF9002302490B70E7E700BFBC0E00208F
:101E3C003C000020A01500203D000020FEE700BF64
:101E4C00254B00B59A6983B042F001029A619A69F8
:101E5C00032002F001020092009ADA6942F08052EB
:101E6C00DA61DB6903F080530193019BFEF7B8F94B
:101E7C0000226FF00B001146FEF7C4F900226FF040
:101E8C000A001146FEF7BEF900226FF00900114658
:101E9C00FEF7B8F900226FF004001146FEF7B2F914
:101EAC0000226FF003001146FEF7ACF900226FF030
:101EBC0001001146FEF7A6F900224FF0FF30114643
:101ECC00FEF7A0F9054A536823F0E06343F0007372
:101EDC00536003B05DF804FB0010024000000140A9
:101EEC00F0B5224A036883B0934218D0B3F1804F07
:101EFC0001D003B0F0BD002203F50433DC691146B8
:101F0C0044F00104DC61DB691C2003F00103019344
:101F1C00019BFEF777F91C20FEF7AAF9E9E70446C6
:101F2C001020002380274FF4005602F5644291697B
:101F3C000F4D41F400616860916192690D4902F4A2
:101F4C00006200922846009A2960EF60EE61AB6057
:101F5C002B616B61AB61FEF7C1F910B965626C6204
:101F6C00C7E76E210448FFF769FFF7E7002C014033
:101F7C00540C00201C000240342A000810B50368E1
:101F8C00144A84B0934219D0B3F1804F01D004B0FD
:101F9C0010BD022203234FF4004469460E480192FF
:101FAC0003930094FEF7AEFA0C4A536823F4407383
:101FBC0043F0E06343F480735360E8E74FF48074BC
:101FCC000222032369460448009401920393FEF70E
:101FDC0099FADCE7002C01400008014000000140A8
:101FEC000268184B9A4200D0704770B54FF40076D7
:101FFC000225032403F558439A6986B042F48042C3
:10200C009A619B6902A903F4804301930E48019BDA
:10201C000594029600240395FEF774FA4FF480633E
:10202C0002A90948029303940494FEF76BFA224622
:10203C0021462520FEF7E6F82520FEF719F906B013
:10204C0070BD00BF0038014000080140704700BF60
:10205C00FEE700BFFEE700BFFEE700BFFEE700BFE4
:10206C00704700BF704700BF704700BF08B5FEF750
:10207C00A5F8BDE80840FEF72DB900BF0148FEF7F2
:10208C00ABB900BF540C00200148FFF7FFB800BFEC
:10209C00601100204FF48040FEF73CBB08B5FFF701
:1020AC009FFE08BD30B44FF41F054FF000640E4B7B
:1020BC000E4A19680E4841F00101196059680A402E
:1020CC005A601A6822F0847222F480321A601A68FC
:1020DC0022F480221A605A6822F4FE025A609D6033
:1020EC00846030BC704700BF001002400000FFF855
:1020FC0000ED00E0002103E00B4B5B584350043132
:10210C000A480B4B42189A42F6D30A4A02E00023C3
:10211C0042F8043B084B9A42F9D3FFF7C3FF00F097
:10212C000FF8FFF7BDFB7047702A00080000002075
:10213C000C0000200C000020A0190020FEE700007D
:10214C0070B500250C4E0D4CA41BA410A54209D152
:10215C0000F02EF800250A4E0A4CA41BA410A54230
:10216C0005D170BD56F8253098470135EEE756F885
:10217C00253098470135F2E7682A0008682A0008DC
:10218C00682A00086C2A000810B5431E0A449142C4
:10219C0000D110BD11F8014B03F8014FF7E70346CE
:1021AC000244934200D1704703F8011BF9E7000089
:1021BC00F8B500BFF8BC08BC9E467047F8B500BF28
:0821CC00F8BC08BC9E467047F8
:1021D40002030405060708090A0B0C0D0E0F101064
:1021E40000000000000000000000000000000000EB
:1021F4000000000084000401240214021401E40617
:102204000418FC7F040004000401040244022402B4
:10221400C4050418FC7F0400FC7F040004000404CB
:10222400650C150C1D1215121521E720044004003D
:1022340004000404640C140C1C1214121421E42071
:1022440004400400040064081D0815041502250157
:10225400C500C70734780400000000000000000037
:10226400000000000000000000000000C40004039F
:10227400450C851105167D182508270CF403040068
:1022840000000007000860109010081004100420DB
:10229400FC7F000000000007000861109110091085
:1022A40005100520FD7F0600000070008003181C47
:1022B4000420842084204411380E000000007000A3
:1022C4008103191C0520852085207911420E3C00CC
:1022D40000000000000000000000000000000000FA
:1022E400000000000400880048014402220412088F
:1022F4000C100020FE7F04000000180014081204D3
:1023040022022401C8001000FE7F0400040014000F
:102314002C0624092409941074100420FC7F040062
:102324000400C80008071018FC20922092204A10CC
:102334008C0F00000400FC3F14402440442044203F
:102344004410440C840304000400FC081409141908
:10235400A418641424242442C4010400F4000403D3
:10236400240C54108C109408A4072400F47F040057
:102374000000000000000000000000000000000059
:102384000000000080070018E02090200820F87F5B
:10239400100808110821F01E040004060419852001
:1023A4007E4014402420C410040F04000400FC3FA9
:1023B400044004400420042044104448846704007A
:1023C4000400FC3F0440044004200420441044085A
:1023D400840704000400FC3F054005400520052057
:1023E40045104708840704000000700088000401B9
:1023F4000401840008003000FE7F04003400C4009F
:102404000403040C0410E41024102408C40704007A
:1024140000001802040504098408881070100020C4
:10242400FE7F04000400FC0304038401C400640070
:1024340024003400F43F0400000000019802A404C6
:102444006408401020202040FC7F04000400840322
:102454004402440044008401040E0430FC7F040060
:102464000000000000000000000000000000000068
:102474000000000004000C061409A4084410042001
:10248400F47F14001401E4010400040184028404B0
:102494004408441024202440FC7F04000400040168
:1024A400846284644408441024202440FC7F040093
:1024B40004000C1C14222423C4020404040C040885
:1024C400FC7F0400640084010406040834107410C2
:1024D400441024082406E401840344042400440032
:1024E4008400440024004400FC7F0400C4302449D8
:1024F400140424084410240814042408FC7F040051
:102504000400C400680030006800C400040008002F
:10251400FC7F04000400040E04110C119420E42038
:1025240004410442FC7F040004001C1024204420C5
:102534004410840F84008400FC7F04000400C40061
:102544000403040C04103C102410240EE4010400C1
:102554000400C4600463040C04103C102410240E12
:10256400E40104000400C4000503050C05103D103B
:102574002510270EE4010400000018001400F200E6
:102584004200240018001000FE7F0400180014000C
:10259400F200420024201850FE7F0410042004207E
:1025A40074008403041C4420B4208C104C08940749
:1025B4002400E47F00000000000000000000000090
:1025C40000000000000000000400040004000400F7
:1025D400F87FF87F040004000400040004000400F1
:1025E400FF7F050005000500050005000400040048
:1025F4000400040005000500050005000500FF7F38
:102604000400040004026C04940814082404CC0399
:1026140094005400CC7F0400C0000C03120482090F
:1026240044123812F80C04012401F87E0000000260
:1026340070028804880888107020004000000000A0
:10264400040004038404440824101420FC7F1400B0
:102654002401C4000400040084004401242214540E
:10266400FC7F14102421C42064008403041C64200F
:1026740014462441442184214C1E340004000400E7
:10268400840764181C2004200410040004000400BF
:1026940004000400040064409C410426041804005F
:1026A40004000400040008038404440822101420D5
:1026B400FE7F0010FE3F0400040004038404440869
:1026C40024101420FC7F0010FE3F040004000C6260
:1026D4001465A4084410042004400440FC7F040052
:1026E40004000C021405A40844100420044004400F
:1026F400FC7F04000400050006000400F97FF97F54
:10270400040006000500040004000400FD1F052069
:102714008541854085408720041F04000400C400CF
:10272400680031006900C50005000900FF7F04004E
:102734000400C4000403040C04103F102510250EEB
:10274400E5010400C40044008400FC010401840089
:102754004407E418342014000400E4009500150034
:102764001500E501050E0530FF7F04000400FC039D
:1027740005038501C50065003500F57F07000400E9
:102784000400440068003008681C44360863904123
:10279400FC7F040004020C0CD410E42044204410F8
:1027A400843F0460FC7F0400040024024404FC0F02
:1027B4000410042004400440FC7F0400040064006E
:1027C400840105067508151015101508E70704009F
:1027D40000000402080590086010FE3F04108410F5
:1027E400780F000004000C0034043402C4010C010E
:1027F4009400D41F4C20040004000C10140824641A
:10280400C4930491FCFF0410043004000000300061
:102814002900E5018500490031002100FF7F040003
:10282400040014222455A4589C7FA410A412141349
:10283400042004000400E430644884480449FC3F54
:1028440004080410042004000400240054008C2014
:10285400FC504450E47F14100420040004006C0075
:1028640075102510C50805078500C70F241004003E
:10287400000018301448F2404240244018401040F0
:10288400FE7F04000400840944122414FC1F141065
:1028940034100420FC7F0400040004304440A440AD
:1028A400844044402420F41F040004000400040174
:1028B400860285044508451025202540FC7F040038
:1028C40004000500850765181D2005200710040075
:1028D400040004000400FC7F244024204410440825
:1028E4008404040304000400040004018462856475
:1028F4004508451025202540FE7F040000000C00FB
:102904001238205840408041003E00000000000082
:102914000000000004030406080E1819B0306060BB
:10292400004000000000700080010006C008E010B4
:1029340020102008C007000000000000783C8442FA
:10294400044104418442783C000000000000F80780
:10295400040802100220844F485030600000000038
:1029640010006000800102067E084008200810085C
:10297400F807000000007800840002010201FC3F17
:1029840000400050003000000000FE1F8020802026
:1029940080208020801F80005000300000000E0C3A
:1029A4001012202120324004800880080007000013
:1029B40000000000F81F0420042004200420F81F55
:1029C400000000000000000000000000380E380E77
:1029D40000000000000000000000000000000000F3
:1029E40000000000000000000000000000000000E3
:1029F40000000000000000000000000000000000D3
:102A040000000000000000000000000000000000C2
:102A14000000000040009000880148633096009058
:102A24000090FC7F041004306B7572726F0000001C
:102A34002E2E5C5372635C73746D33326631787816
:102A44005F68616C5F6D73702E63000000000000AE
:102A5400000000000102030406070809000000004A
:042A64000102030464
:042A68003101000830
:042A6C000D01000850
:0C2A7000010000001000000000A24A0459
:0400000508002101CD
:00000001FF
